:020000040040BA
:10000000C02A402099094000970940009709400004
:100010009709400097094000970940000000000040
:1000200000000000000000000000000097094000F0
:100030009709400000000000970940009709400020
:100040009709400097094000970940009709400030
:100050009709400097094000970940009709400020
:100060009709400000000000850540009905400008
:10007000AD054000970940009709400097094000EE
:10008000C1054000D5054000970940009709400090
:100090009709400097094000970940006D0E400005
:1000A000AD0E4000350F4000970940009709400011
:1000B00097094000970940009709400097094000C0
:1000C00097094000970940009709400097094000B0
:1000D00097094000970940009709400097094000A0
:1000E0009709400097094000970940009709400090
:1000F0009709400097094000970940009709400080
:10010000970940009709400097094000970940006F
:1001100097094000000000000000000000000000FF
:10012000970940009709400097094000970940004F
:10013000970940009709400097094000970940003F
:10014000970940009709400097094000970940002F
:1001500097094000000000000000000000000000BF
:10016000000000000000000010B5054C237833B9F2
:10017000044B13B10448AFF300800123237010BD7A
:10018000B809402000000000BC4440000C4B43B1C3
:100190000C480D4910B5AFF300800C48036823B933
:1001A00010BD0A48036833B97047094B002BF7D0DC
:1001B000BDE810401847064B002BF5D0184700BF8C
:1001C00000000000BC444000BC094020BC4440008A
:1001D0000000000010B51048104B98473E21002049
:1001E0000F4B98470F4CA0470028FCD00E4B984768
:1001F0000E4A0F4B9A620F4CA0470028FCD00220F9
:100200000D4B984700200D4B98470D4B98470248DF
:10021000024B984710BD00BF80D1F0086D0B400025
:10022000090740005D0740006D074000013F1820AE
:1002300000060E407D0740006D064000A506400008
:10024000610A40002DE9F04180B90C469046002A31
:100250000FDD8F18084E094D306821462B689847EE
:100260000134BC42F8D14046BDE8F0814FF0FF3880
:10027000F9E78046F7E700BF940A40208C0A402047
:100280000138022815D82DE9F0410E4614469AB1DE
:100290000D46DFF838800C4FD8F8000015F8011B28
:1002A0003B68984700280ADBA81B013CF4D1BDE855
:1002B000F0814FF0FF3070471046BDE8F0814FF0FD
:1002C000FF30BDE8F08100BF900A4020940A402032
:1002D000F8B54FF400425C4B5A60BFF34F8FBFF349
:1002E0006F8F5A4B0022C3F850225A6942F40032F1
:1002F0005A61BFF34F8FBFF36F8FD3F88070C7F38E
:100300004E3607F007000430C7F3C907B7FA87FE77
:100310000EF01F0EBFF34F8F4FF0FF3404FA00FCB6
:1003200006FA00F004FA0EF407FA0EFE1D463A46ED
:10033000734640EA0301C5F86012013A2344B2F162
:10034000FF3FF6D1013E6044B6F1FF3FEFD1BFF36E
:100350004F8F3E4B5A6942F480325A61BFF34F8F40
:10036000BFF36F8F3A4A3B495160A1F580715160EC
:10037000BFF34F8FBFF36F8FD3F8902222F00102AB
:10038000C3F89022D3F8942222F00102C3F89422F9
:10039000BFF34F8FBFF36F8F0A202F4CA0470B2066
:1003A000A0470C20A0471020A0471120A0472B4BAE
:1003B0004FF480721A61C3F8A0201A63A3F580631A
:1003C0004FF400625A61C3F8A0205A66C3F8902027
:1003D0005A651A62C3F88420196F21F40061196705
:1003E000596F21F400615967C3F8C020C3F8D420C5
:1003F000C3F8B0204FF400121A66C3F890205A6573
:100400005A62C3F88020196F21F400111967596FDF
:1004100021F4001159675A60114AD2F8143143F09F
:100420001003C2F814310F4B10221A66C3F8902043
:100430005A655A62C3F88020196F11431967596FC2
:10044000114359675A60F8BD50180E4000ED00E0A6
:10045000000C0E400C08005A8D07400000120E40A0
:100460000080084000100E40C0F8841053004FF484
:100470000042B2FBF3F2013AC2F30D02C0F88C2045
:10048000704712F0100F12D0C0F8B01012F0200F09
:1004900007D0C0F8D41012F0400F05D0C0F8C0103B
:1004A0007047C0F8D010F6E7C0F8C4107047C0F825
:1004B000B41070470164704741647047C06C704766
:1004C000806C70472DE9F041044688460E4B9847F2
:1004D000054620460D4B9847054013D00C4C04F1BF
:1004E000600603E0B4420DD010345DB12068404591
:1004F000F8D161682942F5D0E3689847636825EA36
:100500000305EFE7BDE8F081BD044000C1044000F1
:10051000D4094020F8B5184C2668062E2AD84FF08A
:10052000000C6446154F04E00134E4B2A446A64230
:1005300009D3A64625017D598D42F5D107EB041557
:100540006D689542F0D10D4D4FEA0E1E05EB0E047D
:1005500045F80E106260A3600699E16001366645B9
:1005600005D011461A46064B98470020F8BD0249AF
:100570000E60F6E70120F8BD440A4020D40940206F
:100580008304400008B50A210148024B984708BD82
:10059000000E0E40C504400008B50B210148024B77
:1005A000984708BD00100E40C504400008B50C2156
:1005B0000148024B984708BD00120E40C504400098
:1005C00008B510210148024B984708BD00140E40A1
:1005D000C504400008B511210148024B984708BDE9
:1005E00000160E40C5044000F8B506460D461446F8
:1005F000174B984707464FF0FF313046154B984749
:100600003046154B98475FFA85FE0EF01F03012216
:1006100002FA03F36809114901EB8002C2F8803045
:10062000C2F88031002D0ADB6401E4B20C4A545553
:1006300041F82030394630460A4B9847F8BD0EF055
:100640000F0E6401E4B2084A02F80E40F0E700BF62
:10065000C1044000B9044000BD04400000E100E0D6
:1006600000E400E0B504400014ED00E0032811D0E0
:10067000042812D002280CBF4FF480710021084AD0
:10068000136B23F440730B431363936E13F0080F43
:10069000FBD070474FF44071F1E74FF40071EEE783
:1006A00000060E40174A136B23F0700318431063C3
:1006B000936E13F0080F0AD14FF4805311498A6EDC
:1006C00012F0080F03D1013BF9D1012070470D4A08
:1006D000136B23F0030343F002031363936E13F0D1
:1006E000080F0AD14FF4805306498A6E12F0080FA2
:1006F00005D1013BF9D1012070470020704700204F
:10070000704700BF00060E40A0B90E48036A0902F8
:1007100089B20D4A1A400D4B134319430162024638
:10072000936E13F0010FFBD0064A116A084B0B437E
:100730001362704703490B6A064A1A40064B13437B
:100740000B62704700060E40FCFFC8FF0100370037
:1007500000003701FCFFC8FE02003701024B986E13
:1007600000F48030704700BF00060E404FF000528A
:10077000014B9A62704700BF00060E40024B986E14
:1007800000F00200704700BF00060E4000F07F003E
:10079000054BC3F80C01D3F80C2142F01022C3F82A
:1007A0000C210020704700BF00060E4010B48901E4
:1007B0004318022444504FF0FF319962196A5A607D
:1007C0005DF8044B70478901052343507047890148
:1007D00002234350704700EB8111CA61704700EB60
:1007E00081114A62704700EB8111086A7047F0B4CA
:1007F00086B00224019408240294202403948024C7
:1008000004940A9CE40B0594B0EB510F14D84C0CE3
:10081000A04217D2012501AF57F82540B1FBF4F4EF
:10082000260C84420AD386420DD90135052DF3D119
:10083000002006B0F0BC70470020FAE70020F8E77F
:100840000120F6E700252AB106A901EB850151F840
:10085000141C1160002BF3D01D600120E9E74369EF
:1008600013F0020F02D0C1610020704701207047D1
:10087000436913F0010F03D083690B7000207047A8
:100880000120704710B40B01934214D9C9004B08E2
:1008900003EBC202B2FBF1F2D3085C1E4FF6FE710D
:1008A0008C4201D9012017E0416841F400214160E8
:1008B0000CE0012010E0590801EBC202B2FBF3F298
:1008C000D3085C1E4FF6FE718C42F2D8120402F47B
:1008D000E0221A43026200205DF8044B70470000DA
:1008E000084BC0F8E43000234360436283628823EE
:1008F0000360242303604FF4807303604FF40023EC
:10090000036070470041535570B505460C461646C6
:100910000F4B984700220F4B1A60A4B13246216852
:1009200028460D4B9847024678B96368A1680B4387
:1009300021690B43E1680B4306490B6069680B436F
:100940006B60104670BD0122FBE70122F9E700BF92
:10095000E1084000480A4020850840004023036029
:100960007047102303607047436913F0020F04D0EF
:10097000C1F30801C161002070470120704743693D
:1009800013F0010F05D08369C3F308030B60002047
:10099000704701207047FEE700B583B0254B264A1B
:1009A0009A4210D0254B234A9A420CD2013B9B1A03
:1009B00023F00303043313441F4951F8040B42F896
:1009C000040B9A42F9D11E4B1E4A9A420AD2013BAD
:1009D0009B1A23F0030304331344002142F8041B41
:1009E0009342FBD1184A194B23F07F039360EFF336
:1009F0001083B3FA83F35B09019372B6BFF35F8F81
:100A00000022134B1A700199124A136843F47003C1
:100A10001360BFF34F8FBFF36F8F29B101220C4BCF
:100A20001A70BFF35F8F62B60B4B98470B4B98471A
:100A3000FEE700BF00004020BC444000B809402051
:100A4000C00A4020B809402000ED00E0000040004E
:100A50000000402088ED00E0E9114000B10F4000A7
:100A60003B4B1B6B03F00303012B1DD083B1022B07
:100A700036D0374B1B6B03F07003702B5FD0344BB9
:100A80001A6B3449C2F302120B68D3400B607047F3
:100A9000314B5B6913F0800F14BF4FF400424FF4E9
:100AA000FA422C4B1A60E4E7294B1B6A13F0807F53
:100AB00003D02A4A274B1A60DBE7294A254B1A60E4
:100AC000234B1B6A03F07003102B05D0202BD0D1D1
:100AD000224A204B1A60CCE7224A1E4B1A60C8E714
:100AE0001B4B1B6A13F0807F16D01C4A194B1A60EF
:100AF000174B1B6B03F00303022BBAD1144A916A04
:100B0000926A1448C1F30A41036801FB0333D2B26D
:100B1000B3FBF2F30360ACE7114A0E4B1A600C4BC7
:100B20001B6A03F07003102B05D0202BE0D10B4A79
:100B3000084B1A60DCE70B4A064B1A60D8E7054AF7
:100B400013680949A1FB03135B081360704700BFDA
:100B500000060E400400402010180E40001BB70095
:100B600000093D0000127A00ABAAAAAA164B9842CF
:100B700013D9164B984215D9154B984216D9154BD7
:100B8000984217D9144B984218D9144B984294BFE5
:100B9000134A144A144B1A6070474FF08062124B8C
:100BA0001A607047114A104B1A607047104A0E4B7A
:100BB0001A6070470F4A0C4B1A6070474FF00422BE
:100BC000094B1A60704700BFBFF35E017FE7BD02AB
:100BD0003FDB1C04FFCE7B05BFC2DA067FB63908B7
:100BE0000005000400060004000C0E400001000493
:100BF00000020004000300040A4B1B6853B1094BB8
:100C00001B681A180849914208DB1046054A106013
:100C100018467047054A034B1A60F0E74FF0FF3063
:100C2000704700BF4C0A4020FCFF4520C02C4020EC
:100C30004FF0FF3070474FF400534B600020704777
:100C400001207047002070470A282AD1B1F5006FB3
:100C500027D108B5134B1B789BB9134B1B78A3B155
:100C6000124B1B78B3B9124A1368013313600E4B51
:100C70001B782BB11368042B02DD04220C4B1A6085
:100C800008BD0122084B1A7008BD002109480A4B13
:100C90009847E5E70022054B1A700122044B1A60C1
:100CA00008BD704708004020540A40200900402039
:100CB000500A402000C00040C7074000F0B583B094
:100CC00005460C46002301932A4B984213D02A4B29
:100CD000984218D0294B98421DD0294B9D4222D0D2
:100CE000284B9D4227D0284B9D422ED0274B9D421A
:100CF00035D003B0F0BD1F46254E21463846B047DB
:100D00000028FAD1E9E71F46214E21463846B04770
:100D10000028FAD1E4E71F461D4E21463846B04769
:100D20000028FAD1DFE71F46194E21463846B04762
:100D30000028FAD1DAE71E46164D01A93046A84729
:100D40000028FAD1019B2370D3E71E46114D01A95B
:100D50003046A8470028FAD1019B2370C9E71E46F8
:100D60000C4D01A93046A8470028FAD1019B2370F9
:100D7000BFE700BF00080E40000A0E40001A0E40F8
:100D8000001C0E40004002400080024000C00240B3
:100D9000710840007F09400070B50C462A4B98420C
:100DA00013D02A4B984219D0294B98421FD0294B77
:100DB000984225D0284B98422BD0284B984231D0CE
:100DC000274B984237D0002070BD1E46254D214646
:100DD0003046A8470028FAD1012070BD1E46214D9B
:100DE00021463046A8470028FAD1012070BD1E4692
:100DF0001C4D21463046A8470028FAD1012070BD7D
:100E00001E46184D21463046A8470028FAD1012039
:100E100070BD1E46144D21463046A8470028FAD121
:100E2000012070BD1E46104D21463046A8470028BF
:100E3000FAD1012070BD1E460B4D21463046A84711
:100E40000028FAD1012070BD00080E40000A0E40B3
:100E5000001A0E40001C0E4000400240008002407C
:100E600000C002405F0840006909400010B582B030
:100E7000094C00212046094B98470190019B012114
:100E8000074B19702046074B984700212046064B18
:100E9000984702B010BD00BF00C00040E707400007
:100EA00009004020C7074000CF07400000B583B0CD
:100EB00001211B481B4B98470190019B1A4B1B6853
:100EC000002B28DD194BDB6B13F4807F0ED0174B02
:100ED000DB6B13F4807F04D04FF48072134B5A63A2
:100EE00011E04FF48072114B1A630CE00F4BDB6B77
:100EF00013F4807F0AD04FF480720C4B5A630A4A75
:100F00001368013B136003B05DF804FB4FF480727B
:100F1000064B1A63F3E701210148054B9847F2E7B6
:100F200000C00040E7074000500A402000120E4079
:100F3000CF07400000B583B002211448144B9847F6
:100F40000190019B134B1B7833B10022114B1A7097
:100F50004FF48072104B1A63104B1B7883B10F4B08
:100F60001B7853B101220E4B1A700E4B1B68002BDD
:100F700003DD114605480C4B984703B05DF804FBB0
:100F800002210248094B9847E9E700BF00C0004032
:100F9000E70740000800402000120E40540A40209D
:100FA00009004020500A4020C7074000CF074000FA
:100FB0002DE980488BB0664B9847664B98470E20CA
:100FC000DFF81482C047644D644B1D60644A654B72
:100FD0001A60654A654B1A604FF4E1330493C023ED
:100FE00005934FF4006306930024079408940E20A1
:100FF000C0475F4A04A928465E4B984728465E4B87
:10100000984728465D4B98475D4E3368214698685F
:101010005C4DA847336821465868A8471720C04749
:10102000594D009504AB03AA29460320DFF8ACB163
:10103000D847049A42F4804221465448DFF8A0A1E0
:10104000D047039BB5FBF3F3514AA2FB033252088E
:1010500021464E48DFF88C91C8474E4F87F817431A
:101060004FF400033B601022214648484A4EB047E7
:101070001820C047009504AB03AA29460220D84790
:10108000049A42F4804201214048D047039BB5FBBB
:10109000F3F35A0801213D48C84787F818434FF039
:1010A00080733B60102201213848B0471920C047A7
:1010B000009504AB03AA29462046D847049A42F477
:1010C000804202213148D047039AB5FBF2F2B2FBCD
:1010D000F4F202212D48C84787F819434FF00073F6
:1010E0003B60102202212948B047022127482B4BA0
:1010F00098472B482B4DA8472B48A8470A20C047A4
:101100002A4D0A224FF400612846294B9847294B63
:10111000009379234FF400620A212846264EB047F7
:101120004FF480633B6022460A212846234B9847B0
:101130004FF400612846224B9847224A1346224921
:101140002248234CA0474FF48072224B5A63FEE79B
:10115000D5014000D102400000800240940A4020A6
:10116000990D4000900A4020BD0C40008C0A4020A0
:1011700080D1F008090940005D0940006309400082
:101180000C004020A913400000A3E11100C0004062
:10119000ABAAAAAA00E100E0DF074000C7074000B1
:1011A000384240009913400088424000000E0E4033
:1011B00069044000490C400015054000E905400065
:1011C000B5044000AC424000BC424000C042400078
:1011D0003912400000120E408D074000EF0740001A
:1011E000AD074000D707400070B50F4E0F4D761B7E
:1011F000B61018BF002405D0013455F8043B9847B9
:10120000A642F9D10A4E0B4D761B03F041F9B610F8
:1012100018BF002406D0013455F8043B9847A64275
:10122000F9D170BD70BD00BF9C4440009C4440009B
:10123000A44440009C4440000FB400B5074983B06B
:1012400004AB086853F8042B8168019300F046FA58
:1012500003B05DF804EB04B0704700BF0C00402001
:1012600070B4860746D0541E002A41D0CAB2034645
:1012700002E014F1FF343BD303F8012B9D07F8D1B2
:10128000032C2ED9CDB245EA05250F2C45EA05459C
:1012900019D903F110022646103E0F2E42F8105CB9
:1012A00042F80C5C42F8085C42F8045C02F110025F
:1012B000F2D8A4F1100222F00F0204F00F04103251
:1012C000032C13440DD91E462246043A032A46F83D
:1012D000045BFAD8221F22F003020432134404F004
:1012E00003042CB1C9B21C4403F8011B9C42FBD17E
:1012F00070BC704714460346C2E700BFF0B5054610
:1013000089B008460C4600F03BF9AB6B214F0494C2
:101310000126441C04A9022203940590AC68069798
:1013200007960191029253B3636E13F0010FB4F963
:101330000C309AB201D1900525D5910406D4626E85
:1013400043F4005322F40052A3816266284601AAA6
:10135000214601F0C5FB636E00280CBF0A254FF043
:10136000FF35DA0702D4A3899B0502D5284609B0C8
:10137000F0BDA06D01F06AFD284609B0F0BD284619
:1013800001F0A2F9D0E7A06D01F05EFDB4F90C30D8
:101390009AB2D2E728434000024B01461868FFF793
:1013A000ADBF00BF0C00402000290CBF022200226C
:1013B0004FF4806300F000B82DE9F043614C2568DC
:1013C00083B004460F4690461E4615B1AB6B002B0A
:1013D00064D0B8F1020F06D0B8F1010F00F29F807F
:1013E000002EC0F29C80636ED80734D52146284673
:1013F00001F012F9216B41B104F14003994202D08E
:10140000284601F087FA00232363B4F90C30002248
:10141000A26162601A063AD423F44A6323F00303FC
:10142000B8F1020FA3811DD001AB6A4621462846C0
:1014300001F00EFDA3891843A081002E32D1009E39
:10144000304601F07DFD074600286BD0A38943F0AC
:101450008003A38128E0A3899905C7D4A06D01F07A
:10146000F3FCC3E70025616E002604F1430243F05C
:1014700002030120A660CE07A38122602261606181
:1014800001D498053ED5284603B0BDE8F083216914
:10149000284601F03FFAB4F90C30BDE7284601F0C8
:1014A00013F996E7002FCBD0AB6B002B33D0009B0A
:1014B000B4F90C2027609E421CBF42F40062A28156
:1014C000B8F1010F04BF42F00102A28192B212F002
:1014D0000803276166610ED0D1071AD5656E764282
:1014E000002315F00105A661A36009D00025284658
:1014F00003B0BDE8F083A360656E15F00105F5D17A
:101500009305C0D4A06D01F0A1FC284603B0BDE84E
:10151000F083A660F0E7284601F0D6F8C7E74FF061
:10152000FF35B0E7DDF80090B14504D0484601F042
:1015300007FD074620B9B4F90C304FF0FF3592E7AC
:101540004E4683E70C004020000000000000000031
:10155000000000000000000000000000000000008B
:10156000000000000000000000000000000000007B
:10157000000000000000000000000000000000006B
:1015800090F800F06DE9024520F007016FF0000CC3
:1015900010F0070491F820F040F049804FF000046B
:1015A0006FF00700D1E9002391F840F000F1080046
:1015B00082FA4CF2A4FA8CF283FA4CF3A2FA8CF37E
:1015C0004BBBD1E9022382FA4CF200F10800A4FAE5
:1015D0008CF283FA4CF3A2FA8CF3E3B9D1E9042339
:1015E00082FA4CF200F10800A4FA8CF283FA4CF370
:1015F000A2FA8CF37BB9D1E9062301F1200182FA2A
:101600004CF200F10800A4FA8CF283FA4CF3A2FA2F
:101610008CF3002BC6D0002A04BF04301A4612BA3D
:10162000B2FA82F2FDE8024500EBD2007047D1E940
:10163000002304F00305C4F100004FEAC50514F0CF
:10164000040F91F840F00CFA05F562EA05021CBFA0
:1016500063EA050362464FF00004A9E72DE9F84F5D
:101660004B6E9C0493462FD59368126853B30E4675
:10167000074602F1080919E920045FEA9A0817D021
:10168000043D002401E0A04510D0324655F8041F67
:10169000384601F0BBF8431C04F10104F3D10023E8
:1016A000CBF80830CBF80430BDE8F88FDBF8083011
:1016B0002AF0030AA3EB0A03CBF8083009F1080962
:1016C000002BD8D10020EAE701F00AFA0023CBF87A
:1016D0000830CBF80430BDE8F88F00BF2DE9F04F9B
:1016E000ADB01D468B4690460793069018B1836BAC
:1016F000002B00F0F380DBF86430BBF90C00DF074F
:1017000081B202D48E0540F1FC808C040AD4DBF84F
:10171000643040F4005123F40053ABF80C10CBF8C4
:10172000643089B2080740F1B380DBF81030002B39
:1017300000F0AE8001F01A030A2B00F0B580002300
:101740000DF170090B93119310930393CDF83C9016
:10175000CA46CDF810B098F800304446FBB1252BAE
:1017600002D11CE0252B03D014F8013F002BF9D146
:10177000A4EB08059DB1109B119ACAF800800133B3
:101780002A44072BCAF80450119210937ADD002ADC
:1017900040F0B084039B10922B44CA4603932378F5
:1017A000002B00F0E08300204FF000038DF837306D
:1017B00004F1010862780546064603464FF0FF34FF
:1017C00008F10108A2F12001582900F2DE82DFE8C9
:1017D00011F02102DC02DC022902DC02DC02DC0264
:1017E000DC02DC02DC0289029502DC02A200BD02FE
:1017F000DC029F01A401A401A401A401A401A4018D
:10180000A401A401A401DC02DC02DC02DC02DC0293
:10181000DC02DC02DC02DC02DC02B201DC02DC0203
:10182000DC02DC02DC02DC02DC02DC02DC02DC02C8
:101830009701DC02DC02DC02DC02DC029B01DC0240
:10184000DC025302DC02DC02DC02DC02DC02DC0231
:10185000DC02DC02DC02DC025A021B02DC02DC02DB
:10186000DC026E021B02DC02DC027302DC02F50108
:1018700082010902D702DC029A02DC02A700DC0224
:10188000DC022E020AF1080A039B2B44039386E72D
:101890005946069800F0ACFD18BBBBF80C1001F0DF
:1018A0001A030A2B7FF44BAFBBF90E30002BFFF667
:1018B00046AFDBF86430DB0705D48F0503D4DBF8D3
:1018C000580001F0C3FA2B4642465946069800F0EC
:1018D0004DFD039003982DB0BDE8F08F00F0F4FEAD
:1018E00009E7DBF86430D90704D4BBF80C309A055B
:1018F00040F1AA844FF0FF33039303982DB0BDE865
:10190000F08FDBF8580001F09FFABBF90C0081B2B0
:10191000FBE67642079243F0040398F800204FE775
:1019200008969E0600F150840799DD060A4600F1EC
:10193000EF83580640F1EC830E8804310027012222
:1019400007914FF000018DF837100025611C00F061
:10195000168123F08001029156EA070140F01481BC
:10196000002C40F05C83002A40F0B78313F00103A1
:10197000059300F057840DF1B00B30230BF8413D77
:10198000059BA342B8BF234601930DB101330193D8
:10199000029B13F00203099302D0019B02330193CF
:1019A000029B13F084030A9340F01782089B019A6C
:1019B0009D1A002D40F31182102D40F39084109B4E
:1019C000119AC44ED6461027A2461946069C07E037
:1019D00001F1020C0EF1080E0146103D102D11DD33
:1019E000481C1032072811928EE8C0001090EFDDDD
:1019F000002A40F0E481103D102D11464FF0010CFB
:101A0000CE46EDDC54466146F2462A44072911923F
:101A1000CAF80060CAF80450109100F3EC829DF8F7
:101A200037500AF1080A481C002D40F0DE81099B5E
:101A3000002B00F0F88102320EA902230728119230
:101A400010908AE80A0040F3EA81002A40F08C8373
:101A50000A9B802B4FF001001146CA4640F0E781F7
:101A6000089B019D5E1B002E40F3E181102E9A4DD4
:101A700040F35084D4461027A246069C07E001F1AB
:101A8000020E0CF1080C0146103E102E11DD481C10
:101A90001032072811928CE8A0001090EFDD002A88
:101AA00040F09D82103E102E4FF0010E1146CC46A4
:101AB000EDDC5446E2463244BEF1070F11928AE84B
:101AC0006000CDF840E000F369830AF1080A0EF1E6
:101AD00001007146ABE1089613F0200240F08C83C0
:101AE00013F0100140F01A8313F0400200F0168347
:101AF00007980A460146043106880791002720E727
:101B0000089643F01003E7E7089643F0100308E750
:101B100043F0800398F8002052E6A2F1300100263D
:101B200018F8012B06EB860601EB4606A2F1300100
:101B30000929F5D946E60896002840F0088443F0C4
:101B400010039E0600F14C83DD0600F1F382580677
:101B500040F1F082079DB5F900602A46F71704327C
:101B6000304639460792002871F10002C0F25D83C9
:101B7000611C9DF837504FF001027FF4EAAE56EA3F
:101B8000070100F04D820293012A00F08C82022AA4
:101B900040F05C820B98CB46330906F00F0143EA14
:101BA00007733A091E461746435C0BF8013D56EA97
:101BB0000703F1D1A9EB0B030593E1E6002840F000
:101BC000C083990600F16783DA0600F1F1805B06B5
:101BD00040F1EE80079A136804320792BDF80C209A
:101BE0001A80B8E507983D4A08960B920668782255
:101BF000302104308DF8392043F00203079000278C
:101C00008DF8381002229CE60896002899D08DF8AD
:101C1000375096E798F80020002D7FF4D1AD0120D1
:101C20002025CDE543F0010398F80020C8E508968B
:101C3000002840F0938329490B919F0600F1E88228
:101C40000798DE06014600F170825D0640F16D8264
:101C50000431068807910027D80740F1228256EA0E
:101C6000070100F01E8230218DF8392043F0020375
:101C70008DF83810022264E60896002840F06B8345
:101C800017490B91D9E7079908960A688DF84820FB
:101C90004FF000000A468DF8370004320120019011
:101CA000079205900DF1480B0293002470E643F073
:101CB000400398F8002083E598F800206C2A03BFC1
:101CC00098F8012043F0200308F1010843F01003C5
:101CD00076E500BF5C4340006C4340004043400059
:101CE0002C43400007990E680A46002E02F10402B8
:101CF000FFF60FAE079298F8002061E598F80020F3
:101D000001202B255CE507990896D1F800B04FF02B
:101D100000028DF837200E1DBBF1000F00F0E582A8
:101D2000671C00F0C482224600215846019301F04E
:101D3000D7FB019B002800F0E582A0EB0B02059287
:101D4000079602939DF83750002419E698F8002072
:101D50002A2A08F1010700F0E982A2F130010929DD
:101D6000B8464FF000043FF62DAD18F8012B04EBF8
:101D7000840401EB4404A2F130010929F5D921E5DD
:101D800043F0200398F800201AE50896002840F058
:101D9000DB82002A00F0E78001218DF848204FF017
:101DA000000201918DF8372005910DF1480B7BE77A
:101DB000079A136804320792039A1A60CBE40FAAB9
:101DC00004992046FFF74AFC002840F03981109919
:101DD000119A01F1010CCE46FFE51099119A481CA9
:101DE0009DF83750002D3FF422AE01320DF137053A
:101DF0000121072811921090CAF80050CAF8041067
:101E000040F30881002A40F0BC81099B002B3FF47D
:101E10001FAE0EAB022208461C931D92CA46014615
:101E20000AF1080A01300A9B802B3FF419AE059B8A
:101E3000E41A002C2EDD102CB34D1EDDD6461026E4
:101E4000069FDDF810A006E0881C0EF1080E19466A
:101E5000103C102C10DD4B1C1032072B11928EE819
:101E600060001093F0DD002A65D1103C102C4FF07B
:101E700001001146CE46EEDCF246224407281192BC
:101E8000CAF80050CAF80440109000F385800AF1A7
:101E9000080A01300599CAF800B00A4407281192CF
:101EA000CAF80410109040F38280002A40F0188194
:101EB000029B1092580735D5089B01995C1A002C9B
:101EC00040F3E780CA46102C40F3188210998F4ED9
:101ED000069FDDF810B0102506E0881C0AF1080AFC
:101EE0001946103C102C11DD4B1C1032072B11929F
:101EF000CAF80060CAF804501093EEDD42BB103CF3
:101F0000102C4FF001001146CA46EDDC2244072890
:101F10001192CAF80060CAF80440109051DD002AFE
:101F200040F09B81039B089A01998A42ACBF9B18A1
:101F30005B1803934EE00FAA51463846FFF78EFB1D
:101F4000002840F03F811099119A481CCE467FE747
:101F50000FAA59463846FFF781FB60B91099119ACC
:101F6000481CCA46BDE7119BDDF810B0002B40F0BD
:101F7000D48100231093DBF8643013F0010FBBF819
:101F80000C3002D19A0540F1DE805B063FF5B2AC21
:101F900003982DB0BDE8F08F002A40F00681059A25
:101FA0001D9201231192CDF870B01093CA460AF128
:101FB000080A029B590704D5089B01995C1A002C5A
:101FC00081DC039B089901988142ACBF5B181B1808
:101FD000039372BB00231093CA46FFF7BCBB0FAA42
:101FE00004992046FFF73AFB50BB1099119A01F172
:101FF000010ECC4648E5002A40F040819DF837109C
:10200000002900F01B8101220DF1370110461D92BD
:102010001C91CA4601460AF1080A013007E5029BF5
:10202000012A00F09880022A0DD102930026002791
:10203000B0E50FAA04990698FFF710FB0028C9D055
:10204000DDF810B097E7029300260027494600E02C
:102050005946F20842EA4772F80806F007030746B5
:102060001646303356EA070201F8013C01F1FF3B06
:10207000EED1029AD6077FF59DAD302B3FF49AAD95
:10208000023930230BF8013CA9EB010305938B4681
:1020900076E4039B089A8A42ACBF9B185B180393B3
:1020A00098E702224DE4002F08BF0A2E52D3CB46F8
:1020B000304639460A22002301F036FF30320BF851
:1020C000012D3046394600230A2201F02DFF064635
:1020D0000F4656EA0703EBD16CE50594CB464FE477
:1020E0000FAA04990698FFF7B9FA0028A8D1119A07
:1020F000CA465EE70FAA04990698FFF7AFFA0028D0
:102100009ED1CA46FFF7C0BB6C4340005C43400011
:102110000431166807910122002712E4079801464E
:1021200004310668079100270BE40E68043107911B
:10213000002791E507990E680A46F71704320792BF
:10214000304639460FE5DBF8580000F07FFEBBF85B
:102150000C301AE7029B02930DF1B00B30360123CD
:102160000BF8416D05930BE40FAA04990698FFF74D
:1021700075FA00287FF464AF1099119A481CCA467A
:1021800051E60FAA04990698FFF768FA00287FF431
:1021900057AF1099119A481CCA4648E4002A40F0EB
:1021A000918001201146CA4641E60FAA049906987B
:1021B000FFF754FA00287FF443AF1098119A0130CA
:1021C000CA4667E6D346D6E6079E073626F00702DC
:1021D00002F10801D2E9006707910122FFF7B1BBC4
:1021E000079E073626F00706D6E9000106F1080229
:1021F000079206460F46B6E4079E073626F007020A
:1022000002F10801D2E9006707910022FFF799BBAC
:10221000079E073626F0070101F108000790D1E973
:10222000006719E5CB46FFF7ABBB2D25764267EB80
:1022300047078DF837500122FFF788BB099BB3B9D8
:1022400011460120CA46F2E5DBF8580000F0FEFD19
:102250004FF0FF330393FFF750BB0FAA0499069882
:10226000FFF7FCF900287FF4EBAE119AA9E60EAB5C
:1022700002221C931D920120CA46D0E50FAA0499A0
:102280000698FFF7EBF900287FF4DAAE1099119A5F
:10229000481CCA46A4E5079A03991368CD17084657
:1022A000043229460792C3E90001FFF754BA5846A1
:1022B00007960293FFF764F9002405909DF83750C4
:1022C000FFF75EBB0FAA04990698FFF7C7F900282D
:1022D0007FF4B6AE1099119A481CCA46A7E510992A
:1022E000119A204E0131FFF790BB062C28BF06241F
:1022F000059407960194DFF870B0D5E41098194E54
:10230000013003E605949DF8375007960293044682
:10231000FFF736BB8646FFF7CEBB06980FAA594695
:10232000FFF79CF900283FF424AE24E6079998F8BB
:1023300001200C68043144EAE474B8460791FFF7C1
:102340003FBA8DF837503CE48DF8375021E58DF8D1
:102350003750FFF7F4BB8DF8375091E48DF83750C4
:1023600069E400BF5C434000544340002DE9F04164
:102370000C46ADF58D6D8989666EE589199621F05B
:1023800002010646E069ADF80C1017464FF4806173
:10239000626AADF80E5098461AAD0023079016A851
:1023A00009920693009504950291059100F048FD6D
:1023B00043463A4669463046FFF790F9051E07DB6B
:1023C0003046694600F028F9002818BF4FF0FF3565
:1023D000BDF80C305B0603D5A38943F04003A3810D
:1023E000169800F02FFD28460DF58D6DBDE8F081A3
:1023F00038B5304B1B6805460C4613B19A6B002A62
:1024000038D0B4F90C2093B218070CD52069A8B1C4
:1024100013F001021ED0636900225B42A361A26037
:10242000F0B1002038BDD9063CD5580726D4206924
:1024300042F00803A3819BB20028E9D103F4207283
:10244000B2F5007FE4D02846214600F02FFDA38995
:102450002069DDE7990758BF6269A2600028E0D1D2
:10246000B4F90C301A06DDD543F04003A3814FF0D8
:10247000FF3038BD184600F027F9C2E7216B51B193
:1024800004F14003994204D0284600F043FAB4F91D
:102490000C200023236300232069636022F02402C0
:1024A0002060C5E742F0400209232B604FF0FF3067
:1024B000A28138BD0C004020024B13B1024800F04D
:1024C00005B870470000000039274000002301468E
:1024D0001A46184601F000BCB1F90C309AB22DE949
:1024E000F0410D46110780463AD46A6843F4006310
:1024F000002AAB816FDDAC6A002C49D000229BB270
:10250000D8F80060C8F8002013F4805267D02A6D14
:102510005F0705D569682B6B521A0BB1EB6BD21AAA
:102520000023E9694046A047441C3CD0B5F90C3073
:102530002A692A6023F400630022AB81DB046A600D
:1025400047D4296BC8F8006011B305F140039942E4
:1025500002D0404600F0DEF900202863BDE8F0819B
:102560002E69AEB12C682E6091070CBF6B690023F9
:10257000A41BAB600AE0234632466F6AE969404615
:10258000B8470028A4EB0004064404DD002CF2DC6C
:102590000020BDE8F081AB8943F04003AB814FF0F0
:1025A000FF30BDE8F081D8F800401D2CF3D8194B5E
:1025B000E340DB4313F00103EDD1B5F90C206B6070
:1025C00022F400632969AB81DA042960B9D5002CB3
:1025D000B7D12865B5E7EA6B002A8CDCD8E7012380
:1025E000E9694046A047431C024602D0AB89AC6A69
:1025F0008EE7D8F80030002BF8D01D2B01D0162B19
:1026000002D1C8F80060C3E7AB8943F04003AB8157
:10261000BDE8F0810100402038B50D46044608B100
:10262000836BBBB1B5F90C0088B16B6EDB0701D4CD
:10263000810517D520462946FFF74EFF6B6EDA0756
:10264000044602D4AB899B0507D5204638BD044615
:10265000204638BD00F038F8E4E7A86D00F0F6FB3E
:10266000204638BDA86D00F0EFFBE3E7014900F01C
:10267000AFBB00BFC13D400010B5002304468181BF
:10268000C281036043608360436603614361836189
:10269000194608225C30FEF7E3FD07480749084A5F
:1026A000084B2062E4616162A262E36204F15800B7
:1026B000BDE8104000F0C4BB053B4000293B400092
:1026C000653B4000853B400010B50446124800F0D1
:1026D000BBFBA26BD2B904F53B731048C4F8E832D7
:1026E0000321C4F8E022E063C4F8E4126068042126
:1026F000FFF7C2FF01220921A068FFF7BDFF0222F8
:102700001221E068FFF7B8FF0123A3630248BDE888
:10271000104000F09BBB00BFA40A40206D26400083
:10272000014800F091BB00BFB80A4020014800F00A
:102730008DBB00BFB80A402038B50A4C0A4D641B57
:10274000A4100AD004F18043013B05EB8305013C52
:1027500055F804399847002CF9D1BDE8384001F00C
:10276000A1BE00BFB4444000B04440002DE9F04792
:1027700082B080468946144600F054FB012836D0CA
:102780004A4604F15C0301A9404601F057FA421C95
:10279000064625D0A8B39DF804E000250DF1040AF3
:1027A00009E023685A1C226083F800E00135B54235
:1027B00027D215F80AE0A368013B002BA360F0DAEA
:1027C000A769BB4271462246404602DBBEF10A0FB2
:1027D000E7D101F0DBF9431CE8D102B0BDE8F08796
:1027E000A38943F04003A38102B0BDE8F08709F15B
:1027F000FF33FE2BC4D85FFA89FE06468DF804E04D
:10280000CBE7484602B0BDE8F08700BF30B5536E55
:1028100013F0010FB2F90C30144683B005469AB29A
:1028200001D190051CD5900406D4626E43F4005388
:1028300042F40052A381626628462246FFF796FFC3
:10284000636EDA07054602D4A3899B0502D52846A4
:1028500003B030BDA06D00F0F9FA284603B030BDDA
:10286000A06D019100F0F0FAB4F90C3001999AB220
:10287000D9E700BFF8B5244F0C46064600F07EFFAE
:10288000BB685D68C4F57E610F3125F003052944FE
:1028900021F47F6121F00F01A1F58054B4F5805F30
:1028A00007DB0021304601F01BF9BB682B4498423E
:1028B00004D0304600F068FF0020F8BD6142304689
:1028C00001F00EF901300DD0104BBA6819682D1BBC
:1028D00045F001053046091B5560196000F054FFB2
:1028E0000120F8BD0021304601F0FAF8BA68831AD9
:1028F0000F2BDEDD064C0549246843F00103001B65
:1029000053600860D5E700BFA8054020580A402062
:10291000B0094020002944D02DE9F0410D46804601
:1029200000F02CFF55F8047C694927F00103A5F15C
:102930000804E2188E685068B24220F003005ED0AE
:10294000FE0750600BD455F8087CE41B01F1080E1B
:10295000A56875453B446DD0E768EF60BD6015180C
:102960006D68ED073ED543F001026260E350B3F5B8
:10297000007F17D2DB08581C9A104D6851F8307050
:10298000A7600123934001EBC0022B43083AE260A9
:102990004B6041F83040FC604046BDE8F04100F03B
:1029A000F3BE70475A0A042A52D89A0902F139072D
:1029B000FF0002F13805C819CA59083890424FD0B3
:1029C000516821F003018B4232D292689042F7D1D4
:1029D000C368A060E3609C60C4604046BDE8F0410D
:1029E00000F0D2BE95683B4FBD42034440D0D06852
:1029F000E86043F0010285606260E350B7E7FF07DB
:102A0000034407D455F8082CA41A1344A068E268BC
:102A1000C2609060304A126843F0010093426060E7
:102A20008C60B9D32D4B40461968FFF723FFB3E7FD
:102A30001046CDE711184968C90744D49168D26897
:102A4000CA60034443F0010091606060E350A3E773
:102A5000142A16D802F15C07FF0002F15B05AAE711
:102A6000AA1001234D6893402B434B600346B0E707
:102A700043F001024C610C61E560A5606260E350C7
:102A80008AE7542A06D81A0B02F16F07FF0002F1F9
:102A90006E0590E7B2F5AA7F06D8DA0B02F1780747
:102AA000FF0002F1770586E740F25450824206D8D3
:102AB0009A0C02F17D07FF0002F17C057BE74FF4E1
:102AC0007E777E2577E743F001016160136063E75D
:102AD000A8054020B0054020B4094020880A4020C5
:102AE0009368002B73D02DE9F04F8B8983B00C468F
:102AF00019070090164626D5226922B313F002006A
:102B000035682CD04FF00009B04FC846B246B845E2
:102B100043464A4628BF3B460098B8F1000F50D0C4
:102B2000E169666AB047002858DDDAF808301B1AF8
:102B30008144A8EB0008CAF80830002BE7D1002038
:102B400003B0BDE8F08F21460098FFF751FC002844
:102B500040F03381A389356813F00200D2D113F01D
:102B6000010945D14F46019637B39A05D4F808803C
:102B700040F183804745C346C0F0AB8013F4906FAB
:102B800040F0AC802068BA465A46494600F092FDB3
:102B9000A2682368A2EB08025B44A2602360019A4A
:102BA0009368A3EB0A03D144A7EB0A079360002BB9
:102BB000C5D0A389002FD8D1D5F800906F6808350B
:102BC000D2E7D5F80090D5F8048008359FE70020BB
:102BD000704721460098FFF71FFD70B3B4F90C3021
:102BE00043F040034FF0FF30A38103B0BDE8F08F06
:102BF000814633464E46A8469A464D464EB380B36C
:102C0000206823696269B145CB4628BFB346984224
:102C10005F4604D9A36813449B4500F3A6809345FF
:102C20004BDB1346676AE16900982A46B847071EDE
:102C3000D4DDB9EB0709CCD00120DAF80830DB1B72
:102C40003D44F61BCAF80830002B3FF478AF002E45
:102C5000D5D108F1080313E9600098460833002E27
:102C6000F9D032460A21284600F03AFC002800F04C
:102C7000A1800130A0EB0509C2E7206823699842D2
:102C800002D863699F425DD2B84528BFB846424624
:102C9000494600F00FFDA3682268A3EB08034244F5
:102CA000A36022600BB1C24679E721460098FFF786
:102CB000B3FC002892D1C24671E75A46294600F07B
:102CC000F9FCA2682368A2EB0B025B44A2602360BC
:102CD000AFE72068B846BA46BB4655E76269206848
:102CE000216902EB4208A0EB010A08EBD8780AF14F
:102CF00001004FEA680838444045424684BF804698
:102D000042465B0544D51146009800F021F9834600
:102D1000002855D05246216900F032FCA38923F4E3
:102D2000906343F08003A3810BEB0A00A8EB0A0336
:102D3000C4F810B0C4F814802060A360B846BA4646
:102D4000BB4621E76FF00041B94228BF39464A46E9
:102D500091FBF3F10098666A03FB01F3E169B04768
:102D6000B0F1000A3FF71BAF38E71A462946019336
:102D700000F0A0FC2268019B00981A4422602146C2
:102D8000FFF74AFC019B00287FF428AF1F4650E75D
:102D9000009800F0FFFC83460028C5D1009D216902
:102DA0002846FFF7B7FDB4F90C300C2223F080035E
:102DB0002A6015E706F1010922E74FF0FF30BFE670
:102DC000009A0C231360B4F90C3009E700FCFF7F74
:102DD0002DE9F84310F538771FD0884606464FF0A6
:102DE00000097D68BC68013D11D4A389012B05F160
:102DF000FF3508D9B4F90E3001332146304602D0F0
:102E0000C04749EA00096B1C04F16804EDD13F6832
:102E1000002FE6D14846BDE8F883B9464846BDE8EC
:102E2000F88300BF044B054A1B685B6B002B08BF8F
:102E3000134693F8280170470C0040203C044020C2
:102E4000704700BF704700BF704700BF704700BFAA
:102E500070B50C46B1F90E10002990B015461E460B
:102E600014DB01AA01F00EF800280FDB029A02F42D
:102E70007042A2F50052B2FA82F252094FF4806316
:102E80004FF4006032602B6010B070BDA289002347
:102E900012F08000336004D0402218462A6010B03F
:102EA00070BD4FF480632B6010B070BD8A899207AB
:102EB0000B4606D501F1430201211A601A615961DE
:102EC0007047F0B583B001AB6A460C460646FFF783
:102ED000BFFF00990546304600F03AF8B4F90C30CF
:102EE000D8B1019A154F0099F76343F08003A3818D
:102EF0002060206161611AB92B43A38103B0F0BD4A
:102F00003046B4F90E1000F0D1FFA0B1A38923F030
:102F1000030343F001031BB2EEE79A05EED423F05E
:102F2000030304F1430243F002030121A381226061
:102F300022616161E2E7B4F90C30DDE76D26400003
:102F4000024B0146186800F003B800BF0C00402097
:102F50002DE9F04F01F10B06162E83B0054640F225
:102F60009E8036F0070600F1BD80B14200F2BA80C3
:102F700000F004FCB6F5FC7FC0F09382730A00F009
:102F8000B880042B00F27981B30903F1390003F111
:102F9000380EC300BF4F3B44A3F108015C68A14257
:102FA00006D10CE0002A80F2AA80E468A14206D093
:102FB000636823F003039A1B0F2AF3DD70463C6914
:102FC000DFF8E4E2744500F0AB81636823F00303AB
:102FD0009A1B0F2A00F39081002AC7F814E0C7F863
:102FE00010E080F29D80B3F5007F80F06181DB0806
:102FF00003F1010C99107A6857F83C80C4F80880F6
:1030000001238B4007EBCC0113430839E1607B605F
:1030100047F83C40C8F80C408210012494409C4280
:1030200000F28B801C4206D120F0030064001C4299
:1030300000F10400FAD007EBC009CC468046DCF86A
:103040000C309C4507D16DE1002A80F27B81DB6862
:103050009C4500F06781596821F003018A1B0F2A03
:10306000F2DDD3F80CC0D3F8088000939C192846F1
:1030700046F0010642F001055E60C8F80CC0CCF8CD
:1030800008807C613C61C4F80CE0C4F808E065602D
:103090005A5000F079FB009B03F108041EE0102950
:1030A00020D800F06BFB102618230220794F3B44F8
:1030B000A3F108025C68944200F03D816368E16816
:1030C000A66823F00303234428465A68F16042F0BF
:1030D00001028E605A6000F057FB0834204603B0AE
:1030E000BDE8F08F00240C2320462B6003B0BDE820
:1030F000F08F40204FF400734FF03F0E4AE7234417
:10310000E1685A68A66842F00102F16028468E60C4
:103110005A6000F039FB0834204603B0BDE8F08F58
:10312000234428465A6842F001025A6000F02CFB02
:103130000834204603B0BDE8F08FBC68636823F014
:103140000308B04504D3A8EB06030F2B00F38580DA
:10315000DFF85891504BD9F800201B6801323344F6
:1031600004EB080A00F0558103F580530F3323F474
:103170007F6B2BF00F0B5946284600F0B1FC411C29
:10318000024600F0FC80824500F2F780434B19684C
:103190005944196000F04D81D9F8000001301BBF7F
:1031A000A2EB0A0A5144C9F80020196012F0070185
:1031B00000F01581C1F10800C1F5805102440831C9
:1031C00002EB0B09C9F30B09A1EB09094946284693
:1031D0000193009200F084FC431C9DE80C0000F079
:1031E0004381801A484440F001001968BA6049449C
:1031F000BC425060196017D0B8F10F0F40F2FB804D
:103200006068A8F10C0222F0070204EB020E00F045
:1032100001004FF0050C10430F2A6060CEF804C087
:10322000CEF808C000F217811D4BBC681A689142A5
:1032300088BF19601B4B1A689142626888BF196089
:1032400022F003029642A2EB060301D80F2B04DC06
:10325000284600F099FA002440E7A21943F0010340
:1032600046F0010666602846BA60536000F08CFAAA
:103270000834204603B0BDE8F08F142B71D9542BCD
:1032800000F2A380330B03F16F0003F16E0EC30055
:1032900080E600BFA8054020880A4020580A402048
:1032A000800A4020840A4020B0054020B009402018
:1032B0005A0A042A5BD9142A00F2AE8002F15C019A
:1032C000C9005B3207EB010C7958ACF1080C8C4556
:1032D00000F088804A6822F00302934273D2896822
:1032E0008C45F7D1DCF80C207B68E260C4F808C09C
:1032F0009460CCF80C408FE6A11946F0010C42F026
:103300000106C4F804C0284679613961C1F80CE0AF
:10331000C1F808E04E60E25000F036FA0834DDE60D
:103320007B6879E608F1010818F0030F0CF1080C2E
:103330007FF485AE2DE0DC68A34208BF02303FF485
:103340003EAEBBE619441C464A68DB6854F8086F79
:1033500042F001024A602846F3609E6000F014FAD1
:10336000BCE603F15C0003F15B0EC30012E69A09B0
:1033700002F13901C9003832A4E7BC4254D0BC681C
:10338000626822F003025DE759F80839994540F078
:10339000868010F0030F00F1FF30F5D17B6823EA3F
:1033A00004037B6064009C423FF6C7AE002C3FF4F0
:1033B000C4AE1C4240467FF43EAE64001C4200F1A5
:1033C0000400FAD037E68C468CE7B3F5AA7F15D80F
:1033D000F30B03F1780003F1770EC300DAE54FF445
:1033E0008051EDE67B689210012101FA02F213434D
:1033F0007B60624679E70123536029E740F254522B
:10340000934222D8B30C03F17D0003F17C0EC3007C
:10341000C0E503F1100BAEE6542A29D81A0B02F1CD
:103420006F01C9006E324DE7204B1968594419608D
:10343000B2E6CAF30B0000287FF4AEAE08EB0B0334
:10344000BA6843F001035360EEE67F204FF47E73C9
:103450004FF07E0E9EE504F1080128460093FFF729
:1034600059FA009B1968DFE601204FF00009BCE61D
:10347000B2F5AA7F05D8DA0B02F17801C9007732DC
:1034800020E740F254518A4205D89A0C02F17D019E
:10349000C9007C3216E74FF47E717E2212E77B680A
:1034A00080E7F00806F1080300E600BF580A402054
:1034B00082B049B15AB16BB113780B601278101C0D
:1034C00018BF012002B0704701A9002AF3D11046AD
:1034D00002B070476FF00100F4E700BF0000000089
:1034E00001F0FF01102A2BDB10F0070F08D010F8B5
:1034F000013B013A8B422DD010F0070F42B3F6D1B9
:10350000F0B441EA012141EA014122F007047FF0D1
:1035100000070023F0E80256083C85EA010586EA28
:10352000010685FA47F5A3FA87F586FA47F6A5FA64
:1035300087F68EB9EED1F0BC01F0FF0102F0070270
:1035400032B110F8013B013A83EA010313B1F8D11B
:103550000020704701387047002D06BF35460338FC
:10356000073815F0010F07D1013015F4807F02BF35
:10357000013015F4C03F0130F0BC0138704700BF86
:10358000844641EA000313F003036DD1403A41D36E
:1035900051F8043B40F8043B51F8043B40F8043B2D
:1035A00051F8043B40F8043B51F8043B40F8043B1D
:1035B00051F8043B40F8043B51F8043B40F8043B0D
:1035C00051F8043B40F8043B51F8043B40F8043BFD
:1035D00051F8043B40F8043B51F8043B40F8043BED
:1035E00051F8043B40F8043B51F8043B40F8043BDD
:1035F00051F8043B40F8043B51F8043B40F8043BCD
:1036000051F8043B40F8043B51F8043B40F8043BBC
:10361000403ABDD2303211D351F8043B40F8043B5C
:1036200051F8043B40F8043B51F8043B40F8043B9C
:1036300051F8043B40F8043B103AEDD20C3205D36C
:1036400051F8043B40F8043B043AF9D2043208D064
:10365000D2071CBF11F8013B00F8013B01D30B88D6
:1036600003806046704700BF082A13D38B078DD0B4
:1036700010F003038AD0C3F10403D21ADB071CBF86
:1036800011F8013B00F8013B80D331F8023B20F8F0
:10369000023B7BE7043AD9D3013A11F8013B00F829
:1036A000013BF9D20B7803704B7843708B788370B1
:1036B000604670478842F0B50DD98B1898420AD2FF
:1036C0008418002A51D0224613F8014D02F8014D0A
:1036D0009942F9D1F0BD0F2A48D941EA00039B076E
:1036E00046D100F1100401F11003154653F8106C97
:1036F00044F8106C53F80C6C44F80C6C53F8086CDC
:1037000044F8086C103D53F8046C44F8046C0F2D19
:1037100003F1100304F11004E8D8A2F1100323F020
:103720000F0302F00F0E1033BEF1030F19440344D0
:1037300021D91E1F0D467446043C55F8047B46F8FB
:10374000047F032CF8D8AEF1040424F003040434FD
:103750002144234402F0030262B1013B0A4411F800
:10376000014B03F8014F8A42F9D1F0BD0346F3E75C
:103770000346F2E7F0BD7246EEE700BF0148FFF7EF
:1037800063BB00BFA80A40200148FFF75FBB00BF32
:10379000A80A4020002900F095802DE9F04F0D4641
:1037A000164683B0804606F10B07FFF7E7FF55F892
:1037B00004EC162F2EF00304A5F108093CD81022C2
:1037C0001746BE423DD8944243DAC44B996809EB90
:1037D0000400884200F0B480436823F001010144F2
:1037E0004968C9074CD51EF0010F00F09B80314697
:1037F0004046FFF7ADFB064600283AD055F8043C9A
:1038000023F001034B44A0F108029A4200F0218109
:10381000221F242A00F20781132A00F2DB800346CC
:103820002A46116819605168596092689A60294661
:103830004046FFF76FF81CE027F00707002F3A46D5
:10384000BFDA00260C233046C8F8003003B0BDE8CC
:10385000F08F2E46E31B0F2B1ED8D9F8043003F04F
:10386000010323434C44C9F80430636843F0010367
:1038700063604046FFF788FF304603B0BDE8F08F35
:1038800023F00303E11891421FDBC36882682E46D0
:10389000D3600C469A60DDE7D9F8042009EB0701F4
:1038A00002F001024C4443F001031743C9F80470CD
:1038B0004B60636843F00103083163604046FFF7E3
:1038C00029F8D6E71146FFF743BB1EF0010F8ED152
:1038D00055F8081CA9EB010ADAF8041021F00301DD
:1038E0000B442344934225DBC26881685646CA6074
:1038F0009160DAF80C1056F8080F221F242AC160D4
:10390000886000F29480132A6FD92968CAF80810D9
:103910006968CAF80C101B2A00F2A28008350AF167
:10392000100263E055F8083CA9EB030ADAF804102A
:1039300021F0030163189342FFF659AF5646D8E7CA
:10394000416821F0030BA34407F11000834556DAC8
:103950001EF0010F7FF44BAF55F8081CA9EB010ACC
:10396000DAF8041021F003018B445845E2DC564696
:10397000DAF80C1056F8080F221F242AC16088605C
:1039800000F28F80132A40F28A802968CAF8081052
:103990006968CAF80C101B2A00F28A8008350AF1FF
:1039A00010022968116069685160A96891600AEB8A
:1039B0000701ABEB070242F0010299604A60DAF8B6
:1039C000043003F001031F434046CAF80470FFF7B8
:1039D000DBFE51E72B6803606B6843601B2A2DD820
:1039E00000F1080305F108021BE73246296811605F
:1039F00069685160A96891601C46D1462AE709EBC5
:103A00000701ABEB070B4BF0010299604A6055F8D8
:103A1000043C03F001031F43404645F8047CFFF7D4
:103A2000B3FE2E4628E72946FFF744FEFFE6294667
:103A300030461C46D146FFF73DFE0BE7AB6883607E
:103A4000EB68C360242A17D000F1100305F11002BF
:103A5000E7E650F8043C23F003031C442E46F9E645
:103A6000A968CAF81010E968CAF81410242A0CD002
:103A700010350AF11802B9E72B6903616B694361DC
:103A800005F1180200F11803CBE62A69CAF81820DC
:103A90006A69CAF81C2018350AF12002A6E73246E6
:103AA0007FE7294630460193FFF704FE019B7EE73E
:103AB000A968CAF81010E968CAF81410242A03D0BB
:103AC00010350AF118026CE72A69CAF818206A69E9
:103AD000CAF81C2018350AF1200262E7A805402028
:103AE00038B5074C0023054608462360FDF784F8E7
:103AF000431C00D038BD2368002BFBD02B6038BDA1
:103B0000BC0A402010B50C46B1F90E1000F0F6F9D1
:103B1000002803DB236D0344236510BDA38923F430
:103B20008053A38110BD00BF2DE9F0411646B1F9C5
:103B30000C201F46D3050C46054607D5002202235C
:103B4000B1F90E1000F0C4F9B4F90C20B4F90E105C
:103B500022F48052A2813B4632462846BDE8F0411D
:103B600000F0A4B810B50C46B1F90E1000F0B0F991
:103B7000A389421C0EBF23F4805343F48053206575
:103B8000A38110BDB1F90E1000F008B9F8B50D46CB
:103B90001446064610B1836B002B4BD0B4F90C20B1
:103BA000A369A36091B2080739D52369002B36D0E9
:103BB000EDB289042F4615D522686169D31A8B426C
:103BC0001CDA0133A168501C0139A1602060157016
:103BD00062699A421AD0A389DB0701D50A2D15D054
:103BE0003846F8BD616E42F4005221F40051A281C2
:103BF000226861666169D31A8B42E2DB2146304656
:103C0000FEF70AFD40B922680123DBE72146304672
:103C1000FEF702FD0028E3D04FF0FF37E0E7214632
:103C20003046FEF7E5FB0028F6D1B4F90C202369F5
:103C300091B2BDE7FEF748FDB0E700BFF0B506461C
:103C400085B01F4689B1104C104D2468646B002C60
:103C500008BF2C46D4F8E040A047431C03D1002203
:103C60008A233A60336005B0F0BD0C460649074A26
:103C70000968496B002908BF11462246D1F8E04087
:103C800001A9A047E9E700BF0C0040203C04402008
:103C900021B1FF2A04D80A700120704708467047F6
:103CA0008A2303604FF0FF30704700BF70B50D46A8
:103CB000084C114606461A46284600232360FCF7A6
:103CC000DFFA431C00D070BD2368002BFBD03360AB
:103CD00070BD00BFBC0A40202DE9F8432C4D0646BC
:103CE000286898460F469146FFF7AEF8294B1C68A6
:103CF000D4F84831002B3ED05A681F2A1CDC02F150
:103D0000010E76B103EB82010124C1F88890D3F84B
:103D1000880194402043022EC3F88801C1F808812D
:103D200023D00232C3F804E0286843F82270FFF77A
:103D30008DF80020BDE8F883174B0BB34FF4C87023
:103D4000FFF7FEF80346D8B1D4F8482102600021FD
:103D500041600A46C4F848014FF0010EC0F88811CE
:103D6000C0F88C11002EDCD0CCE7D3F88C110C43BA
:103D7000C3F88C41D5E704F5A673C4F84831BBE716
:103D80002868FFF763F84FF0FF30BDE8F88300BF05
:103D90003804402024434000412F400038B5074CF0
:103DA0000023054608462360FCF742FF431C00D071
:103DB00038BD2368002BFBD02B6038BDBC0A4020E7
:103DC00070B559B105460C4610B1836B002B3CD041
:103DD000636ED80705D5B4F90C302BB900263046F0
:103DE00070BDA38999053CD521462846FEF774FB92
:103DF000E36A064633B1E169284698470028B8BF10
:103E00004FF0FF36A3891A0622D4216B41B104F189
:103E10004003994202D02846FEF77CFD002323632D
:103E2000616C21B12846FEF775FD00236364FEF73F
:103E300077FC636E0022DB07A2810ED5A06DFFF731
:103E400001F8FEF773FC304670BDFEF73DFCBFE79E
:103E500021692846FEF75EFDD7E7A06DFEF7F6FF65
:103E6000ECE7A06DFEF7F0FFB4F90C30002BBBD1EE
:103E7000666E16F00106B1D1A06DFEF7E7FF304681
:103E800070BD00BF38B50B46074C054611461846B5
:103E900000232360FCF7CFFE431C00D038BD23680D
:103EA000002BFBD02B6038BDBC0A402038B5074C36
:103EB0000023054608462360FCF7C2FE431C00D0E1
:103EC00038BD2368002BFBD02B6038BDBC0A4020D6
:103ED00070B50D46084C114606461A462846002382
:103EE0002360FCF7AFFE431C00D070BD2368002B9D
:103EF000FBD0336070BD00BFBC0A402070B50D46DA
:103F0000084C114606461A46284600232360FCF753
:103F100099F9431C00D070BD2368002BFBD033609F
:103F200070BD00BFBC0A402053B94AB9002908BF80
:103F300000281CBF4FF0FF314FF0FF3000F07AB97E
:103F4000ADF1080C6DE904CE00F006F8DDF804E0F0
:103F5000DDE9022304B070472DE9F0478C460D4699
:103F60000446089E002B51D18A4217466DD9B2FAF9
:103F700082FEBEF1000F0BD0CEF1200C01FA0EF53F
:103F800020FA0CFC02FA0EF74CEA050C00FA0EF4CB
:103F90004FEA174A250CBCFBFAF81FFA87F90AFB0F
:103FA00018CC45EA0C4508FB09F3AB420AD9ED19D8
:103FB00008F1FF3280F02381AB4240F22081A8F16A
:103FC00002083D44ED1AA4B2B5FBFAF00AFB105505
:103FD00044EA054400FB09F9A14509D9E41900F1B7
:103FE000FF3380F00A81A14540F2078102383C444A
:103FF000A4EB090440EA08400021002E61D024FA15
:104000000EF4002334607360BDE8F0878B4207D95B
:10401000002E54D0002186E821000846BDE8F08734
:10402000B3FA83F1002940F08E80AB4202D3824282
:1040300000F2FA80841A65EB03050120AC46002EDD
:104040003FD086E81010BDE8F08712B90127B7FB12
:10405000F2F7B7FA87FEBEF1000F34D1EB1B3A0C32
:104060001FFA87FC0121B3FBF2F8250C02FB183381
:1040700045EA03450CFB08F3AB4207D9ED1908F1FB
:10408000FF3002D2AB4200F2D1808046ED1AA3B2DB
:10409000B5FBF2F002FB105543EA05440CFB00FCB3
:1040A000A44507D9E41900F1FF3302D2A44500F278
:1040B000B8801846A4EB0C0440EA08409DE731465E
:1040C0003046BDE8F087CEF1200405FA0EF307FA7A
:1040D0000EF720FA04F83A0C25FA04F448EA03082B
:1040E000B4FBF2F14FEA184502FB11441FFA87FCBA
:1040F00045EA044501FB0CF3AB4200FA0EF409D982
:10410000ED1901F1FF3080F08A80AB4240F28780E8
:1041100002393D44EB1A1FFA88F5B3FBF2F002FBBB
:10412000103345EA034500FB0CF3AB4207D9ED1908
:1041300000F1FF386FD2AB426DD902383D44EB1A23
:1041400040EA01418FE7C1F1200722FA07F88B40CE
:1041500005FA01F448EA030320FA07FE4FEA134C7C
:10416000FD404EEA040EB5FBFCF94FEA1E440CFB81
:1041700019551FFA83F844EA054509FB08F4AC42D7
:1041800002FA01F200FA01FA08D9ED1809F1FF303C
:1041900043D2AC4241D9A9F102091D442D1B1FFA9B
:1041A0008EFEB5FBFCF00CFB10554EEA054400FBFF
:1041B00008F8A04507D9E41800F1FF3529D2A04539
:1041C00027D902381C4440EA0940A4EB0804A0FBAC
:1041D00002894C45C6464D4615D312D056B1BAEBAE
:1041E0000E0364EB050404FA07F7CB401F43CC40F1
:1041F000376074600021BDE8F0871846F8E6904605
:10420000E0E6C245EAD2B8EB020E69EB03050138DD
:10421000E4E72846D7E7404691E78146BEE70146F6
:1042200078E702383C4445E7084608E7A8F1020869
:104230003D442BE7704700BF2D2D20426C696E6B0B
:10424000206578616D706C65202D2D0D0A2D2D2057
:1042500053414D4537302D58504C44202D2D0D0ADB
:104260002D2D20436F6D70696C65643A204D617926
:1042700020203220323031392031373A34313A314E
:1042800039202D2D0D000000436F6E666967757231
:104290006520627574746F6E73207769746820642A
:1042A00065626F756E63696E672E0D004C45443014
:1042B000202879656C6C6F77290000005357300017
:1042C0005072657373202573207768696C652025AB
:1042D00073206973206F6E20746F2063686F6F7333
:1042E00065207374617469632074696D65206F72F1
:1042F000207761697420756E74696C20257320695C
:1043000073206F666620746F2063686F6F7365201B
:104310006E6F6E2D7374617469632074696D652EA0
:104320000D0A0000100040200A0000003031323336
:1043300034353637383941424344454600000000A1
:10434000303132333435363738396162636465660B
:1043500000000000286E756C6C29000020202020D1
:10436000202020202020202020202020303030300D
:1043700030303030303030303030303043000000BA
:10438000504F5349580000002E000000002020200C
:1043900020202020202028282828282020202020F5
:1043A00020202020202020202020202020881010C5
:1043B0001010101010101010101010101004040421
:1043C00004040404040404101010101010104141DF
:1043D00041414141010101010101010101010101CD
:1043E00001010101010101011010101010104242E1
:1043F000424242420202020202020202020202029D
:10440000020202020202020210101010200000003C
:10441000000000000000000000000000000000009C
:10442000000000000000000000000000000000008C
:10443000000000000000000000000000000000007C
:10444000000000000000000000000000000000006C
:10445000000000000000000000000000000000005C
:10446000000000000000000000000000000000004C
:10447000000000000000000000000000000000003C
:10448000000000000000000000000000000000002C
:10449000F8B500BFF8BC08BC9E467047B924400080
:1044A0008D014000F8B500BFF8BC08BC9E467047BF
:0444B000690140005E
:0844B400A4FAFF7F01000000E3
:1044BC000100000000093D00010100001000402037
:1044CC0000000000FC02402064034020CC0340208C
:1044DC0000000000000000000000000000000000D0
:1044EC0000000000000000000000000000000000C0
:1044FC0000000000000000000000000000000000B0
:10450C00000000000000000000000000000000009F
:10451C00000000000000000000000000000000008F
:10452C00000000000000000000000000000000007F
:10453C00000000000000000000000000000000006F
:10454C00000000000000000000000000000000005F
:10455C00000000000000000000000000000000004F
:10456C00000000000000000001000000000000003E
:10457C000E33CDAB34126DE6ECDE05000B00000003
:10458C00000000000000000000000000000000001F
:10459C00000000000000000000000000000000000F
:1045AC0000000000000000000000000000000000FF
:1045BC0000000000000000000000000000000000EF
:1048EC000000000000000000980A40204300000077
:1048FC0000000000000000000000000000000000AC
:10490C000000000000000000000000004300000058
:10491C00000000000000000000000000000000008B
:10492C000000000000000000000000004300000038
:10493C00000000000000000000000000000000006B
:10494C000000000000000000000000004300000018
:10495C00000000000000000000000000000000004B
:10496C0000000000000000000000000043000000F8
:10497C00000000000000000000000000000000002B
:10498C0000000000000000000000000043000000D8
:10499C00000000000000000000000000000000000B
:1049AC0000000000000000000000000043000000B8
:1049BC0000000000000000000000000000000000EB
:1049CC00000000000000000000000000913C4000CE
:1049DC00B1344000000000008C434000884340008C
:1049EC003C4340003C4340003C4340003C434000BF
:1049FC003C4340003C4340003C4340003C434000AF
:104A0C003C434000FFFFFFFFFFFFFFFFFFFFFFFFE7
:104A1C00FFFF000001004153434949000000000022
:104A2C00000000000000000000000000000000007A
:104A3C000000000000004153434949000000000001
:104A4C00000000000000000000000000000000005A
:104A5C00000000000000000000000000000000004A
:104A6C00A8054020A8054020B0054020B0054020F6
:104A7C00B8054020B8054020C0054020C0054020A6
:104A8C00C8054020C8054020D0054020D005402056
:104A9C00D8054020D8054020E0054020E005402006
:104AAC00E8054020E8054020F0054020F0054020B6
:104ABC00F8054020F8054020000640200006402064
:104ACC000806402008064020100640201006402012
:104ADC0018064020180640202006402020064020C2
:104AEC002806402028064020300640203006402072
:104AFC003806402038064020400640204006402022
:104B0C0048064020480640205006402050064020D1
:104B1C005806402058064020600640206006402081
:104B2C006806402068064020700640207006402031
:104B3C0078064020780640208006402080064020E1
:104B4C008806402088064020900640209006402091
:104B5C009806402098064020A0064020A006402041
:104B6C00A8064020A8064020B0064020B0064020F1
:104B7C00B8064020B8064020C0064020C0064020A1
:104B8C00C8064020C8064020D0064020D006402051
:104B9C00D8064020D8064020E0064020E006402001
:104BAC00E8064020E8064020F0064020F0064020B1
:104BBC00F8064020F806402000074020000740205F
:104BCC00080740200807402010074020100740200D
:104BDC0018074020180740202007402020074020BD
:104BEC00280740202807402030074020300740206D
:104BFC00380740203807402040074020400740201D
:104C0C0048074020480740205007402050074020CC
:104C1C00580740205807402060074020600740207C
:104C2C00680740206807402070074020700740202C
:104C3C0078074020780740208007402080074020DC
:104C4C00880740208807402090074020900740208C
:104C5C009807402098074020A0074020A00740203C
:104C6C00A8074020A8074020B0074020B0074020EC
:104C7C00B8074020B8074020C0074020C00740209C
:104C8C00C8074020C8074020D0074020D00740204C
:104C9C00D8074020D8074020E0074020E0074020FC
:104CAC00E8074020E8074020F0074020F0074020AC
:104CBC00F8074020F807402000084020000840205A
:104CCC000808402008084020100840201008402008
:104CDC0018084020180840202008402020084020B8
:104CEC002808402028084020300840203008402068
:104CFC003808402038084020400840204008402018
:104D0C0048084020480840205008402050084020C7
:104D1C005808402058084020600840206008402077
:104D2C006808402068084020700840207008402027
:104D3C0078084020780840208008402080084020D7
:104D4C008808402088084020900840209008402087
:104D5C009808402098084020A0084020A008402037
:104D6C00A8084020A8084020B0084020B0084020E7
:104D7C00B8084020B8084020C0084020C008402097
:104D8C00C8084020C8084020D0084020D008402047
:104D9C00D8084020D8084020E0084020E0084020F7
:104DAC00E8084020E8084020F0084020F0084020A7
:104DBC00F8084020F8084020000940200009402055
:104DCC000809402008094020100940201009402003
:104DDC0018094020180940202009402020094020B3
:104DEC002809402028094020300940203009402063
:104DFC003809402038094020400940204009402013
:104E0C0048094020480940205009402050094020C2
:104E1C005809402058094020600940206009402072
:104E2C006809402068094020700940207009402022
:104E3C0078094020780940208009402080094020D2
:104E4C008809402088094020900940209009402082
:104E5C009809402098094020A0094020A009402032
:084E6C00FFFFFFFF0000020040
:040000050040099915
:00000001FF
