
BLINK_2.elf:     file format elf32-littlearm

Sections:
Idx Name          Size      VMA       LMA       File off  Algn
  0 .text         00002dcc  00400000  00400000  00010000  2**6
                  CONTENTS, ALLOC, LOAD, READONLY, CODE
  1 .relocate     0000084c  20400000  00402dcc  00020000  2**3
                  CONTENTS, ALLOC, LOAD, DATA
  2 .bss          00000108  2040084c  00403618  0002084c  2**2
                  ALLOC
  3 .stack        00002004  20400954  00403720  0002084c  2**0
                  ALLOC
  4 .heap         00000200  20402958  00405724  0002084c  2**0
                  ALLOC
  5 .ARM.attributes 0000002e  00000000  00000000  0002084c  2**0
                  CONTENTS, READONLY
  6 .comment      00000059  00000000  00000000  0002087a  2**0
                  CONTENTS, READONLY
  7 .debug_info   0001434e  00000000  00000000  000208d3  2**0
                  CONTENTS, READONLY, DEBUGGING
  8 .debug_abbrev 00002b02  00000000  00000000  00034c21  2**0
                  CONTENTS, READONLY, DEBUGGING
  9 .debug_loc    00004446  00000000  00000000  00037723  2**0
                  CONTENTS, READONLY, DEBUGGING
 10 .debug_aranges 00000a80  00000000  00000000  0003bb69  2**0
                  CONTENTS, READONLY, DEBUGGING
 11 .debug_ranges 00000ac8  00000000  00000000  0003c5e9  2**0
                  CONTENTS, READONLY, DEBUGGING
 12 .debug_macro  0001ed3c  00000000  00000000  0003d0b1  2**0
                  CONTENTS, READONLY, DEBUGGING
 13 .debug_line   0000ac46  00000000  00000000  0005bded  2**0
                  CONTENTS, READONLY, DEBUGGING
 14 .debug_str    00091c69  00000000  00000000  00066a33  2**0
                  CONTENTS, READONLY, DEBUGGING
 15 .debug_frame  00001f6c  00000000  00000000  000f869c  2**2
                  CONTENTS, READONLY, DEBUGGING

Disassembly of section .text:

00400000 <exception_table>:
  400000:	58 29 40 20 3d 09 40 00 39 09 40 00 39 09 40 00     X)@ =.@.9.@.9.@.
  400010:	39 09 40 00 39 09 40 00 39 09 40 00 00 00 00 00     9.@.9.@.9.@.....
	...
  40002c:	39 09 40 00 39 09 40 00 00 00 00 00 39 09 40 00     9.@.9.@.....9.@.
  40003c:	c9 0d 40 00 39 09 40 00 39 09 40 00 39 09 40 00     ..@.9.@.9.@.9.@.
  40004c:	39 09 40 00 39 09 40 00 39 09 40 00 39 09 40 00     9.@.9.@.9.@.9.@.
  40005c:	39 09 40 00 39 09 40 00 00 00 00 00 11 07 40 00     9.@.9.@.......@.
  40006c:	25 07 40 00 39 07 40 00 39 09 40 00 39 09 40 00     %.@.9.@.9.@.9.@.
  40007c:	39 09 40 00 4d 07 40 00 61 07 40 00 39 09 40 00     9.@.M.@.a.@.9.@.
  40008c:	39 09 40 00 39 09 40 00 39 09 40 00 39 09 40 00     9.@.9.@.9.@.9.@.
  40009c:	d9 0d 40 00 39 09 40 00 71 0e 40 00 39 09 40 00     ..@.9.@.q.@.9.@.
  4000ac:	39 0e 40 00 39 09 40 00 39 09 40 00 39 09 40 00     9.@.9.@.9.@.9.@.
  4000bc:	39 09 40 00 39 09 40 00 39 09 40 00 39 09 40 00     9.@.9.@.9.@.9.@.
  4000cc:	39 09 40 00 39 09 40 00 39 09 40 00 39 09 40 00     9.@.9.@.9.@.9.@.
  4000dc:	39 09 40 00 39 09 40 00 39 09 40 00 39 09 40 00     9.@.9.@.9.@.9.@.
  4000ec:	39 09 40 00 39 09 40 00 39 09 40 00 39 09 40 00     9.@.9.@.9.@.9.@.
  4000fc:	39 09 40 00 39 09 40 00 39 09 40 00 39 09 40 00     9.@.9.@.9.@.9.@.
  40010c:	39 09 40 00 39 09 40 00 00 00 00 00 00 00 00 00     9.@.9.@.........
  40011c:	00 00 00 00 39 09 40 00 39 09 40 00 39 09 40 00     ....9.@.9.@.9.@.
  40012c:	39 09 40 00 39 09 40 00 39 09 40 00 39 09 40 00     9.@.9.@.9.@.9.@.
  40013c:	39 09 40 00 39 09 40 00 39 09 40 00 39 09 40 00     9.@.9.@.9.@.9.@.
  40014c:	39 09 40 00 39 09 40 00 00 00 00 00 00 00 00 00     9.@.9.@.........
	...

00400168 <__do_global_dtors_aux>:
  400168:	b510      	push	{r4, lr}
  40016a:	4c05      	ldr	r4, [pc, #20]	; (400180 <__do_global_dtors_aux+0x18>)
  40016c:	7823      	ldrb	r3, [r4, #0]
  40016e:	b933      	cbnz	r3, 40017e <__do_global_dtors_aux+0x16>
  400170:	4b04      	ldr	r3, [pc, #16]	; (400184 <__do_global_dtors_aux+0x1c>)
  400172:	b113      	cbz	r3, 40017a <__do_global_dtors_aux+0x12>
  400174:	4804      	ldr	r0, [pc, #16]	; (400188 <__do_global_dtors_aux+0x20>)
  400176:	f3af 8000 	nop.w
  40017a:	2301      	movs	r3, #1
  40017c:	7023      	strb	r3, [r4, #0]
  40017e:	bd10      	pop	{r4, pc}
  400180:	2040084c 	.word	0x2040084c
  400184:	00000000 	.word	0x00000000
  400188:	00402dcc 	.word	0x00402dcc

0040018c <frame_dummy>:
  40018c:	4b0c      	ldr	r3, [pc, #48]	; (4001c0 <frame_dummy+0x34>)
  40018e:	b143      	cbz	r3, 4001a2 <frame_dummy+0x16>
  400190:	480c      	ldr	r0, [pc, #48]	; (4001c4 <frame_dummy+0x38>)
  400192:	490d      	ldr	r1, [pc, #52]	; (4001c8 <frame_dummy+0x3c>)
  400194:	b510      	push	{r4, lr}
  400196:	f3af 8000 	nop.w
  40019a:	480c      	ldr	r0, [pc, #48]	; (4001cc <frame_dummy+0x40>)
  40019c:	6803      	ldr	r3, [r0, #0]
  40019e:	b923      	cbnz	r3, 4001aa <frame_dummy+0x1e>
  4001a0:	bd10      	pop	{r4, pc}
  4001a2:	480a      	ldr	r0, [pc, #40]	; (4001cc <frame_dummy+0x40>)
  4001a4:	6803      	ldr	r3, [r0, #0]
  4001a6:	b933      	cbnz	r3, 4001b6 <frame_dummy+0x2a>
  4001a8:	4770      	bx	lr
  4001aa:	4b09      	ldr	r3, [pc, #36]	; (4001d0 <frame_dummy+0x44>)
  4001ac:	2b00      	cmp	r3, #0
  4001ae:	d0f7      	beq.n	4001a0 <frame_dummy+0x14>
  4001b0:	e8bd 4010 	ldmia.w	sp!, {r4, lr}
  4001b4:	4718      	bx	r3
  4001b6:	4b06      	ldr	r3, [pc, #24]	; (4001d0 <frame_dummy+0x44>)
  4001b8:	2b00      	cmp	r3, #0
  4001ba:	d0f5      	beq.n	4001a8 <frame_dummy+0x1c>
  4001bc:	4718      	bx	r3
  4001be:	bf00      	nop
  4001c0:	00000000 	.word	0x00000000
  4001c4:	00402dcc 	.word	0x00402dcc
  4001c8:	20400850 	.word	0x20400850
  4001cc:	00402dcc 	.word	0x00402dcc
  4001d0:	00000000 	.word	0x00000000

004001d4 <_read>:
int __attribute__((weak))
_read (int file, char * ptr, int len); // Remove GCC compiler warning

int __attribute__((weak))
_read (int file, char * ptr, int len)
{
  4001d4:	e92d 41f0 	stmdb	sp!, {r4, r5, r6, r7, r8, lr}
	int nChars = 0;

	if (file != 0) {
  4001d8:	b980      	cbnz	r0, 4001fc <_read+0x28>
  4001da:	460c      	mov	r4, r1
  4001dc:	4690      	mov	r8, r2
		return -1;
	}

	for (; len > 0; --len) {
  4001de:	2a00      	cmp	r2, #0
  4001e0:	dd0f      	ble.n	400202 <_read+0x2e>
  4001e2:	188f      	adds	r7, r1, r2
		ptr_get(stdio_base, ptr);
  4001e4:	4e08      	ldr	r6, [pc, #32]	; (400208 <_read+0x34>)
  4001e6:	4d09      	ldr	r5, [pc, #36]	; (40020c <_read+0x38>)
  4001e8:	6830      	ldr	r0, [r6, #0]
  4001ea:	4621      	mov	r1, r4
  4001ec:	682b      	ldr	r3, [r5, #0]
  4001ee:	4798      	blx	r3
		ptr++;
  4001f0:	3401      	adds	r4, #1
	for (; len > 0; --len) {
  4001f2:	42bc      	cmp	r4, r7
  4001f4:	d1f8      	bne.n	4001e8 <_read+0x14>
		nChars++;
	}
	return nChars;
}
  4001f6:	4640      	mov	r0, r8
  4001f8:	e8bd 81f0 	ldmia.w	sp!, {r4, r5, r6, r7, r8, pc}
		return -1;
  4001fc:	f04f 38ff 	mov.w	r8, #4294967295
  400200:	e7f9      	b.n	4001f6 <_read+0x22>
	for (; len > 0; --len) {
  400202:	4680      	mov	r8, r0
  400204:	e7f7      	b.n	4001f6 <_read+0x22>
  400206:	bf00      	nop
  400208:	20400928 	.word	0x20400928
  40020c:	20400920 	.word	0x20400920

00400210 <usart_set_async_baudrate>:
 * \retval 1 Baud rate set point is out of range for the given input clock
 * frequency.
 */
uint32_t usart_set_async_baudrate(Usart *p_usart,
		uint32_t baudrate, uint32_t ul_mck)
{
  400210:	b410      	push	{r4}
	uint32_t cd_fp;
	uint32_t cd;
	uint32_t fp;

	/* Calculate the receiver sampling divide of baudrate clock. */
	if (ul_mck >= HIGH_FRQ_SAMPLE_DIV * baudrate) {
  400212:	010b      	lsls	r3, r1, #4
  400214:	4293      	cmp	r3, r2
  400216:	d914      	bls.n	400242 <usart_set_async_baudrate+0x32>
	} else {
		over = LOW_FRQ_SAMPLE_DIV;
	}

	/* Calculate clock divider according to the fraction calculated formula. */
	cd_fp = (8 * ul_mck + (over * baudrate) / 2) / (over * baudrate);
  400218:	00c9      	lsls	r1, r1, #3
  40021a:	084b      	lsrs	r3, r1, #1
  40021c:	eb03 02c2 	add.w	r2, r3, r2, lsl #3
  400220:	fbb2 f2f1 	udiv	r2, r2, r1
	cd = cd_fp >> 3;
  400224:	08d3      	lsrs	r3, r2, #3
	fp = cd_fp & 0x07;
	if (cd < MIN_CD_VALUE || cd > MAX_CD_VALUE) {
  400226:	1e5c      	subs	r4, r3, #1
  400228:	f64f 71fe 	movw	r1, #65534	; 0xfffe
  40022c:	428c      	cmp	r4, r1
  40022e:	d901      	bls.n	400234 <usart_set_async_baudrate+0x24>
		return 1;
  400230:	2001      	movs	r0, #1
  400232:	e017      	b.n	400264 <usart_set_async_baudrate+0x54>
	}

	/* Configure the OVER bit in MR register. */
	if (over == 8) {
		p_usart->US_MR |= US_MR_OVER;
  400234:	6841      	ldr	r1, [r0, #4]
  400236:	f441 2100 	orr.w	r1, r1, #524288	; 0x80000
  40023a:	6041      	str	r1, [r0, #4]
  40023c:	e00c      	b.n	400258 <usart_set_async_baudrate+0x48>
		return 1;
  40023e:	2001      	movs	r0, #1
  400240:	e010      	b.n	400264 <usart_set_async_baudrate+0x54>
	cd_fp = (8 * ul_mck + (over * baudrate) / 2) / (over * baudrate);
  400242:	0859      	lsrs	r1, r3, #1
  400244:	eb01 02c2 	add.w	r2, r1, r2, lsl #3
  400248:	fbb2 f2f3 	udiv	r2, r2, r3
	cd = cd_fp >> 3;
  40024c:	08d3      	lsrs	r3, r2, #3
	if (cd < MIN_CD_VALUE || cd > MAX_CD_VALUE) {
  40024e:	1e5c      	subs	r4, r3, #1
  400250:	f64f 71fe 	movw	r1, #65534	; 0xfffe
  400254:	428c      	cmp	r4, r1
  400256:	d8f2      	bhi.n	40023e <usart_set_async_baudrate+0x2e>
	}

	/* Configure the baudrate generate register. */
	p_usart->US_BRGR = (cd << US_BRGR_CD_Pos) | (fp << US_BRGR_FP_Pos);
  400258:	0412      	lsls	r2, r2, #16
  40025a:	f402 22e0 	and.w	r2, r2, #458752	; 0x70000
  40025e:	431a      	orrs	r2, r3
  400260:	6202      	str	r2, [r0, #32]

	return 0;
  400262:	2000      	movs	r0, #0
}
  400264:	f85d 4b04 	ldr.w	r4, [sp], #4
  400268:	4770      	bx	lr
	...

0040026c <usart_reset>:
 *
 * \param p_usart Pointer to a USART instance.
 */
void usart_disable_writeprotect(Usart *p_usart)
{
	p_usart->US_WPMR = US_WPMR_WPKEY_PASSWD;
  40026c:	4b08      	ldr	r3, [pc, #32]	; (400290 <usart_reset+0x24>)
  40026e:	f8c0 30e4 	str.w	r3, [r0, #228]	; 0xe4
	p_usart->US_MR = 0;
  400272:	2300      	movs	r3, #0
  400274:	6043      	str	r3, [r0, #4]
	p_usart->US_RTOR = 0;
  400276:	6243      	str	r3, [r0, #36]	; 0x24
	p_usart->US_TTGR = 0;
  400278:	6283      	str	r3, [r0, #40]	; 0x28
	p_usart->US_CR = US_CR_RSTTX | US_CR_TXDIS;
  40027a:	2388      	movs	r3, #136	; 0x88
  40027c:	6003      	str	r3, [r0, #0]
	p_usart->US_CR = US_CR_RSTRX | US_CR_RXDIS;
  40027e:	2324      	movs	r3, #36	; 0x24
  400280:	6003      	str	r3, [r0, #0]
	p_usart->US_CR = US_CR_RSTSTA;
  400282:	f44f 7380 	mov.w	r3, #256	; 0x100
  400286:	6003      	str	r3, [r0, #0]
	p_usart->US_CR = US_CR_RTSDIS;
  400288:	f44f 2300 	mov.w	r3, #524288	; 0x80000
  40028c:	6003      	str	r3, [r0, #0]
  40028e:	4770      	bx	lr
  400290:	55534100 	.word	0x55534100

00400294 <usart_init_rs232>:
{
  400294:	b570      	push	{r4, r5, r6, lr}
  400296:	4605      	mov	r5, r0
  400298:	460c      	mov	r4, r1
  40029a:	4616      	mov	r6, r2
	usart_reset(p_usart);
  40029c:	4b0f      	ldr	r3, [pc, #60]	; (4002dc <usart_init_rs232+0x48>)
  40029e:	4798      	blx	r3
	ul_reg_val = 0;
  4002a0:	2200      	movs	r2, #0
  4002a2:	4b0f      	ldr	r3, [pc, #60]	; (4002e0 <usart_init_rs232+0x4c>)
  4002a4:	601a      	str	r2, [r3, #0]
	if (!p_usart_opt || usart_set_async_baudrate(p_usart,
  4002a6:	b1a4      	cbz	r4, 4002d2 <usart_init_rs232+0x3e>
  4002a8:	4632      	mov	r2, r6
  4002aa:	6821      	ldr	r1, [r4, #0]
  4002ac:	4628      	mov	r0, r5
  4002ae:	4b0d      	ldr	r3, [pc, #52]	; (4002e4 <usart_init_rs232+0x50>)
  4002b0:	4798      	blx	r3
  4002b2:	4602      	mov	r2, r0
  4002b4:	b978      	cbnz	r0, 4002d6 <usart_init_rs232+0x42>
	ul_reg_val |= p_usart_opt->char_length | p_usart_opt->parity_type |
  4002b6:	6863      	ldr	r3, [r4, #4]
  4002b8:	68a1      	ldr	r1, [r4, #8]
  4002ba:	430b      	orrs	r3, r1
  4002bc:	6921      	ldr	r1, [r4, #16]
  4002be:	430b      	orrs	r3, r1
			p_usart_opt->channel_mode | p_usart_opt->stop_bits;
  4002c0:	68e1      	ldr	r1, [r4, #12]
  4002c2:	430b      	orrs	r3, r1
	ul_reg_val |= p_usart_opt->char_length | p_usart_opt->parity_type |
  4002c4:	4906      	ldr	r1, [pc, #24]	; (4002e0 <usart_init_rs232+0x4c>)
  4002c6:	600b      	str	r3, [r1, #0]
	p_usart->US_MR |= ul_reg_val;
  4002c8:	6869      	ldr	r1, [r5, #4]
  4002ca:	430b      	orrs	r3, r1
  4002cc:	606b      	str	r3, [r5, #4]
}
  4002ce:	4610      	mov	r0, r2
  4002d0:	bd70      	pop	{r4, r5, r6, pc}
		return 1;
  4002d2:	2201      	movs	r2, #1
  4002d4:	e7fb      	b.n	4002ce <usart_init_rs232+0x3a>
  4002d6:	2201      	movs	r2, #1
  4002d8:	e7f9      	b.n	4002ce <usart_init_rs232+0x3a>
  4002da:	bf00      	nop
  4002dc:	0040026d 	.word	0x0040026d
  4002e0:	20400868 	.word	0x20400868
  4002e4:	00400211 	.word	0x00400211

004002e8 <usart_enable_tx>:
	p_usart->US_CR = US_CR_TXEN;
  4002e8:	2340      	movs	r3, #64	; 0x40
  4002ea:	6003      	str	r3, [r0, #0]
  4002ec:	4770      	bx	lr

004002ee <usart_enable_rx>:
	p_usart->US_CR = US_CR_RXEN;
  4002ee:	2310      	movs	r3, #16
  4002f0:	6003      	str	r3, [r0, #0]
  4002f2:	4770      	bx	lr

004002f4 <usart_write>:
	if (!(p_usart->US_CSR & US_CSR_TXRDY)) {
  4002f4:	6943      	ldr	r3, [r0, #20]
  4002f6:	f013 0f02 	tst.w	r3, #2
  4002fa:	d004      	beq.n	400306 <usart_write+0x12>
	p_usart->US_THR = US_THR_TXCHR(c);
  4002fc:	f3c1 0108 	ubfx	r1, r1, #0, #9
  400300:	61c1      	str	r1, [r0, #28]
	return 0;
  400302:	2000      	movs	r0, #0
  400304:	4770      	bx	lr
		return 1;
  400306:	2001      	movs	r0, #1
}
  400308:	4770      	bx	lr

0040030a <usart_read>:
	if (!(p_usart->US_CSR & US_CSR_RXRDY)) {
  40030a:	6943      	ldr	r3, [r0, #20]
  40030c:	f013 0f01 	tst.w	r3, #1
  400310:	d005      	beq.n	40031e <usart_read+0x14>
	*c = p_usart->US_RHR & US_RHR_RXCHR_Msk;
  400312:	6983      	ldr	r3, [r0, #24]
  400314:	f3c3 0308 	ubfx	r3, r3, #0, #9
  400318:	600b      	str	r3, [r1, #0]
	return 0;
  40031a:	2000      	movs	r0, #0
  40031c:	4770      	bx	lr
		return 1;
  40031e:	2001      	movs	r0, #1
}
  400320:	4770      	bx	lr
	...

00400324 <_write>:
int __attribute__((weak))
_write (int file, const char *ptr, int len)
{
	int nChars = 0;

	if ((file != 1) && (file != 2) && (file!=3)) {
  400324:	3801      	subs	r0, #1
  400326:	2802      	cmp	r0, #2
  400328:	d815      	bhi.n	400356 <_write+0x32>
{
  40032a:	e92d 41f0 	stmdb	sp!, {r4, r5, r6, r7, r8, lr}
  40032e:	460e      	mov	r6, r1
  400330:	4614      	mov	r4, r2
		return -1;
	}

	for (; len != 0; --len) {
  400332:	b19a      	cbz	r2, 40035c <_write+0x38>
  400334:	460d      	mov	r5, r1
		if (ptr_put(stdio_base, *ptr++) < 0) {
  400336:	f8df 8038 	ldr.w	r8, [pc, #56]	; 400370 <_write+0x4c>
  40033a:	4f0c      	ldr	r7, [pc, #48]	; (40036c <_write+0x48>)
  40033c:	f8d8 0000 	ldr.w	r0, [r8]
  400340:	f815 1b01 	ldrb.w	r1, [r5], #1
  400344:	683b      	ldr	r3, [r7, #0]
  400346:	4798      	blx	r3
  400348:	2800      	cmp	r0, #0
  40034a:	db0a      	blt.n	400362 <_write+0x3e>
  40034c:	1ba8      	subs	r0, r5, r6
	for (; len != 0; --len) {
  40034e:	3c01      	subs	r4, #1
  400350:	d1f4      	bne.n	40033c <_write+0x18>
  400352:	e8bd 81f0 	ldmia.w	sp!, {r4, r5, r6, r7, r8, pc}
		return -1;
  400356:	f04f 30ff 	mov.w	r0, #4294967295
  40035a:	4770      	bx	lr
	for (; len != 0; --len) {
  40035c:	4610      	mov	r0, r2
  40035e:	e8bd 81f0 	ldmia.w	sp!, {r4, r5, r6, r7, r8, pc}
			return -1;
  400362:	f04f 30ff 	mov.w	r0, #4294967295
		}
		++nChars;
	}
	return nChars;
}
  400366:	e8bd 81f0 	ldmia.w	sp!, {r4, r5, r6, r7, r8, pc}
  40036a:	bf00      	nop
  40036c:	20400924 	.word	0x20400924
  400370:	20400928 	.word	0x20400928

00400374 <tc_init>:
 */
void tc_init(
		Tc *p_tc,
		uint32_t ul_channel,
		uint32_t ul_mode)
{
  400374:	b410      	push	{r4}

	/* Validate inputs. */
	Assert(p_tc);
	Assert(ul_channel <
			(sizeof(p_tc->TC_CHANNEL) / sizeof(p_tc->TC_CHANNEL[0])));
	tc_channel = p_tc->TC_CHANNEL + ul_channel;
  400376:	0189      	lsls	r1, r1, #6
  400378:	1843      	adds	r3, r0, r1

	/*  Disable TC clock. */
	tc_channel->TC_CCR = TC_CCR_CLKDIS;
  40037a:	2402      	movs	r4, #2
  40037c:	5044      	str	r4, [r0, r1]

	/*  Disable interrupts. */
	tc_channel->TC_IDR = 0xFFFFFFFF;
  40037e:	f04f 31ff 	mov.w	r1, #4294967295
  400382:	6299      	str	r1, [r3, #40]	; 0x28

	/*  Clear status register. */
	tc_channel->TC_SR;
  400384:	6a19      	ldr	r1, [r3, #32]

	/*  Set mode. */
	tc_channel->TC_CMR = ul_mode;
  400386:	605a      	str	r2, [r3, #4]
}
  400388:	f85d 4b04 	ldr.w	r4, [sp], #4
  40038c:	4770      	bx	lr

0040038e <tc_start>:
	/* Validate inputs. */
	Assert(p_tc);
	Assert(ul_channel <
			(sizeof(p_tc->TC_CHANNEL) / sizeof(p_tc->TC_CHANNEL[0])));

	p_tc->TC_CHANNEL[ul_channel].TC_CCR = TC_CCR_CLKEN | TC_CCR_SWTRG;
  40038e:	0189      	lsls	r1, r1, #6
  400390:	2305      	movs	r3, #5
  400392:	5043      	str	r3, [r0, r1]
  400394:	4770      	bx	lr

00400396 <tc_write_rc>:
	/* Validate inputs. */
	Assert(p_tc);
	Assert(ul_channel <
			(sizeof(p_tc->TC_CHANNEL) / sizeof(p_tc->TC_CHANNEL[0])));

	p_tc->TC_CHANNEL[ul_channel].TC_RC = ul_value;
  400396:	eb00 1181 	add.w	r1, r0, r1, lsl #6
  40039a:	61ca      	str	r2, [r1, #28]
  40039c:	4770      	bx	lr

0040039e <tc_enable_interrupt>:

	/* Validate inputs. */
	Assert(p_tc);
	Assert(ul_channel <
			(sizeof(p_tc->TC_CHANNEL) / sizeof(p_tc->TC_CHANNEL[0])));
	tc_channel = p_tc->TC_CHANNEL + ul_channel;
  40039e:	eb00 1181 	add.w	r1, r0, r1, lsl #6
	tc_channel->TC_IER = ul_sources;
  4003a2:	624a      	str	r2, [r1, #36]	; 0x24
  4003a4:	4770      	bx	lr

004003a6 <tc_get_status>:
	/* Validate inputs. */
	Assert(p_tc);
	Assert(ul_channel <
			(sizeof(p_tc->TC_CHANNEL) / sizeof(p_tc->TC_CHANNEL[0])));
			
	tc_channel = p_tc->TC_CHANNEL + ul_channel;
  4003a6:	eb00 1181 	add.w	r1, r0, r1, lsl #6
	return tc_channel->TC_SR;
  4003aa:	6a08      	ldr	r0, [r1, #32]
}
  4003ac:	4770      	bx	lr

004003ae <tc_find_mck_divisor>:
		uint32_t ul_freq,
		uint32_t ul_mck,
		uint32_t *p_uldiv,
		uint32_t *p_ultcclks,
		uint32_t ul_boardmck)
{
  4003ae:	b4f0      	push	{r4, r5, r6, r7}
  4003b0:	b086      	sub	sp, #24
	const uint32_t divisors[5] = { 2, 8, 32, 128,
  4003b2:	2402      	movs	r4, #2
  4003b4:	9401      	str	r4, [sp, #4]
  4003b6:	2408      	movs	r4, #8
  4003b8:	9402      	str	r4, [sp, #8]
  4003ba:	2420      	movs	r4, #32
  4003bc:	9403      	str	r4, [sp, #12]
  4003be:	2480      	movs	r4, #128	; 0x80
  4003c0:	9404      	str	r4, [sp, #16]
			ul_boardmck / FREQ_SLOW_CLOCK_EXT };
  4003c2:	9c0a      	ldr	r4, [sp, #40]	; 0x28
  4003c4:	0be4      	lsrs	r4, r4, #15
	const uint32_t divisors[5] = { 2, 8, 32, 128,
  4003c6:	9405      	str	r4, [sp, #20]
	for (ul_index = 0;
			ul_index < (sizeof(divisors) / sizeof(divisors[0]));
			ul_index++) {
		ul_high = ul_mck / divisors[ul_index];
		ul_low  = ul_high / TC_DIV_FACTOR;
		if (ul_freq > ul_high) {
  4003c8:	ebb0 0f51 	cmp.w	r0, r1, lsr #1
  4003cc:	d814      	bhi.n	4003f8 <tc_find_mck_divisor+0x4a>
  4003ce:	0c4c      	lsrs	r4, r1, #17
			return 0;
		} else if (ul_freq >= ul_low) {
  4003d0:	42a0      	cmp	r0, r4
  4003d2:	d217      	bcs.n	400404 <tc_find_mck_divisor+0x56>
  4003d4:	2501      	movs	r5, #1
		ul_high = ul_mck / divisors[ul_index];
  4003d6:	af01      	add	r7, sp, #4
  4003d8:	f857 4025 	ldr.w	r4, [r7, r5, lsl #2]
  4003dc:	fbb1 f4f4 	udiv	r4, r1, r4
		ul_low  = ul_high / TC_DIV_FACTOR;
  4003e0:	0c26      	lsrs	r6, r4, #16
		if (ul_freq > ul_high) {
  4003e2:	4284      	cmp	r4, r0
  4003e4:	d30a      	bcc.n	4003fc <tc_find_mck_divisor+0x4e>
		} else if (ul_freq >= ul_low) {
  4003e6:	4286      	cmp	r6, r0
  4003e8:	d90d      	bls.n	400406 <tc_find_mck_divisor+0x58>
			ul_index++) {
  4003ea:	3501      	adds	r5, #1
	for (ul_index = 0;
  4003ec:	2d05      	cmp	r5, #5
  4003ee:	d1f3      	bne.n	4003d8 <tc_find_mck_divisor+0x2a>
			break;
		}
	}
	if (ul_index >= (sizeof(divisors) / sizeof(divisors[0]))) {
		return 0;
  4003f0:	2000      	movs	r0, #0
	if (p_ultcclks) {
		*p_ultcclks = ul_index;
	}

	return 1;
}
  4003f2:	b006      	add	sp, #24
  4003f4:	bcf0      	pop	{r4, r5, r6, r7}
  4003f6:	4770      	bx	lr
			return 0;
  4003f8:	2000      	movs	r0, #0
  4003fa:	e7fa      	b.n	4003f2 <tc_find_mck_divisor+0x44>
  4003fc:	2000      	movs	r0, #0
  4003fe:	e7f8      	b.n	4003f2 <tc_find_mck_divisor+0x44>
	return 1;
  400400:	2001      	movs	r0, #1
  400402:	e7f6      	b.n	4003f2 <tc_find_mck_divisor+0x44>
	for (ul_index = 0;
  400404:	2500      	movs	r5, #0
	if (p_uldiv) {
  400406:	b12a      	cbz	r2, 400414 <tc_find_mck_divisor+0x66>
		*p_uldiv = divisors[ul_index];
  400408:	a906      	add	r1, sp, #24
  40040a:	eb01 0185 	add.w	r1, r1, r5, lsl #2
  40040e:	f851 1c14 	ldr.w	r1, [r1, #-20]
  400412:	6011      	str	r1, [r2, #0]
	if (p_ultcclks) {
  400414:	2b00      	cmp	r3, #0
  400416:	d0f3      	beq.n	400400 <tc_find_mck_divisor+0x52>
		*p_ultcclks = ul_index;
  400418:	601d      	str	r5, [r3, #0]
	return 1;
  40041a:	2001      	movs	r0, #1
  40041c:	e7e9      	b.n	4003f2 <tc_find_mck_divisor+0x44>

0040041e <uart_write>:
 * \retval 1 I/O Failure, UART is not ready.
 */
uint32_t uart_write(Uart *p_uart, const uint8_t uc_data)
{
	/* Check if the transmitter is ready */
	if (!(p_uart->UART_SR & UART_SR_TXRDY))
  40041e:	6943      	ldr	r3, [r0, #20]
  400420:	f013 0f02 	tst.w	r3, #2
  400424:	d002      	beq.n	40042c <uart_write+0xe>
		return 1;

	/* Send character */
	p_uart->UART_THR = uc_data;
  400426:	61c1      	str	r1, [r0, #28]
	return 0;
  400428:	2000      	movs	r0, #0
  40042a:	4770      	bx	lr
		return 1;
  40042c:	2001      	movs	r0, #1
}
  40042e:	4770      	bx	lr

00400430 <uart_read>:
 * \retval 1 I/O Failure, UART is not ready.
 */
uint32_t uart_read(Uart *p_uart, uint8_t *puc_data)
{
	/* Check if the receiver is ready */
	if ((p_uart->UART_SR & UART_SR_RXRDY) == 0)
  400430:	6943      	ldr	r3, [r0, #20]
  400432:	f013 0f01 	tst.w	r3, #1
  400436:	d003      	beq.n	400440 <uart_read+0x10>
		return 1;

	/* Read character */
	*puc_data = (uint8_t) p_uart->UART_RHR;
  400438:	6983      	ldr	r3, [r0, #24]
  40043a:	700b      	strb	r3, [r1, #0]
	return 0;
  40043c:	2000      	movs	r0, #0
  40043e:	4770      	bx	lr
		return 1;
  400440:	2001      	movs	r0, #1
}
  400442:	4770      	bx	lr

00400444 <sysclk_init>:
	pmc_disable_udpck();
}
#endif // CONFIG_USBCLK_SOURCE

void sysclk_init(void)
{
  400444:	b510      	push	{r4, lr}
	struct pll_config pllcfg;

	/* Set flash wait state to max in case the below clock switching. */
	system_init_flash(CHIP_FREQ_CPU_MAX/2);
  400446:	4810      	ldr	r0, [pc, #64]	; (400488 <sysclk_init+0x44>)
  400448:	4b10      	ldr	r3, [pc, #64]	; (40048c <sysclk_init+0x48>)
  40044a:	4798      	blx	r3
		pmc_switch_mainck_to_fastrc(CKGR_MOR_MOSCRCF_12_MHz);
		break;


	case OSC_MAINCK_XTAL:
		pmc_switch_mainck_to_xtal(PMC_OSC_XTAL,
  40044c:	213e      	movs	r1, #62	; 0x3e
  40044e:	2000      	movs	r0, #0
  400450:	4b0f      	ldr	r3, [pc, #60]	; (400490 <sysclk_init+0x4c>)
  400452:	4798      	blx	r3
	case OSC_MAINCK_4M_RC:
	case OSC_MAINCK_8M_RC:
	case OSC_MAINCK_12M_RC:
	case OSC_MAINCK_XTAL:
	case OSC_MAINCK_BYPASS:
		return pmc_osc_is_ready_mainck();
  400454:	4c0f      	ldr	r4, [pc, #60]	; (400494 <sysclk_init+0x50>)
  400456:	47a0      	blx	r4
 *
 * \param id A number identifying the oscillator to wait for.
 */
static inline void osc_wait_ready(uint8_t id)
{
	while (!osc_is_ready(id)) {
  400458:	2800      	cmp	r0, #0
  40045a:	d0fc      	beq.n	400456 <sysclk_init+0x12>
static inline void pll_enable(const struct pll_config *p_cfg, uint32_t ul_pll_id)
{
	Assert(ul_pll_id < NR_PLLS);

	if (ul_pll_id == PLLA_ID) {
		pmc_disable_pllack(); // Always stop PLL first!
  40045c:	4b0e      	ldr	r3, [pc, #56]	; (400498 <sysclk_init+0x54>)
  40045e:	4798      	blx	r3
		PMC->CKGR_PLLAR = CKGR_PLLAR_ONE | p_cfg->ctrl;
  400460:	4a0e      	ldr	r2, [pc, #56]	; (40049c <sysclk_init+0x58>)
  400462:	4b0f      	ldr	r3, [pc, #60]	; (4004a0 <sysclk_init+0x5c>)
  400464:	629a      	str	r2, [r3, #40]	; 0x28
static inline uint32_t pll_is_locked(uint32_t ul_pll_id)
{
	Assert(ul_pll_id < NR_PLLS);

	if (ul_pll_id == PLLA_ID) {
	return pmc_is_locked_pllack();
  400466:	4c0f      	ldr	r4, [pc, #60]	; (4004a4 <sysclk_init+0x60>)
  400468:	47a0      	blx	r4
 */
static inline int pll_wait_for_lock(unsigned int pll_id)
{
	Assert(pll_id < NR_PLLS);

	while (!pll_is_locked(pll_id)) {
  40046a:	2800      	cmp	r0, #0
  40046c:	d0fc      	beq.n	400468 <sysclk_init+0x24>
	else if (CONFIG_SYSCLK_SOURCE == SYSCLK_SRC_PLLACK) {
		pll_enable_source(CONFIG_PLL0_SOURCE);
		pll_config_defaults(&pllcfg, 0);
		pll_enable(&pllcfg, 0);
		pll_wait_for_lock(0);
		pmc_mck_set_division(CONFIG_SYSCLK_DIV);
  40046e:	2002      	movs	r0, #2
  400470:	4b0d      	ldr	r3, [pc, #52]	; (4004a8 <sysclk_init+0x64>)
  400472:	4798      	blx	r3
		pmc_switch_mck_to_pllack(CONFIG_SYSCLK_PRES);
  400474:	2000      	movs	r0, #0
  400476:	4b0d      	ldr	r3, [pc, #52]	; (4004ac <sysclk_init+0x68>)
  400478:	4798      	blx	r3
		pll_wait_for_lock(1);
		pmc_mck_set_division(CONFIG_SYSCLK_DIV);
		pmc_switch_mck_to_upllck(CONFIG_SYSCLK_PRES);
	}
	/* Update the SystemFrequency variable */
	SystemCoreClockUpdate();
  40047a:	4b0d      	ldr	r3, [pc, #52]	; (4004b0 <sysclk_init+0x6c>)
  40047c:	4798      	blx	r3

	/* Set a flash wait state depending on the master clock frequency */
	system_init_flash(sysclk_get_cpu_hz() / CONFIG_SYSCLK_DIV);
  40047e:	4802      	ldr	r0, [pc, #8]	; (400488 <sysclk_init+0x44>)
  400480:	4b02      	ldr	r3, [pc, #8]	; (40048c <sysclk_init+0x48>)
  400482:	4798      	blx	r3
  400484:	bd10      	pop	{r4, pc}
  400486:	bf00      	nop
  400488:	08f0d180 	.word	0x08f0d180
  40048c:	00400b11 	.word	0x00400b11
  400490:	00400895 	.word	0x00400895
  400494:	004008e9 	.word	0x004008e9
  400498:	004008f9 	.word	0x004008f9
  40049c:	20183f01 	.word	0x20183f01
  4004a0:	400e0600 	.word	0x400e0600
  4004a4:	00400909 	.word	0x00400909
  4004a8:	004007f9 	.word	0x004007f9
  4004ac:	00400831 	.word	0x00400831
  4004b0:	00400a05 	.word	0x00400a05

004004b4 <board_init>:
	__ISB();
}
#endif

void board_init(void)
{
  4004b4:	b5f8      	push	{r3, r4, r5, r6, r7, lr}
#ifndef CONF_BOARD_KEEP_WATCHDOG_AT_INIT
	/* Disable the watchdog */
	WDT->WDT_MR = WDT_MR_WDDIS;
  4004b6:	f44f 4200 	mov.w	r2, #32768	; 0x8000
  4004ba:	4b48      	ldr	r3, [pc, #288]	; (4005dc <board_init+0x128>)
  4004bc:	605a      	str	r2, [r3, #4]
    This function acts as a special kind of Data Memory Barrier.
    It completes when all explicit memory accesses before this instruction complete.
 */
__attribute__( ( always_inline ) ) __STATIC_INLINE void __DSB(void)
{
  __ASM volatile ("dsb");
  4004be:	f3bf 8f4f 	dsb	sy
  __ASM volatile ("isb");
  4004c2:	f3bf 8f6f 	isb	sy
__STATIC_INLINE void SCB_EnableICache(void)
{
  #if (__ICACHE_PRESENT == 1)
    __DSB();
    __ISB();
    SCB->ICIALLU = 0;                       // invalidate I-Cache
  4004c6:	4b46      	ldr	r3, [pc, #280]	; (4005e0 <board_init+0x12c>)
  4004c8:	2200      	movs	r2, #0
  4004ca:	f8c3 2250 	str.w	r2, [r3, #592]	; 0x250
    SCB->CCR |=  SCB_CCR_IC_Msk;            // enable I-Cache
  4004ce:	695a      	ldr	r2, [r3, #20]
  4004d0:	f442 3200 	orr.w	r2, r2, #131072	; 0x20000
  4004d4:	615a      	str	r2, [r3, #20]
  __ASM volatile ("dsb");
  4004d6:	f3bf 8f4f 	dsb	sy
  __ASM volatile ("isb");
  4004da:	f3bf 8f6f 	isb	sy
{
  #if (__DCACHE_PRESENT == 1)
    uint32_t ccsidr, sshift, wshift, sw;
    uint32_t sets, ways;

    ccsidr  = SCB->CCSIDR;
  4004de:	f8d3 7080 	ldr.w	r7, [r3, #128]	; 0x80
    sets    = CCSIDR_SETS(ccsidr);
  4004e2:	f3c7 364e 	ubfx	r6, r7, #13, #15
    sshift  = CCSIDR_LSSHIFT(ccsidr) + 4;
  4004e6:	f007 0007 	and.w	r0, r7, #7
  4004ea:	3004      	adds	r0, #4
    ways    = CCSIDR_WAYS(ccsidr);
  4004ec:	f3c7 07c9 	ubfx	r7, r7, #3, #10
 */
__attribute__( ( always_inline ) ) __STATIC_INLINE uint8_t __CLZ(uint32_t value)
{
  uint32_t result;

  __ASM volatile ("clz %0, %1" : "=r" (result) : "r" (value) );
  4004f0:	fab7 fe87 	clz	lr, r7
    wshift  = __CLZ(ways) & 0x1f;
  4004f4:	f00e 0e1f 	and.w	lr, lr, #31
  __ASM volatile ("dsb");
  4004f8:	f3bf 8f4f 	dsb	sy
  4004fc:	f04f 34ff 	mov.w	r4, #4294967295
  400500:	fa04 fc00 	lsl.w	ip, r4, r0
  400504:	fa06 f000 	lsl.w	r0, r6, r0
  400508:	fa04 f40e 	lsl.w	r4, r4, lr
  40050c:	fa07 fe0e 	lsl.w	lr, r7, lr

    do {                                    // invalidate D-Cache
         int32_t tmpways = ways;
         do {
              sw = ((tmpways << wshift) | (sets << sshift));
              SCB->DCISW = sw;
  400510:	461d      	mov	r5, r3
         int32_t tmpways = ways;
  400512:	463a      	mov	r2, r7
  400514:	4673      	mov	r3, lr
              sw = ((tmpways << wshift) | (sets << sshift));
  400516:	ea40 0103 	orr.w	r1, r0, r3
              SCB->DCISW = sw;
  40051a:	f8c5 1260 	str.w	r1, [r5, #608]	; 0x260
            } while(tmpways--);
  40051e:	3a01      	subs	r2, #1
  400520:	4423      	add	r3, r4
  400522:	f1b2 3fff 	cmp.w	r2, #4294967295
  400526:	d1f6      	bne.n	400516 <board_init+0x62>
        } while(sets--);
  400528:	3e01      	subs	r6, #1
  40052a:	4460      	add	r0, ip
  40052c:	f1b6 3fff 	cmp.w	r6, #4294967295
  400530:	d1ef      	bne.n	400512 <board_init+0x5e>
  400532:	f3bf 8f4f 	dsb	sy
    __DSB();

    SCB->CCR |=  SCB_CCR_DC_Msk;            // enable D-Cache
  400536:	4b2a      	ldr	r3, [pc, #168]	; (4005e0 <board_init+0x12c>)
  400538:	695a      	ldr	r2, [r3, #20]
  40053a:	f442 3280 	orr.w	r2, r2, #65536	; 0x10000
  40053e:	615a      	str	r2, [r3, #20]
  400540:	f3bf 8f4f 	dsb	sy
  __ASM volatile ("isb");
  400544:	f3bf 8f6f 	isb	sy
		*dst++ = *src++;
	}
#endif
#else
	/* TCM Configuration */
	EFC->EEFC_FCR = (EEFC_FCR_FKEY_PASSWD | EEFC_FCR_FCMD_CGPB 
  400548:	4a26      	ldr	r2, [pc, #152]	; (4005e4 <board_init+0x130>)
  40054a:	4927      	ldr	r1, [pc, #156]	; (4005e8 <board_init+0x134>)
  40054c:	6051      	str	r1, [r2, #4]
					| EEFC_FCR_FARG(8));
	EFC->EEFC_FCR = (EEFC_FCR_FKEY_PASSWD | EEFC_FCR_FCMD_CGPB 
  40054e:	f5a1 7180 	sub.w	r1, r1, #256	; 0x100
  400552:	6051      	str	r1, [r2, #4]
  __ASM volatile ("dsb");
  400554:	f3bf 8f4f 	dsb	sy
  __ASM volatile ("isb");
  400558:	f3bf 8f6f 	isb	sy
	SCB->ITCMCR &= ~(uint32_t)(1UL);
  40055c:	f8d3 2290 	ldr.w	r2, [r3, #656]	; 0x290
  400560:	f022 0201 	bic.w	r2, r2, #1
  400564:	f8c3 2290 	str.w	r2, [r3, #656]	; 0x290
	SCB->DTCMCR &= ~(uint32_t)SCB_DTCMCR_EN_Msk;
  400568:	f8d3 2294 	ldr.w	r2, [r3, #660]	; 0x294
  40056c:	f022 0201 	bic.w	r2, r2, #1
  400570:	f8c3 2294 	str.w	r2, [r3, #660]	; 0x294
  __ASM volatile ("dsb");
  400574:	f3bf 8f4f 	dsb	sy
  __ASM volatile ("isb");
  400578:	f3bf 8f6f 	isb	sy
 *
 * \param ul_id Id (number) of the peripheral clock.
 */
static inline void sysclk_enable_peripheral_clock(uint32_t ul_id)
{
	pmc_enable_periph_clk(ul_id);
  40057c:	200a      	movs	r0, #10
  40057e:	4c1b      	ldr	r4, [pc, #108]	; (4005ec <board_init+0x138>)
  400580:	47a0      	blx	r4
  400582:	200b      	movs	r0, #11
  400584:	47a0      	blx	r4
  400586:	200c      	movs	r0, #12
  400588:	47a0      	blx	r4
  40058a:	2010      	movs	r0, #16
  40058c:	47a0      	blx	r4
  40058e:	2011      	movs	r0, #17
  400590:	47a0      	blx	r4
		enum ioport_direction dir)
{
	Pio *base = arch_ioport_pin_to_base(pin);

	if (dir == IOPORT_DIR_OUTPUT) {
		base->PIO_OER = arch_ioport_pin_to_mask(pin);
  400592:	4b17      	ldr	r3, [pc, #92]	; (4005f0 <board_init+0x13c>)
  400594:	f44f 7280 	mov.w	r2, #256	; 0x100
  400598:	611a      	str	r2, [r3, #16]
	} else if (dir == IOPORT_DIR_INPUT) {
		base->PIO_ODR = arch_ioport_pin_to_mask(pin);
	}

	base->PIO_OWER = arch_ioport_pin_to_mask(pin);
  40059a:	f8c3 20a0 	str.w	r2, [r3, #160]	; 0xa0
		bool level)
{
	Pio *base = arch_ioport_pin_to_base(pin);

	if (level) {
		base->PIO_SODR = arch_ioport_pin_to_mask(pin);
  40059e:	631a      	str	r2, [r3, #48]	; 0x30
		base->PIO_ODR = arch_ioport_pin_to_mask(pin);
  4005a0:	f5a3 6380 	sub.w	r3, r3, #1024	; 0x400
  4005a4:	f44f 6200 	mov.w	r2, #2048	; 0x800
  4005a8:	615a      	str	r2, [r3, #20]
	base->PIO_OWER = arch_ioport_pin_to_mask(pin);
  4005aa:	f8c3 20a0 	str.w	r2, [r3, #160]	; 0xa0
		base->PIO_PUER = mask;
  4005ae:	665a      	str	r2, [r3, #100]	; 0x64
		base->PIO_PPDDR = mask;
  4005b0:	f8c3 2090 	str.w	r2, [r3, #144]	; 0x90
		base->PIO_MDDR = mask;
  4005b4:	655a      	str	r2, [r3, #84]	; 0x54
		base->PIO_IFER = mask;
  4005b6:	621a      	str	r2, [r3, #32]
		base->PIO_IFSCER = mask;
  4005b8:	f8c3 2084 	str.w	r2, [r3, #132]	; 0x84
		base->PIO_ABCDSR[0] &= ~mask;
  4005bc:	6f19      	ldr	r1, [r3, #112]	; 0x70
  4005be:	f421 6100 	bic.w	r1, r1, #2048	; 0x800
  4005c2:	6719      	str	r1, [r3, #112]	; 0x70
		base->PIO_ABCDSR[1] &= ~mask;
  4005c4:	6f59      	ldr	r1, [r3, #116]	; 0x74
  4005c6:	f421 6100 	bic.w	r1, r1, #2048	; 0x800
  4005ca:	6759      	str	r1, [r3, #116]	; 0x74
	case IOPORT_SENSE_FALLING:
		base->PIO_ESR = mask;
		base->PIO_FELLSR = mask;
		break;
	case IOPORT_SENSE_RISING:
		base->PIO_ESR = mask;
  4005cc:	f8c3 20c0 	str.w	r2, [r3, #192]	; 0xc0
		base->PIO_REHLSR = mask;
  4005d0:	f8c3 20d4 	str.w	r2, [r3, #212]	; 0xd4
		break;
	default:
		base->PIO_AIMDR = mask;
		return;
	}
	base->PIO_AIMER = mask;
  4005d4:	f8c3 20b0 	str.w	r2, [r3, #176]	; 0xb0
  4005d8:	bdf8      	pop	{r3, r4, r5, r6, r7, pc}
  4005da:	bf00      	nop
  4005dc:	400e1850 	.word	0x400e1850
  4005e0:	e000ed00 	.word	0xe000ed00
  4005e4:	400e0c00 	.word	0x400e0c00
  4005e8:	5a00080c 	.word	0x5a00080c
  4005ec:	00400919 	.word	0x00400919
  4005f0:	400e1200 	.word	0x400e1200

004005f4 <pio_set_debounce_filter>:
void pio_set_debounce_filter(Pio *p_pio, const uint32_t ul_mask,
		const uint32_t ul_cut_off)
{
#if (SAM3S || SAM3N || SAM4S || SAM4E || SAM4N || SAM4C || SAMG || SAM4CP || SAM4CM || SAMV71 || SAMV70 || SAME70 || SAMS70)
	/* Set Debouncing, 0 bit field no effect */
	p_pio->PIO_IFSCER = ul_mask;
  4005f4:	f8c0 1084 	str.w	r1, [r0, #132]	; 0x84
	/*
	 * The debouncing filter can filter a pulse of less than 1/2 Period of a
	 * programmable Divided Slow Clock:
	 * Tdiv_slclk = ((DIV+1)*2).Tslow_clock
	 */
	p_pio->PIO_SCDR = PIO_SCDR_DIV((FREQ_SLOW_CLOCK_EXT /
  4005f8:	0053      	lsls	r3, r2, #1
  4005fa:	f44f 4200 	mov.w	r2, #32768	; 0x8000
  4005fe:	fbb2 f2f3 	udiv	r2, r2, r3
  400602:	3a01      	subs	r2, #1
  400604:	f3c2 020d 	ubfx	r2, r2, #0, #14
  400608:	f8c0 208c 	str.w	r2, [r0, #140]	; 0x8c
  40060c:	4770      	bx	lr

0040060e <pio_configure_interrupt>:
 */
void pio_configure_interrupt(Pio *p_pio, const uint32_t ul_mask,
		const uint32_t ul_attr)
{
	/* Configure additional interrupt mode registers. */
	if (ul_attr & PIO_IT_AIME) {
  40060e:	f012 0f10 	tst.w	r2, #16
  400612:	d012      	beq.n	40063a <pio_configure_interrupt+0x2c>
		/* Enable additional interrupt mode. */
		p_pio->PIO_AIMER = ul_mask;
  400614:	f8c0 10b0 	str.w	r1, [r0, #176]	; 0xb0

		/* If bit field of the selected pin is 1, set as
		   Rising Edge/High level detection event. */
		if (ul_attr & PIO_IT_RE_OR_HL) {
  400618:	f012 0f20 	tst.w	r2, #32
  40061c:	d007      	beq.n	40062e <pio_configure_interrupt+0x20>
			/* Rising Edge or High Level */
			p_pio->PIO_REHLSR = ul_mask;
  40061e:	f8c0 10d4 	str.w	r1, [r0, #212]	; 0xd4
			p_pio->PIO_FELLSR = ul_mask;
		}

		/* If bit field of the selected pin is 1, set as
		   edge detection source. */
		if (ul_attr & PIO_IT_EDGE) {
  400622:	f012 0f40 	tst.w	r2, #64	; 0x40
  400626:	d005      	beq.n	400634 <pio_configure_interrupt+0x26>
			/* Edge select */
			p_pio->PIO_ESR = ul_mask;
  400628:	f8c0 10c0 	str.w	r1, [r0, #192]	; 0xc0
  40062c:	4770      	bx	lr
			p_pio->PIO_FELLSR = ul_mask;
  40062e:	f8c0 10d0 	str.w	r1, [r0, #208]	; 0xd0
  400632:	e7f6      	b.n	400622 <pio_configure_interrupt+0x14>
		} else {
			/* Level select */
			p_pio->PIO_LSR = ul_mask;
  400634:	f8c0 10c4 	str.w	r1, [r0, #196]	; 0xc4
  400638:	4770      	bx	lr
		}
	} else {
		/* Disable additional interrupt mode. */
		p_pio->PIO_AIMDR = ul_mask;
  40063a:	f8c0 10b4 	str.w	r1, [r0, #180]	; 0xb4
  40063e:	4770      	bx	lr

00400640 <pio_enable_interrupt>:
 * \param p_pio Pointer to a PIO instance.
 * \param ul_mask Interrupt sources bit map.
 */
void pio_enable_interrupt(Pio *p_pio, const uint32_t ul_mask)
{
	p_pio->PIO_IER = ul_mask;
  400640:	6401      	str	r1, [r0, #64]	; 0x40
  400642:	4770      	bx	lr

00400644 <pio_disable_interrupt>:
 * \param p_pio Pointer to a PIO instance.
 * \param ul_mask Interrupt sources bit map.
 */
void pio_disable_interrupt(Pio *p_pio, const uint32_t ul_mask)
{
	p_pio->PIO_IDR = ul_mask;
  400644:	6441      	str	r1, [r0, #68]	; 0x44
  400646:	4770      	bx	lr

00400648 <pio_get_interrupt_status>:
 *
 * \return The interrupt status value.
 */
uint32_t pio_get_interrupt_status(const Pio *p_pio)
{
	return p_pio->PIO_ISR;
  400648:	6cc0      	ldr	r0, [r0, #76]	; 0x4c
}
  40064a:	4770      	bx	lr

0040064c <pio_get_interrupt_mask>:
 *
 * \return The interrupt mask value.
 */
uint32_t pio_get_interrupt_mask(const Pio *p_pio)
{
	return p_pio->PIO_IMR;
  40064c:	6c80      	ldr	r0, [r0, #72]	; 0x48
}
  40064e:	4770      	bx	lr

00400650 <pio_handler_process>:
 *
 * \param p_pio PIO controller base address.
 * \param ul_id PIO controller ID.
 */
void pio_handler_process(Pio *p_pio, uint32_t ul_id)
{
  400650:	e92d 41f0 	stmdb	sp!, {r4, r5, r6, r7, r8, lr}
  400654:	4604      	mov	r4, r0
  400656:	4688      	mov	r8, r1
	uint32_t status;
	uint32_t i;

	/* Read PIO controller status */
	status = pio_get_interrupt_status(p_pio);
  400658:	4b0e      	ldr	r3, [pc, #56]	; (400694 <pio_handler_process+0x44>)
  40065a:	4798      	blx	r3
  40065c:	4605      	mov	r5, r0
	status &= pio_get_interrupt_mask(p_pio);
  40065e:	4620      	mov	r0, r4
  400660:	4b0d      	ldr	r3, [pc, #52]	; (400698 <pio_handler_process+0x48>)
  400662:	4798      	blx	r3

	/* Check pending events */
	if (status != 0) {
  400664:	4005      	ands	r5, r0
  400666:	d013      	beq.n	400690 <pio_handler_process+0x40>
  400668:	4c0c      	ldr	r4, [pc, #48]	; (40069c <pio_handler_process+0x4c>)
  40066a:	f104 0660 	add.w	r6, r4, #96	; 0x60
  40066e:	e003      	b.n	400678 <pio_handler_process+0x28>
							gs_interrupt_sources[i].mask);
					status &= ~(gs_interrupt_sources[i].mask);
				}
			}
			i++;
			if (i >= MAX_INTERRUPT_SOURCES) {
  400670:	42b4      	cmp	r4, r6
  400672:	d00d      	beq.n	400690 <pio_handler_process+0x40>
  400674:	3410      	adds	r4, #16
		while (status != 0) {
  400676:	b15d      	cbz	r5, 400690 <pio_handler_process+0x40>
			if (gs_interrupt_sources[i].id == ul_id) {
  400678:	6820      	ldr	r0, [r4, #0]
  40067a:	4540      	cmp	r0, r8
  40067c:	d1f8      	bne.n	400670 <pio_handler_process+0x20>
				if ((status & gs_interrupt_sources[i].mask) != 0) {
  40067e:	6861      	ldr	r1, [r4, #4]
  400680:	4229      	tst	r1, r5
  400682:	d0f5      	beq.n	400670 <pio_handler_process+0x20>
					gs_interrupt_sources[i].handler(gs_interrupt_sources[i].id,
  400684:	68e3      	ldr	r3, [r4, #12]
  400686:	4798      	blx	r3
					status &= ~(gs_interrupt_sources[i].mask);
  400688:	6863      	ldr	r3, [r4, #4]
  40068a:	ea25 0503 	bic.w	r5, r5, r3
  40068e:	e7ef      	b.n	400670 <pio_handler_process+0x20>
  400690:	e8bd 81f0 	ldmia.w	sp!, {r4, r5, r6, r7, r8, pc}
  400694:	00400649 	.word	0x00400649
  400698:	0040064d 	.word	0x0040064d
  40069c:	2040086c 	.word	0x2040086c

004006a0 <pio_handler_set>:
 *
 * \return 0 if successful, 1 if the maximum number of sources has been defined.
 */
uint32_t pio_handler_set(Pio *p_pio, uint32_t ul_id, uint32_t ul_mask,
		uint32_t ul_attr, void (*p_handler) (uint32_t, uint32_t))
{
  4006a0:	b5f8      	push	{r3, r4, r5, r6, r7, lr}
    uint8_t i;
	struct s_interrupt_source *pSource;

	if (gs_ul_nb_sources >= MAX_INTERRUPT_SOURCES)
  4006a2:	4c18      	ldr	r4, [pc, #96]	; (400704 <pio_handler_set+0x64>)
  4006a4:	6826      	ldr	r6, [r4, #0]
  4006a6:	2e06      	cmp	r6, #6
  4006a8:	d82a      	bhi.n	400700 <pio_handler_set+0x60>
  4006aa:	f04f 0c00 	mov.w	ip, #0
  4006ae:	4664      	mov	r4, ip
		return 1;

    /* Check interrupt for this pin, if already defined, redefine it. */
	for (i = 0; i <= gs_ul_nb_sources; i++) {
		pSource = &(gs_interrupt_sources[i]);
		if (pSource->id == ul_id && pSource->mask == ul_mask) {
  4006b0:	4f15      	ldr	r7, [pc, #84]	; (400708 <pio_handler_set+0x68>)
  4006b2:	e004      	b.n	4006be <pio_handler_set+0x1e>
	for (i = 0; i <= gs_ul_nb_sources; i++) {
  4006b4:	3401      	adds	r4, #1
  4006b6:	b2e4      	uxtb	r4, r4
  4006b8:	46a4      	mov	ip, r4
  4006ba:	42a6      	cmp	r6, r4
  4006bc:	d309      	bcc.n	4006d2 <pio_handler_set+0x32>
		pSource = &(gs_interrupt_sources[i]);
  4006be:	46a6      	mov	lr, r4
		if (pSource->id == ul_id && pSource->mask == ul_mask) {
  4006c0:	0125      	lsls	r5, r4, #4
  4006c2:	597d      	ldr	r5, [r7, r5]
  4006c4:	428d      	cmp	r5, r1
  4006c6:	d1f5      	bne.n	4006b4 <pio_handler_set+0x14>
  4006c8:	eb07 1504 	add.w	r5, r7, r4, lsl #4
  4006cc:	686d      	ldr	r5, [r5, #4]
  4006ce:	4295      	cmp	r5, r2
  4006d0:	d1f0      	bne.n	4006b4 <pio_handler_set+0x14>
			break;
		}
	}

	/* Define new source */
	pSource->id = ul_id;
  4006d2:	4d0d      	ldr	r5, [pc, #52]	; (400708 <pio_handler_set+0x68>)
  4006d4:	ea4f 1e0e 	mov.w	lr, lr, lsl #4
  4006d8:	eb05 040e 	add.w	r4, r5, lr
  4006dc:	f845 100e 	str.w	r1, [r5, lr]
	pSource->mask = ul_mask;
  4006e0:	6062      	str	r2, [r4, #4]
	pSource->attr = ul_attr;
  4006e2:	60a3      	str	r3, [r4, #8]
	pSource->handler = p_handler;
  4006e4:	9906      	ldr	r1, [sp, #24]
  4006e6:	60e1      	str	r1, [r4, #12]
	if (i == gs_ul_nb_sources + 1) {
  4006e8:	3601      	adds	r6, #1
  4006ea:	4566      	cmp	r6, ip
  4006ec:	d005      	beq.n	4006fa <pio_handler_set+0x5a>
  4006ee:	4611      	mov	r1, r2
		gs_ul_nb_sources++;
	}

	/* Configure interrupt mode */
	pio_configure_interrupt(p_pio, ul_mask, ul_attr);
  4006f0:	461a      	mov	r2, r3
  4006f2:	4b06      	ldr	r3, [pc, #24]	; (40070c <pio_handler_set+0x6c>)
  4006f4:	4798      	blx	r3

	return 0;
  4006f6:	2000      	movs	r0, #0
  4006f8:	bdf8      	pop	{r3, r4, r5, r6, r7, pc}
		gs_ul_nb_sources++;
  4006fa:	4902      	ldr	r1, [pc, #8]	; (400704 <pio_handler_set+0x64>)
  4006fc:	600e      	str	r6, [r1, #0]
  4006fe:	e7f6      	b.n	4006ee <pio_handler_set+0x4e>
		return 1;
  400700:	2001      	movs	r0, #1
}
  400702:	bdf8      	pop	{r3, r4, r5, r6, r7, pc}
  400704:	204008dc 	.word	0x204008dc
  400708:	2040086c 	.word	0x2040086c
  40070c:	0040060f 	.word	0x0040060f

00400710 <PIOA_Handler>:
/**
 * \brief Parallel IO Controller A interrupt handler.
 * Redefined PIOA interrupt handler for NVIC interrupt table.
 */
void PIOA_Handler(void)
{
  400710:	b508      	push	{r3, lr}
	pio_handler_process(PIOA, ID_PIOA);
  400712:	210a      	movs	r1, #10
  400714:	4801      	ldr	r0, [pc, #4]	; (40071c <PIOA_Handler+0xc>)
  400716:	4b02      	ldr	r3, [pc, #8]	; (400720 <PIOA_Handler+0x10>)
  400718:	4798      	blx	r3
  40071a:	bd08      	pop	{r3, pc}
  40071c:	400e0e00 	.word	0x400e0e00
  400720:	00400651 	.word	0x00400651

00400724 <PIOB_Handler>:
/**
 * \brief Parallel IO Controller B interrupt handler
 * Redefined PIOB interrupt handler for NVIC interrupt table.
 */
void PIOB_Handler(void)
{
  400724:	b508      	push	{r3, lr}
    pio_handler_process(PIOB, ID_PIOB);
  400726:	210b      	movs	r1, #11
  400728:	4801      	ldr	r0, [pc, #4]	; (400730 <PIOB_Handler+0xc>)
  40072a:	4b02      	ldr	r3, [pc, #8]	; (400734 <PIOB_Handler+0x10>)
  40072c:	4798      	blx	r3
  40072e:	bd08      	pop	{r3, pc}
  400730:	400e1000 	.word	0x400e1000
  400734:	00400651 	.word	0x00400651

00400738 <PIOC_Handler>:
/**
 * \brief Parallel IO Controller C interrupt handler.
 * Redefined PIOC interrupt handler for NVIC interrupt table.
 */
void PIOC_Handler(void)
{
  400738:	b508      	push	{r3, lr}
	pio_handler_process(PIOC, ID_PIOC);
  40073a:	210c      	movs	r1, #12
  40073c:	4801      	ldr	r0, [pc, #4]	; (400744 <PIOC_Handler+0xc>)
  40073e:	4b02      	ldr	r3, [pc, #8]	; (400748 <PIOC_Handler+0x10>)
  400740:	4798      	blx	r3
  400742:	bd08      	pop	{r3, pc}
  400744:	400e1200 	.word	0x400e1200
  400748:	00400651 	.word	0x00400651

0040074c <PIOD_Handler>:
/**
 * \brief Parallel IO Controller D interrupt handler.
 * Redefined PIOD interrupt handler for NVIC interrupt table.
 */
void PIOD_Handler(void)
{
  40074c:	b508      	push	{r3, lr}
	pio_handler_process(PIOD, ID_PIOD);
  40074e:	2110      	movs	r1, #16
  400750:	4801      	ldr	r0, [pc, #4]	; (400758 <PIOD_Handler+0xc>)
  400752:	4b02      	ldr	r3, [pc, #8]	; (40075c <PIOD_Handler+0x10>)
  400754:	4798      	blx	r3
  400756:	bd08      	pop	{r3, pc}
  400758:	400e1400 	.word	0x400e1400
  40075c:	00400651 	.word	0x00400651

00400760 <PIOE_Handler>:
/**
 * \brief Parallel IO Controller E interrupt handler.
 * Redefined PIOE interrupt handler for NVIC interrupt table.
 */
void PIOE_Handler(void)
{
  400760:	b508      	push	{r3, lr}
	pio_handler_process(PIOE, ID_PIOE);
  400762:	2111      	movs	r1, #17
  400764:	4801      	ldr	r0, [pc, #4]	; (40076c <PIOE_Handler+0xc>)
  400766:	4b02      	ldr	r3, [pc, #8]	; (400770 <PIOE_Handler+0x10>)
  400768:	4798      	blx	r3
  40076a:	bd08      	pop	{r3, pc}
  40076c:	400e1600 	.word	0x400e1600
  400770:	00400651 	.word	0x00400651

00400774 <pio_handler_set_priority>:
 * \param p_pio PIO controller base address.
 * \param ul_irqn NVIC line number.
 * \param ul_priority PIO controller interrupts priority.
 */
void pio_handler_set_priority(Pio *p_pio, IRQn_Type ul_irqn, uint32_t ul_priority)
{
  400774:	b5f8      	push	{r3, r4, r5, r6, r7, lr}
  400776:	4606      	mov	r6, r0
  400778:	460d      	mov	r5, r1
  40077a:	4614      	mov	r4, r2
	uint32_t bitmask = 0;

	bitmask = pio_get_interrupt_mask(p_pio);
  40077c:	4b17      	ldr	r3, [pc, #92]	; (4007dc <pio_handler_set_priority+0x68>)
  40077e:	4798      	blx	r3
  400780:	4607      	mov	r7, r0
	pio_disable_interrupt(p_pio, 0xFFFFFFFF);
  400782:	f04f 31ff 	mov.w	r1, #4294967295
  400786:	4630      	mov	r0, r6
  400788:	4b15      	ldr	r3, [pc, #84]	; (4007e0 <pio_handler_set_priority+0x6c>)
  40078a:	4798      	blx	r3
	pio_get_interrupt_status(p_pio);
  40078c:	4630      	mov	r0, r6
  40078e:	4b15      	ldr	r3, [pc, #84]	; (4007e4 <pio_handler_set_priority+0x70>)
  400790:	4798      	blx	r3
  NVIC->ICER[((uint32_t)(IRQn) >> 5)] = (1 << ((uint32_t)(IRQn) & 0x1F)); /* disable interrupt */
  400792:	fa5f fe85 	uxtb.w	lr, r5
  400796:	f00e 031f 	and.w	r3, lr, #31
  40079a:	2201      	movs	r2, #1
  40079c:	fa02 f303 	lsl.w	r3, r2, r3
  4007a0:	0968      	lsrs	r0, r5, #5
  4007a2:	4911      	ldr	r1, [pc, #68]	; (4007e8 <pio_handler_set_priority+0x74>)
  4007a4:	eb01 0280 	add.w	r2, r1, r0, lsl #2
  4007a8:	f8c2 3080 	str.w	r3, [r2, #128]	; 0x80
  NVIC->ICPR[((uint32_t)(IRQn) >> 5)] = (1 << ((uint32_t)(IRQn) & 0x1F)); /* Clear pending interrupt */
  4007ac:	f8c2 3180 	str.w	r3, [r2, #384]	; 0x180
  if(IRQn < 0) {
  4007b0:	2d00      	cmp	r5, #0
  4007b2:	db0a      	blt.n	4007ca <pio_handler_set_priority+0x56>
    NVIC->IP[(uint32_t)(IRQn)]            = ((priority << (8 - __NVIC_PRIO_BITS)) & 0xff); } /* set Priority for device specific Interrupts  */
  4007b4:	0164      	lsls	r4, r4, #5
  4007b6:	b2e4      	uxtb	r4, r4
  4007b8:	4a0c      	ldr	r2, [pc, #48]	; (4007ec <pio_handler_set_priority+0x78>)
  4007ba:	5554      	strb	r4, [r2, r5]
  NVIC->ISER[(uint32_t)((int32_t)IRQn) >> 5] = (uint32_t)(1 << ((uint32_t)((int32_t)IRQn) & (uint32_t)0x1F)); /* enable interrupt */
  4007bc:	f841 3020 	str.w	r3, [r1, r0, lsl #2]
	NVIC_DisableIRQ(ul_irqn);
	NVIC_ClearPendingIRQ(ul_irqn);
	NVIC_SetPriority(ul_irqn, ul_priority);
	NVIC_EnableIRQ(ul_irqn);
	pio_enable_interrupt(p_pio, bitmask);
  4007c0:	4639      	mov	r1, r7
  4007c2:	4630      	mov	r0, r6
  4007c4:	4b0a      	ldr	r3, [pc, #40]	; (4007f0 <pio_handler_set_priority+0x7c>)
  4007c6:	4798      	blx	r3
  4007c8:	bdf8      	pop	{r3, r4, r5, r6, r7, pc}
    SCB->SHPR[((uint32_t)(IRQn) & 0xF)-4] = ((priority << (8 - __NVIC_PRIO_BITS)) & 0xff); } /* set Priority for Cortex-M  System Interrupts */
  4007ca:	f00e 0e0f 	and.w	lr, lr, #15
  4007ce:	0164      	lsls	r4, r4, #5
  4007d0:	b2e4      	uxtb	r4, r4
  4007d2:	4a08      	ldr	r2, [pc, #32]	; (4007f4 <pio_handler_set_priority+0x80>)
  4007d4:	f802 400e 	strb.w	r4, [r2, lr]
  4007d8:	e7f0      	b.n	4007bc <pio_handler_set_priority+0x48>
  4007da:	bf00      	nop
  4007dc:	0040064d 	.word	0x0040064d
  4007e0:	00400645 	.word	0x00400645
  4007e4:	00400649 	.word	0x00400649
  4007e8:	e000e100 	.word	0xe000e100
  4007ec:	e000e400 	.word	0xe000e400
  4007f0:	00400641 	.word	0x00400641
  4007f4:	e000ed14 	.word	0xe000ed14

004007f8 <pmc_mck_set_division>:
 *
 * \param ul_div Division value.
 */
void pmc_mck_set_division(uint32_t ul_div)
{
	switch (ul_div) {
  4007f8:	2803      	cmp	r0, #3
  4007fa:	d011      	beq.n	400820 <pmc_mck_set_division+0x28>
  4007fc:	2804      	cmp	r0, #4
  4007fe:	d012      	beq.n	400826 <pmc_mck_set_division+0x2e>
		case 1:
			ul_div = PMC_MCKR_MDIV_EQ_PCK;
  400800:	2802      	cmp	r0, #2
  400802:	bf0c      	ite	eq
  400804:	f44f 7180 	moveq.w	r1, #256	; 0x100
  400808:	2100      	movne	r1, #0
		default:
			ul_div = PMC_MCKR_MDIV_EQ_PCK;
			break;
	}
	PMC->PMC_MCKR =
			(PMC->PMC_MCKR & (~PMC_MCKR_MDIV_Msk)) | ul_div;
  40080a:	4a08      	ldr	r2, [pc, #32]	; (40082c <pmc_mck_set_division+0x34>)
  40080c:	6b13      	ldr	r3, [r2, #48]	; 0x30
  40080e:	f423 7340 	bic.w	r3, r3, #768	; 0x300
  400812:	430b      	orrs	r3, r1
	PMC->PMC_MCKR =
  400814:	6313      	str	r3, [r2, #48]	; 0x30
	while (!(PMC->PMC_SR & PMC_SR_MCKRDY));
  400816:	6e93      	ldr	r3, [r2, #104]	; 0x68
  400818:	f013 0f08 	tst.w	r3, #8
  40081c:	d0fb      	beq.n	400816 <pmc_mck_set_division+0x1e>
}
  40081e:	4770      	bx	lr
			ul_div = PMC_MCKR_MDIV_PCK_DIV3;
  400820:	f44f 7140 	mov.w	r1, #768	; 0x300
			break;
  400824:	e7f1      	b.n	40080a <pmc_mck_set_division+0x12>
			ul_div = PMC_MCKR_MDIV_PCK_DIV4;
  400826:	f44f 7100 	mov.w	r1, #512	; 0x200
			break;
  40082a:	e7ee      	b.n	40080a <pmc_mck_set_division+0x12>
  40082c:	400e0600 	.word	0x400e0600

00400830 <pmc_switch_mck_to_pllack>:
 */
uint32_t pmc_switch_mck_to_pllack(uint32_t ul_pres)
{
	uint32_t ul_timeout;

	PMC->PMC_MCKR = (PMC->PMC_MCKR & (~PMC_MCKR_PRES_Msk)) | ul_pres;
  400830:	4a17      	ldr	r2, [pc, #92]	; (400890 <pmc_switch_mck_to_pllack+0x60>)
  400832:	6b13      	ldr	r3, [r2, #48]	; 0x30
  400834:	f023 0370 	bic.w	r3, r3, #112	; 0x70
  400838:	4318      	orrs	r0, r3
  40083a:	6310      	str	r0, [r2, #48]	; 0x30
	for (ul_timeout = PMC_TIMEOUT; !(PMC->PMC_SR & PMC_SR_MCKRDY);
  40083c:	6e93      	ldr	r3, [r2, #104]	; 0x68
  40083e:	f013 0f08 	tst.w	r3, #8
  400842:	d10a      	bne.n	40085a <pmc_switch_mck_to_pllack+0x2a>
  400844:	f44f 5380 	mov.w	r3, #4096	; 0x1000
  400848:	4911      	ldr	r1, [pc, #68]	; (400890 <pmc_switch_mck_to_pllack+0x60>)
  40084a:	6e8a      	ldr	r2, [r1, #104]	; 0x68
  40084c:	f012 0f08 	tst.w	r2, #8
  400850:	d103      	bne.n	40085a <pmc_switch_mck_to_pllack+0x2a>
			--ul_timeout) {
		if (ul_timeout == 0) {
  400852:	3b01      	subs	r3, #1
  400854:	d1f9      	bne.n	40084a <pmc_switch_mck_to_pllack+0x1a>
			return 1;
  400856:	2001      	movs	r0, #1
  400858:	4770      	bx	lr
		}
	}

	PMC->PMC_MCKR = (PMC->PMC_MCKR & (~PMC_MCKR_CSS_Msk)) |
  40085a:	4a0d      	ldr	r2, [pc, #52]	; (400890 <pmc_switch_mck_to_pllack+0x60>)
  40085c:	6b13      	ldr	r3, [r2, #48]	; 0x30
  40085e:	f023 0303 	bic.w	r3, r3, #3
  400862:	f043 0302 	orr.w	r3, r3, #2
  400866:	6313      	str	r3, [r2, #48]	; 0x30
			PMC_MCKR_CSS_PLLA_CLK;

	for (ul_timeout = PMC_TIMEOUT; !(PMC->PMC_SR & PMC_SR_MCKRDY);
  400868:	6e93      	ldr	r3, [r2, #104]	; 0x68
  40086a:	f013 0f08 	tst.w	r3, #8
  40086e:	d10a      	bne.n	400886 <pmc_switch_mck_to_pllack+0x56>
  400870:	f44f 5380 	mov.w	r3, #4096	; 0x1000
  400874:	4906      	ldr	r1, [pc, #24]	; (400890 <pmc_switch_mck_to_pllack+0x60>)
  400876:	6e8a      	ldr	r2, [r1, #104]	; 0x68
  400878:	f012 0f08 	tst.w	r2, #8
  40087c:	d105      	bne.n	40088a <pmc_switch_mck_to_pllack+0x5a>
			--ul_timeout) {
		if (ul_timeout == 0) {
  40087e:	3b01      	subs	r3, #1
  400880:	d1f9      	bne.n	400876 <pmc_switch_mck_to_pllack+0x46>
			return 1;
  400882:	2001      	movs	r0, #1
		}
	}

	return 0;
}
  400884:	4770      	bx	lr
	return 0;
  400886:	2000      	movs	r0, #0
  400888:	4770      	bx	lr
  40088a:	2000      	movs	r0, #0
  40088c:	4770      	bx	lr
  40088e:	bf00      	nop
  400890:	400e0600 	.word	0x400e0600

00400894 <pmc_switch_mainck_to_xtal>:
 */
void pmc_switch_mainck_to_xtal(uint32_t ul_bypass,
		uint32_t ul_xtal_startup_time)
{
	/* Enable Main Xtal oscillator */
	if (ul_bypass) {
  400894:	b9a0      	cbnz	r0, 4008c0 <pmc_switch_mainck_to_xtal+0x2c>
		PMC->CKGR_MOR = (PMC->CKGR_MOR & ~CKGR_MOR_MOSCXTEN) |
				CKGR_MOR_KEY_PASSWD | CKGR_MOR_MOSCXTBY |
				CKGR_MOR_MOSCSEL;
	} else {
		PMC->CKGR_MOR = (PMC->CKGR_MOR & ~CKGR_MOR_MOSCXTBY) |
  400896:	480e      	ldr	r0, [pc, #56]	; (4008d0 <pmc_switch_mainck_to_xtal+0x3c>)
  400898:	6a03      	ldr	r3, [r0, #32]
				CKGR_MOR_KEY_PASSWD | CKGR_MOR_MOSCXTEN |
				CKGR_MOR_MOSCXTST(ul_xtal_startup_time);
  40089a:	0209      	lsls	r1, r1, #8
  40089c:	b289      	uxth	r1, r1
				CKGR_MOR_KEY_PASSWD | CKGR_MOR_MOSCXTEN |
  40089e:	4a0d      	ldr	r2, [pc, #52]	; (4008d4 <pmc_switch_mainck_to_xtal+0x40>)
  4008a0:	401a      	ands	r2, r3
  4008a2:	4b0d      	ldr	r3, [pc, #52]	; (4008d8 <pmc_switch_mainck_to_xtal+0x44>)
  4008a4:	4313      	orrs	r3, r2
  4008a6:	4319      	orrs	r1, r3
		PMC->CKGR_MOR = (PMC->CKGR_MOR & ~CKGR_MOR_MOSCXTBY) |
  4008a8:	6201      	str	r1, [r0, #32]
		/* Wait the Xtal to stabilize */
		while (!(PMC->PMC_SR & PMC_SR_MOSCXTS));
  4008aa:	4602      	mov	r2, r0
  4008ac:	6e93      	ldr	r3, [r2, #104]	; 0x68
  4008ae:	f013 0f01 	tst.w	r3, #1
  4008b2:	d0fb      	beq.n	4008ac <pmc_switch_mainck_to_xtal+0x18>

		PMC->CKGR_MOR |= CKGR_MOR_KEY_PASSWD | CKGR_MOR_MOSCSEL;
  4008b4:	4a06      	ldr	r2, [pc, #24]	; (4008d0 <pmc_switch_mainck_to_xtal+0x3c>)
  4008b6:	6a11      	ldr	r1, [r2, #32]
  4008b8:	4b08      	ldr	r3, [pc, #32]	; (4008dc <pmc_switch_mainck_to_xtal+0x48>)
  4008ba:	430b      	orrs	r3, r1
  4008bc:	6213      	str	r3, [r2, #32]
  4008be:	4770      	bx	lr
		PMC->CKGR_MOR = (PMC->CKGR_MOR & ~CKGR_MOR_MOSCXTEN) |
  4008c0:	4903      	ldr	r1, [pc, #12]	; (4008d0 <pmc_switch_mainck_to_xtal+0x3c>)
  4008c2:	6a0b      	ldr	r3, [r1, #32]
				CKGR_MOR_KEY_PASSWD | CKGR_MOR_MOSCXTBY |
  4008c4:	4a06      	ldr	r2, [pc, #24]	; (4008e0 <pmc_switch_mainck_to_xtal+0x4c>)
  4008c6:	401a      	ands	r2, r3
  4008c8:	4b06      	ldr	r3, [pc, #24]	; (4008e4 <pmc_switch_mainck_to_xtal+0x50>)
  4008ca:	4313      	orrs	r3, r2
		PMC->CKGR_MOR = (PMC->CKGR_MOR & ~CKGR_MOR_MOSCXTEN) |
  4008cc:	620b      	str	r3, [r1, #32]
  4008ce:	4770      	bx	lr
  4008d0:	400e0600 	.word	0x400e0600
  4008d4:	ffc8fffc 	.word	0xffc8fffc
  4008d8:	00370001 	.word	0x00370001
  4008dc:	01370000 	.word	0x01370000
  4008e0:	fec8fffc 	.word	0xfec8fffc
  4008e4:	01370002 	.word	0x01370002

004008e8 <pmc_osc_is_ready_mainck>:
 * \retval 1 Xtal is ready.
 * \retval 0 Xtal is not ready.
 */
uint32_t pmc_osc_is_ready_mainck(void)
{
	return PMC->PMC_SR & PMC_SR_MOSCSELS;
  4008e8:	4b02      	ldr	r3, [pc, #8]	; (4008f4 <pmc_osc_is_ready_mainck+0xc>)
  4008ea:	6e98      	ldr	r0, [r3, #104]	; 0x68
}
  4008ec:	f400 3080 	and.w	r0, r0, #65536	; 0x10000
  4008f0:	4770      	bx	lr
  4008f2:	bf00      	nop
  4008f4:	400e0600 	.word	0x400e0600

004008f8 <pmc_disable_pllack>:
void pmc_disable_pllack(void)
{
#if (SAM4C || SAM4CM || SAM4CP || SAMG)
	PMC->CKGR_PLLAR = CKGR_PLLAR_MULA(0);
#else
	PMC->CKGR_PLLAR = CKGR_PLLAR_ONE | CKGR_PLLAR_MULA(0);
  4008f8:	f04f 5200 	mov.w	r2, #536870912	; 0x20000000
  4008fc:	4b01      	ldr	r3, [pc, #4]	; (400904 <pmc_disable_pllack+0xc>)
  4008fe:	629a      	str	r2, [r3, #40]	; 0x28
  400900:	4770      	bx	lr
  400902:	bf00      	nop
  400904:	400e0600 	.word	0x400e0600

00400908 <pmc_is_locked_pllack>:
 * \retval 0 Not locked.
 * \retval 1 Locked.
 */
uint32_t pmc_is_locked_pllack(void)
{
	return (PMC->PMC_SR & PMC_SR_LOCKA);
  400908:	4b02      	ldr	r3, [pc, #8]	; (400914 <pmc_is_locked_pllack+0xc>)
  40090a:	6e98      	ldr	r0, [r3, #104]	; 0x68
}
  40090c:	f000 0002 	and.w	r0, r0, #2
  400910:	4770      	bx	lr
  400912:	bf00      	nop
  400914:	400e0600 	.word	0x400e0600

00400918 <pmc_enable_periph_clk>:
 */
uint32_t pmc_enable_periph_clk(uint32_t ul_id)
{
#if defined(REG_PMC_PCR) && !SAMG55
	uint32_t pcr;
	PMC->PMC_PCR = ul_id & 0x7F;
  400918:	f000 007f 	and.w	r0, r0, #127	; 0x7f
  40091c:	4b05      	ldr	r3, [pc, #20]	; (400934 <pmc_enable_periph_clk+0x1c>)
  40091e:	f8c3 010c 	str.w	r0, [r3, #268]	; 0x10c
	pcr = PMC->PMC_PCR | PMC_PCR_EN | PMC_PCR_CMD;
  400922:	f8d3 210c 	ldr.w	r2, [r3, #268]	; 0x10c
  400926:	f042 2210 	orr.w	r2, r2, #268439552	; 0x10001000
	PMC->PMC_PCR = pcr;
  40092a:	f8c3 210c 	str.w	r2, [r3, #268]	; 0x10c
#endif
	}

	return 0;
#endif /* defined(REG_PMC_PCR) && !SAMG55 */
}
  40092e:	2000      	movs	r0, #0
  400930:	4770      	bx	lr
  400932:	bf00      	nop
  400934:	400e0600 	.word	0x400e0600

00400938 <Dummy_Handler>:

/**
 * \brief Default interrupt handler for unused IRQs.
 */
void Dummy_Handler(void)
{
  400938:	e7fe      	b.n	400938 <Dummy_Handler>
	...

0040093c <Reset_Handler>:
{
  40093c:	b500      	push	{lr}
  40093e:	b083      	sub	sp, #12
        if (pSrc != pDest) {
  400940:	4b25      	ldr	r3, [pc, #148]	; (4009d8 <Reset_Handler+0x9c>)
  400942:	4a26      	ldr	r2, [pc, #152]	; (4009dc <Reset_Handler+0xa0>)
  400944:	429a      	cmp	r2, r3
  400946:	d010      	beq.n	40096a <Reset_Handler+0x2e>
                for (; pDest < &_erelocate;) {
  400948:	4b25      	ldr	r3, [pc, #148]	; (4009e0 <Reset_Handler+0xa4>)
  40094a:	4a23      	ldr	r2, [pc, #140]	; (4009d8 <Reset_Handler+0x9c>)
  40094c:	429a      	cmp	r2, r3
  40094e:	d20c      	bcs.n	40096a <Reset_Handler+0x2e>
  400950:	3b01      	subs	r3, #1
  400952:	1a9b      	subs	r3, r3, r2
  400954:	f023 0303 	bic.w	r3, r3, #3
  400958:	3304      	adds	r3, #4
  40095a:	4413      	add	r3, r2
  40095c:	491f      	ldr	r1, [pc, #124]	; (4009dc <Reset_Handler+0xa0>)
                        *pDest++ = *pSrc++;
  40095e:	f851 0b04 	ldr.w	r0, [r1], #4
  400962:	f842 0b04 	str.w	r0, [r2], #4
                for (; pDest < &_erelocate;) {
  400966:	429a      	cmp	r2, r3
  400968:	d1f9      	bne.n	40095e <Reset_Handler+0x22>
        for (pDest = &_szero; pDest < &_ezero;) {
  40096a:	4b1e      	ldr	r3, [pc, #120]	; (4009e4 <Reset_Handler+0xa8>)
  40096c:	4a1e      	ldr	r2, [pc, #120]	; (4009e8 <Reset_Handler+0xac>)
  40096e:	429a      	cmp	r2, r3
  400970:	d20a      	bcs.n	400988 <Reset_Handler+0x4c>
  400972:	3b01      	subs	r3, #1
  400974:	1a9b      	subs	r3, r3, r2
  400976:	f023 0303 	bic.w	r3, r3, #3
  40097a:	3304      	adds	r3, #4
  40097c:	4413      	add	r3, r2
                *pDest++ = 0;
  40097e:	2100      	movs	r1, #0
  400980:	f842 1b04 	str.w	r1, [r2], #4
        for (pDest = &_szero; pDest < &_ezero;) {
  400984:	4293      	cmp	r3, r2
  400986:	d1fb      	bne.n	400980 <Reset_Handler+0x44>
        SCB->VTOR = ((uint32_t) pSrc & SCB_VTOR_TBLOFF_Msk);
  400988:	4a18      	ldr	r2, [pc, #96]	; (4009ec <Reset_Handler+0xb0>)
  40098a:	4b19      	ldr	r3, [pc, #100]	; (4009f0 <Reset_Handler+0xb4>)
  40098c:	f023 037f 	bic.w	r3, r3, #127	; 0x7f
  400990:	6093      	str	r3, [r2, #8]
 */
__attribute__( ( always_inline ) ) __STATIC_INLINE uint32_t __get_PRIMASK(void)
{
  uint32_t result;

  __ASM volatile ("MRS %0, primask" : "=r" (result) );
  400992:	f3ef 8310 	mrs	r3, PRIMASK
static volatile uint32_t cpu_irq_critical_section_counter;
static volatile bool     cpu_irq_prev_interrupt_state;

static inline irqflags_t cpu_irq_save(void)
{
	volatile irqflags_t flags = cpu_irq_is_enabled();
  400996:	fab3 f383 	clz	r3, r3
  40099a:	095b      	lsrs	r3, r3, #5
  40099c:	9301      	str	r3, [sp, #4]
  __ASM volatile ("cpsid i" : : : "memory");
  40099e:	b672      	cpsid	i
  __ASM volatile ("dmb");
  4009a0:	f3bf 8f5f 	dmb	sy
	cpu_irq_disable();
  4009a4:	2200      	movs	r2, #0
  4009a6:	4b13      	ldr	r3, [pc, #76]	; (4009f4 <Reset_Handler+0xb8>)
  4009a8:	701a      	strb	r2, [r3, #0]
	return flags;
  4009aa:	9901      	ldr	r1, [sp, #4]
 */
__always_inline static void fpu_enable(void)
{
	irqflags_t flags;
	flags = cpu_irq_save();
	REG_CPACR |=  (0xFu << 20);
  4009ac:	4a12      	ldr	r2, [pc, #72]	; (4009f8 <Reset_Handler+0xbc>)
  4009ae:	6813      	ldr	r3, [r2, #0]
  4009b0:	f443 0370 	orr.w	r3, r3, #15728640	; 0xf00000
  4009b4:	6013      	str	r3, [r2, #0]
  __ASM volatile ("dsb");
  4009b6:	f3bf 8f4f 	dsb	sy
  __ASM volatile ("isb");
  4009ba:	f3bf 8f6f 	isb	sy
	return (flags);
}

static inline void cpu_irq_restore(irqflags_t flags)
{
	if (cpu_irq_is_enabled_flags(flags))
  4009be:	b129      	cbz	r1, 4009cc <Reset_Handler+0x90>
		cpu_irq_enable();
  4009c0:	2201      	movs	r2, #1
  4009c2:	4b0c      	ldr	r3, [pc, #48]	; (4009f4 <Reset_Handler+0xb8>)
  4009c4:	701a      	strb	r2, [r3, #0]
  __ASM volatile ("dmb");
  4009c6:	f3bf 8f5f 	dmb	sy
  __ASM volatile ("cpsie i" : : : "memory");
  4009ca:	b662      	cpsie	i
        __libc_init_array();
  4009cc:	4b0b      	ldr	r3, [pc, #44]	; (4009fc <Reset_Handler+0xc0>)
  4009ce:	4798      	blx	r3
        main();
  4009d0:	4b0b      	ldr	r3, [pc, #44]	; (400a00 <Reset_Handler+0xc4>)
  4009d2:	4798      	blx	r3
  4009d4:	e7fe      	b.n	4009d4 <Reset_Handler+0x98>
  4009d6:	bf00      	nop
  4009d8:	20400000 	.word	0x20400000
  4009dc:	00402dcc 	.word	0x00402dcc
  4009e0:	2040084c 	.word	0x2040084c
  4009e4:	20400954 	.word	0x20400954
  4009e8:	2040084c 	.word	0x2040084c
  4009ec:	e000ed00 	.word	0xe000ed00
  4009f0:	00400000 	.word	0x00400000
  4009f4:	20400000 	.word	0x20400000
  4009f8:	e000ed88 	.word	0xe000ed88
  4009fc:	00401031 	.word	0x00401031
  400a00:	00400e9d 	.word	0x00400e9d

00400a04 <SystemCoreClockUpdate>:
}

void SystemCoreClockUpdate( void )
{
  /* Determine clock frequency according to clock register values */
  switch (PMC->PMC_MCKR & (uint32_t) PMC_MCKR_CSS_Msk)
  400a04:	4b3b      	ldr	r3, [pc, #236]	; (400af4 <SystemCoreClockUpdate+0xf0>)
  400a06:	6b1b      	ldr	r3, [r3, #48]	; 0x30
  400a08:	f003 0303 	and.w	r3, r3, #3
  400a0c:	2b01      	cmp	r3, #1
  400a0e:	d01d      	beq.n	400a4c <SystemCoreClockUpdate+0x48>
  400a10:	b183      	cbz	r3, 400a34 <SystemCoreClockUpdate+0x30>
  400a12:	2b02      	cmp	r3, #2
  400a14:	d036      	beq.n	400a84 <SystemCoreClockUpdate+0x80>

    default:
    break;
  }

  if ( (PMC->PMC_MCKR & PMC_MCKR_PRES_Msk) == PMC_MCKR_PRES_CLK_3 )
  400a16:	4b37      	ldr	r3, [pc, #220]	; (400af4 <SystemCoreClockUpdate+0xf0>)
  400a18:	6b1b      	ldr	r3, [r3, #48]	; 0x30
  400a1a:	f003 0370 	and.w	r3, r3, #112	; 0x70
  400a1e:	2b70      	cmp	r3, #112	; 0x70
  400a20:	d05f      	beq.n	400ae2 <SystemCoreClockUpdate+0xde>
  {
    SystemCoreClock /= 3U;
  }
  else
  {
    SystemCoreClock >>= ((PMC->PMC_MCKR & PMC_MCKR_PRES_Msk) >> PMC_MCKR_PRES_Pos);
  400a22:	4b34      	ldr	r3, [pc, #208]	; (400af4 <SystemCoreClockUpdate+0xf0>)
  400a24:	6b1a      	ldr	r2, [r3, #48]	; 0x30
  400a26:	4934      	ldr	r1, [pc, #208]	; (400af8 <SystemCoreClockUpdate+0xf4>)
  400a28:	f3c2 1202 	ubfx	r2, r2, #4, #3
  400a2c:	680b      	ldr	r3, [r1, #0]
  400a2e:	40d3      	lsrs	r3, r2
  400a30:	600b      	str	r3, [r1, #0]
  400a32:	4770      	bx	lr
      if ( SUPC->SUPC_SR & SUPC_SR_OSCSEL )
  400a34:	4b31      	ldr	r3, [pc, #196]	; (400afc <SystemCoreClockUpdate+0xf8>)
  400a36:	695b      	ldr	r3, [r3, #20]
  400a38:	f013 0f80 	tst.w	r3, #128	; 0x80
        SystemCoreClock = CHIP_FREQ_XTAL_32K;
  400a3c:	bf14      	ite	ne
  400a3e:	f44f 4200 	movne.w	r2, #32768	; 0x8000
        SystemCoreClock = CHIP_FREQ_SLCK_RC;
  400a42:	f44f 42fa 	moveq.w	r2, #32000	; 0x7d00
  400a46:	4b2c      	ldr	r3, [pc, #176]	; (400af8 <SystemCoreClockUpdate+0xf4>)
  400a48:	601a      	str	r2, [r3, #0]
  400a4a:	e7e4      	b.n	400a16 <SystemCoreClockUpdate+0x12>
      if ( PMC->CKGR_MOR & CKGR_MOR_MOSCSEL )
  400a4c:	4b29      	ldr	r3, [pc, #164]	; (400af4 <SystemCoreClockUpdate+0xf0>)
  400a4e:	6a1b      	ldr	r3, [r3, #32]
  400a50:	f013 7f80 	tst.w	r3, #16777216	; 0x1000000
  400a54:	d003      	beq.n	400a5e <SystemCoreClockUpdate+0x5a>
        SystemCoreClock = CHIP_FREQ_XTAL_12M;
  400a56:	4a2a      	ldr	r2, [pc, #168]	; (400b00 <SystemCoreClockUpdate+0xfc>)
  400a58:	4b27      	ldr	r3, [pc, #156]	; (400af8 <SystemCoreClockUpdate+0xf4>)
  400a5a:	601a      	str	r2, [r3, #0]
  400a5c:	e7db      	b.n	400a16 <SystemCoreClockUpdate+0x12>
        SystemCoreClock = CHIP_FREQ_MAINCK_RC_4MHZ;
  400a5e:	4a29      	ldr	r2, [pc, #164]	; (400b04 <SystemCoreClockUpdate+0x100>)
  400a60:	4b25      	ldr	r3, [pc, #148]	; (400af8 <SystemCoreClockUpdate+0xf4>)
  400a62:	601a      	str	r2, [r3, #0]
        switch ( PMC->CKGR_MOR & CKGR_MOR_MOSCRCF_Msk )
  400a64:	4b23      	ldr	r3, [pc, #140]	; (400af4 <SystemCoreClockUpdate+0xf0>)
  400a66:	6a1b      	ldr	r3, [r3, #32]
  400a68:	f003 0370 	and.w	r3, r3, #112	; 0x70
  400a6c:	2b10      	cmp	r3, #16
  400a6e:	d005      	beq.n	400a7c <SystemCoreClockUpdate+0x78>
  400a70:	2b20      	cmp	r3, #32
  400a72:	d1d0      	bne.n	400a16 <SystemCoreClockUpdate+0x12>
            SystemCoreClock *= 3U;
  400a74:	4a22      	ldr	r2, [pc, #136]	; (400b00 <SystemCoreClockUpdate+0xfc>)
  400a76:	4b20      	ldr	r3, [pc, #128]	; (400af8 <SystemCoreClockUpdate+0xf4>)
  400a78:	601a      	str	r2, [r3, #0]
          break;
  400a7a:	e7cc      	b.n	400a16 <SystemCoreClockUpdate+0x12>
            SystemCoreClock *= 2U;
  400a7c:	4a22      	ldr	r2, [pc, #136]	; (400b08 <SystemCoreClockUpdate+0x104>)
  400a7e:	4b1e      	ldr	r3, [pc, #120]	; (400af8 <SystemCoreClockUpdate+0xf4>)
  400a80:	601a      	str	r2, [r3, #0]
          break;
  400a82:	e7c8      	b.n	400a16 <SystemCoreClockUpdate+0x12>
      if ( PMC->CKGR_MOR & CKGR_MOR_MOSCSEL )
  400a84:	4b1b      	ldr	r3, [pc, #108]	; (400af4 <SystemCoreClockUpdate+0xf0>)
  400a86:	6a1b      	ldr	r3, [r3, #32]
  400a88:	f013 7f80 	tst.w	r3, #16777216	; 0x1000000
  400a8c:	d016      	beq.n	400abc <SystemCoreClockUpdate+0xb8>
        SystemCoreClock = CHIP_FREQ_XTAL_12M ;
  400a8e:	4a1c      	ldr	r2, [pc, #112]	; (400b00 <SystemCoreClockUpdate+0xfc>)
  400a90:	4b19      	ldr	r3, [pc, #100]	; (400af8 <SystemCoreClockUpdate+0xf4>)
  400a92:	601a      	str	r2, [r3, #0]
      if ( (uint32_t) (PMC->PMC_MCKR & (uint32_t) PMC_MCKR_CSS_Msk) == PMC_MCKR_CSS_PLLA_CLK )
  400a94:	4b17      	ldr	r3, [pc, #92]	; (400af4 <SystemCoreClockUpdate+0xf0>)
  400a96:	6b1b      	ldr	r3, [r3, #48]	; 0x30
  400a98:	f003 0303 	and.w	r3, r3, #3
  400a9c:	2b02      	cmp	r3, #2
  400a9e:	d1ba      	bne.n	400a16 <SystemCoreClockUpdate+0x12>
        SystemCoreClock *= ((((PMC->CKGR_PLLAR) & CKGR_PLLAR_MULA_Msk) >> CKGR_PLLAR_MULA_Pos) + 1U);
  400aa0:	4a14      	ldr	r2, [pc, #80]	; (400af4 <SystemCoreClockUpdate+0xf0>)
  400aa2:	6a91      	ldr	r1, [r2, #40]	; 0x28
        SystemCoreClock /= ((((PMC->CKGR_PLLAR) & CKGR_PLLAR_DIVA_Msk) >> CKGR_PLLAR_DIVA_Pos));
  400aa4:	6a92      	ldr	r2, [r2, #40]	; 0x28
  400aa6:	4814      	ldr	r0, [pc, #80]	; (400af8 <SystemCoreClockUpdate+0xf4>)
        SystemCoreClock *= ((((PMC->CKGR_PLLAR) & CKGR_PLLAR_MULA_Msk) >> CKGR_PLLAR_MULA_Pos) + 1U);
  400aa8:	f3c1 410a 	ubfx	r1, r1, #16, #11
  400aac:	6803      	ldr	r3, [r0, #0]
  400aae:	fb01 3303 	mla	r3, r1, r3, r3
        SystemCoreClock /= ((((PMC->CKGR_PLLAR) & CKGR_PLLAR_DIVA_Msk) >> CKGR_PLLAR_DIVA_Pos));
  400ab2:	b2d2      	uxtb	r2, r2
  400ab4:	fbb3 f3f2 	udiv	r3, r3, r2
  400ab8:	6003      	str	r3, [r0, #0]
  400aba:	e7ac      	b.n	400a16 <SystemCoreClockUpdate+0x12>
        SystemCoreClock = CHIP_FREQ_MAINCK_RC_4MHZ;
  400abc:	4a11      	ldr	r2, [pc, #68]	; (400b04 <SystemCoreClockUpdate+0x100>)
  400abe:	4b0e      	ldr	r3, [pc, #56]	; (400af8 <SystemCoreClockUpdate+0xf4>)
  400ac0:	601a      	str	r2, [r3, #0]
        switch ( PMC->CKGR_MOR & CKGR_MOR_MOSCRCF_Msk )
  400ac2:	4b0c      	ldr	r3, [pc, #48]	; (400af4 <SystemCoreClockUpdate+0xf0>)
  400ac4:	6a1b      	ldr	r3, [r3, #32]
  400ac6:	f003 0370 	and.w	r3, r3, #112	; 0x70
  400aca:	2b10      	cmp	r3, #16
  400acc:	d005      	beq.n	400ada <SystemCoreClockUpdate+0xd6>
  400ace:	2b20      	cmp	r3, #32
  400ad0:	d1e0      	bne.n	400a94 <SystemCoreClockUpdate+0x90>
            SystemCoreClock *= 3U;
  400ad2:	4a0b      	ldr	r2, [pc, #44]	; (400b00 <SystemCoreClockUpdate+0xfc>)
  400ad4:	4b08      	ldr	r3, [pc, #32]	; (400af8 <SystemCoreClockUpdate+0xf4>)
  400ad6:	601a      	str	r2, [r3, #0]
          break;
  400ad8:	e7dc      	b.n	400a94 <SystemCoreClockUpdate+0x90>
            SystemCoreClock *= 2U;
  400ada:	4a0b      	ldr	r2, [pc, #44]	; (400b08 <SystemCoreClockUpdate+0x104>)
  400adc:	4b06      	ldr	r3, [pc, #24]	; (400af8 <SystemCoreClockUpdate+0xf4>)
  400ade:	601a      	str	r2, [r3, #0]
          break;
  400ae0:	e7d8      	b.n	400a94 <SystemCoreClockUpdate+0x90>
    SystemCoreClock /= 3U;
  400ae2:	4a05      	ldr	r2, [pc, #20]	; (400af8 <SystemCoreClockUpdate+0xf4>)
  400ae4:	6813      	ldr	r3, [r2, #0]
  400ae6:	4909      	ldr	r1, [pc, #36]	; (400b0c <SystemCoreClockUpdate+0x108>)
  400ae8:	fba1 1303 	umull	r1, r3, r1, r3
  400aec:	085b      	lsrs	r3, r3, #1
  400aee:	6013      	str	r3, [r2, #0]
  400af0:	4770      	bx	lr
  400af2:	bf00      	nop
  400af4:	400e0600 	.word	0x400e0600
  400af8:	20400004 	.word	0x20400004
  400afc:	400e1810 	.word	0x400e1810
  400b00:	00b71b00 	.word	0x00b71b00
  400b04:	003d0900 	.word	0x003d0900
  400b08:	007a1200 	.word	0x007a1200
  400b0c:	aaaaaaab 	.word	0xaaaaaaab

00400b10 <system_init_flash>:
 * Initialize flash.
 */
void system_init_flash( uint32_t ul_clk )
{
  /* Set FWS for embedded Flash access according to operating frequency */
  if ( ul_clk < CHIP_FREQ_FWS_0 )
  400b10:	4b16      	ldr	r3, [pc, #88]	; (400b6c <system_init_flash+0x5c>)
  400b12:	4298      	cmp	r0, r3
  400b14:	d913      	bls.n	400b3e <system_init_flash+0x2e>
  {
    EFC->EEFC_FMR = EEFC_FMR_FWS(0)|EEFC_FMR_CLOE;
  }
  else
  {
    if (ul_clk < CHIP_FREQ_FWS_1)
  400b16:	4b16      	ldr	r3, [pc, #88]	; (400b70 <system_init_flash+0x60>)
  400b18:	4298      	cmp	r0, r3
  400b1a:	d915      	bls.n	400b48 <system_init_flash+0x38>
    {
      EFC->EEFC_FMR = EEFC_FMR_FWS(1)|EEFC_FMR_CLOE;
    }
    else
    {
      if (ul_clk < CHIP_FREQ_FWS_2)
  400b1c:	4b15      	ldr	r3, [pc, #84]	; (400b74 <system_init_flash+0x64>)
  400b1e:	4298      	cmp	r0, r3
  400b20:	d916      	bls.n	400b50 <system_init_flash+0x40>
      {
        EFC->EEFC_FMR = EEFC_FMR_FWS(2)|EEFC_FMR_CLOE;
      }
      else
      {
        if ( ul_clk < CHIP_FREQ_FWS_3 )
  400b22:	4b15      	ldr	r3, [pc, #84]	; (400b78 <system_init_flash+0x68>)
  400b24:	4298      	cmp	r0, r3
  400b26:	d917      	bls.n	400b58 <system_init_flash+0x48>
        {
          EFC->EEFC_FMR = EEFC_FMR_FWS(3)|EEFC_FMR_CLOE;
        }
        else
        {
          if ( ul_clk < CHIP_FREQ_FWS_4 )
  400b28:	4b14      	ldr	r3, [pc, #80]	; (400b7c <system_init_flash+0x6c>)
  400b2a:	4298      	cmp	r0, r3
  400b2c:	d918      	bls.n	400b60 <system_init_flash+0x50>
          {
            EFC->EEFC_FMR = EEFC_FMR_FWS(4)|EEFC_FMR_CLOE;
          }
          else
          {
            if ( ul_clk < CHIP_FREQ_FWS_5 )
  400b2e:	4b14      	ldr	r3, [pc, #80]	; (400b80 <system_init_flash+0x70>)
  400b30:	4298      	cmp	r0, r3
            {
              EFC->EEFC_FMR = EEFC_FMR_FWS(5)|EEFC_FMR_CLOE;
  400b32:	bf94      	ite	ls
  400b34:	4a13      	ldrls	r2, [pc, #76]	; (400b84 <system_init_flash+0x74>)
            }
            else
            {
              EFC->EEFC_FMR = EEFC_FMR_FWS(6)|EEFC_FMR_CLOE;
  400b36:	4a14      	ldrhi	r2, [pc, #80]	; (400b88 <system_init_flash+0x78>)
  400b38:	4b14      	ldr	r3, [pc, #80]	; (400b8c <system_init_flash+0x7c>)
  400b3a:	601a      	str	r2, [r3, #0]
  400b3c:	4770      	bx	lr
    EFC->EEFC_FMR = EEFC_FMR_FWS(0)|EEFC_FMR_CLOE;
  400b3e:	f04f 6280 	mov.w	r2, #67108864	; 0x4000000
  400b42:	4b12      	ldr	r3, [pc, #72]	; (400b8c <system_init_flash+0x7c>)
  400b44:	601a      	str	r2, [r3, #0]
  400b46:	4770      	bx	lr
      EFC->EEFC_FMR = EEFC_FMR_FWS(1)|EEFC_FMR_CLOE;
  400b48:	4a11      	ldr	r2, [pc, #68]	; (400b90 <system_init_flash+0x80>)
  400b4a:	4b10      	ldr	r3, [pc, #64]	; (400b8c <system_init_flash+0x7c>)
  400b4c:	601a      	str	r2, [r3, #0]
  400b4e:	4770      	bx	lr
        EFC->EEFC_FMR = EEFC_FMR_FWS(2)|EEFC_FMR_CLOE;
  400b50:	4a10      	ldr	r2, [pc, #64]	; (400b94 <system_init_flash+0x84>)
  400b52:	4b0e      	ldr	r3, [pc, #56]	; (400b8c <system_init_flash+0x7c>)
  400b54:	601a      	str	r2, [r3, #0]
  400b56:	4770      	bx	lr
          EFC->EEFC_FMR = EEFC_FMR_FWS(3)|EEFC_FMR_CLOE;
  400b58:	4a0f      	ldr	r2, [pc, #60]	; (400b98 <system_init_flash+0x88>)
  400b5a:	4b0c      	ldr	r3, [pc, #48]	; (400b8c <system_init_flash+0x7c>)
  400b5c:	601a      	str	r2, [r3, #0]
  400b5e:	4770      	bx	lr
            EFC->EEFC_FMR = EEFC_FMR_FWS(4)|EEFC_FMR_CLOE;
  400b60:	f04f 2204 	mov.w	r2, #67109888	; 0x4000400
  400b64:	4b09      	ldr	r3, [pc, #36]	; (400b8c <system_init_flash+0x7c>)
  400b66:	601a      	str	r2, [r3, #0]
  400b68:	4770      	bx	lr
  400b6a:	bf00      	nop
  400b6c:	015ef3bf 	.word	0x015ef3bf
  400b70:	02bde77f 	.word	0x02bde77f
  400b74:	041cdb3f 	.word	0x041cdb3f
  400b78:	057bceff 	.word	0x057bceff
  400b7c:	06dac2bf 	.word	0x06dac2bf
  400b80:	0839b67f 	.word	0x0839b67f
  400b84:	04000500 	.word	0x04000500
  400b88:	04000600 	.word	0x04000600
  400b8c:	400e0c00 	.word	0x400e0c00
  400b90:	04000100 	.word	0x04000100
  400b94:	04000200 	.word	0x04000200
  400b98:	04000300 	.word	0x04000300

00400b9c <_sbrk>:
{
	static unsigned char *heap = NULL;
	unsigned char *prev_heap;
	int ramend = (int)&__ram_end__;

	if (heap == NULL) {
  400b9c:	4b0a      	ldr	r3, [pc, #40]	; (400bc8 <_sbrk+0x2c>)
  400b9e:	681b      	ldr	r3, [r3, #0]
  400ba0:	b153      	cbz	r3, 400bb8 <_sbrk+0x1c>
		heap = (unsigned char *)&_end;
	}
	prev_heap = heap;
  400ba2:	4b09      	ldr	r3, [pc, #36]	; (400bc8 <_sbrk+0x2c>)
  400ba4:	681b      	ldr	r3, [r3, #0]

	if (((int)prev_heap + incr) > ramend) {
  400ba6:	181a      	adds	r2, r3, r0
  400ba8:	4908      	ldr	r1, [pc, #32]	; (400bcc <_sbrk+0x30>)
  400baa:	4291      	cmp	r1, r2
  400bac:	db08      	blt.n	400bc0 <_sbrk+0x24>
		return (caddr_t) -1;	
	}

	heap += incr;
  400bae:	4610      	mov	r0, r2
  400bb0:	4a05      	ldr	r2, [pc, #20]	; (400bc8 <_sbrk+0x2c>)
  400bb2:	6010      	str	r0, [r2, #0]

	return (caddr_t) prev_heap;
  400bb4:	4618      	mov	r0, r3
  400bb6:	4770      	bx	lr
		heap = (unsigned char *)&_end;
  400bb8:	4a05      	ldr	r2, [pc, #20]	; (400bd0 <_sbrk+0x34>)
  400bba:	4b03      	ldr	r3, [pc, #12]	; (400bc8 <_sbrk+0x2c>)
  400bbc:	601a      	str	r2, [r3, #0]
  400bbe:	e7f0      	b.n	400ba2 <_sbrk+0x6>
		return (caddr_t) -1;	
  400bc0:	f04f 30ff 	mov.w	r0, #4294967295
}
  400bc4:	4770      	bx	lr
  400bc6:	bf00      	nop
  400bc8:	204008e0 	.word	0x204008e0
  400bcc:	2045fffc 	.word	0x2045fffc
  400bd0:	20402b58 	.word	0x20402b58

00400bd4 <_close>:
}

extern int _close(int file)
{
	return -1;
}
  400bd4:	f04f 30ff 	mov.w	r0, #4294967295
  400bd8:	4770      	bx	lr

00400bda <_fstat>:

extern int _fstat(int file, struct stat *st)
{
	st->st_mode = S_IFCHR;
  400bda:	f44f 5300 	mov.w	r3, #8192	; 0x2000
  400bde:	604b      	str	r3, [r1, #4]

	return 0;
}
  400be0:	2000      	movs	r0, #0
  400be2:	4770      	bx	lr

00400be4 <_isatty>:

extern int _isatty(int file)
{
	return 1;
}
  400be4:	2001      	movs	r0, #1
  400be6:	4770      	bx	lr

00400be8 <_lseek>:

extern int _lseek(int file, int ptr, int dir)
{
	return 0;
}
  400be8:	2000      	movs	r0, #0
  400bea:	4770      	bx	lr

00400bec <Button_Handler>:
	g_ul_ms_ticks++;
}

/* Button Handler */
static void Button_Handler(uint32_t id, uint32_t mask){
	if (PIN_PUSHBUTTON_1_ID == id && PIN_PUSHBUTTON_1_MASK == mask) {
  400bec:	280a      	cmp	r0, #10
  400bee:	d10b      	bne.n	400c08 <Button_Handler+0x1c>
  400bf0:	f5b1 6f00 	cmp.w	r1, #2048	; 0x800
  400bf4:	d108      	bne.n	400c08 <Button_Handler+0x1c>
static void Button_Handler(uint32_t id, uint32_t mask){
  400bf6:	b508      	push	{r3, lr}
	click_count++;
  400bf8:	4a04      	ldr	r2, [pc, #16]	; (400c0c <Button_Handler+0x20>)
  400bfa:	6813      	ldr	r3, [r2, #0]
  400bfc:	3301      	adds	r3, #1
  400bfe:	6013      	str	r3, [r2, #0]
	puts("button");
  400c00:	4803      	ldr	r0, [pc, #12]	; (400c10 <Button_Handler+0x24>)
  400c02:	4b04      	ldr	r3, [pc, #16]	; (400c14 <Button_Handler+0x28>)
  400c04:	4798      	blx	r3
  400c06:	bd08      	pop	{r3, pc}
  400c08:	4770      	bx	lr
  400c0a:	bf00      	nop
  400c0c:	204008e4 	.word	0x204008e4
  400c10:	00402d20 	.word	0x00402d20
  400c14:	004011b9 	.word	0x004011b9

00400c18 <usart_serial_getchar>:
 * \param p_usart   Base address of the USART instance.
 * \param data   Data to read
 *
 */
static inline void usart_serial_getchar(usart_if p_usart, uint8_t *data)
{
  400c18:	b5f0      	push	{r4, r5, r6, r7, lr}
  400c1a:	b083      	sub	sp, #12
  400c1c:	4605      	mov	r5, r0
  400c1e:	460c      	mov	r4, r1
	uint32_t val = 0;
  400c20:	2300      	movs	r3, #0
  400c22:	9301      	str	r3, [sp, #4]
	if (UART == (Uart*)p_usart) {
		while (uart_read((Uart*)p_usart, data));
	}
#else
# ifdef UART0
	if (UART0 == (Uart*)p_usart) {
  400c24:	4b2a      	ldr	r3, [pc, #168]	; (400cd0 <usart_serial_getchar+0xb8>)
  400c26:	4298      	cmp	r0, r3
  400c28:	d013      	beq.n	400c52 <usart_serial_getchar+0x3a>
		while (uart_read((Uart*)p_usart, data));
	}
# endif
# ifdef UART1
	if (UART1 == (Uart*)p_usart) {
  400c2a:	4b2a      	ldr	r3, [pc, #168]	; (400cd4 <usart_serial_getchar+0xbc>)
  400c2c:	4298      	cmp	r0, r3
  400c2e:	d018      	beq.n	400c62 <usart_serial_getchar+0x4a>
		while (uart_read((Uart*)p_usart, data));
	}
# endif
# ifdef UART2
	if (UART2 == (Uart*)p_usart) {
  400c30:	4b29      	ldr	r3, [pc, #164]	; (400cd8 <usart_serial_getchar+0xc0>)
  400c32:	4298      	cmp	r0, r3
  400c34:	d01d      	beq.n	400c72 <usart_serial_getchar+0x5a>
		while (uart_read((Uart*)p_usart, data));
	}
# endif
# ifdef UART3
	if (UART3 == (Uart*)p_usart) {
  400c36:	4b29      	ldr	r3, [pc, #164]	; (400cdc <usart_serial_getchar+0xc4>)
  400c38:	429d      	cmp	r5, r3
  400c3a:	d022      	beq.n	400c82 <usart_serial_getchar+0x6a>
		while (usart_read(p_usart, &val));
		*data = (uint8_t)(val & 0xFF);
	}
#else
# ifdef USART0
	if (USART0 == p_usart) {
  400c3c:	4b28      	ldr	r3, [pc, #160]	; (400ce0 <usart_serial_getchar+0xc8>)
  400c3e:	429d      	cmp	r5, r3
  400c40:	d027      	beq.n	400c92 <usart_serial_getchar+0x7a>
		while (usart_read(p_usart, &val));
		*data = (uint8_t)(val & 0xFF);
	}
# endif
# ifdef USART1
	if (USART1 == p_usart) {
  400c42:	4b28      	ldr	r3, [pc, #160]	; (400ce4 <usart_serial_getchar+0xcc>)
  400c44:	429d      	cmp	r5, r3
  400c46:	d02e      	beq.n	400ca6 <usart_serial_getchar+0x8e>
		while (usart_read(p_usart, &val));
		*data = (uint8_t)(val & 0xFF);
	}
# endif
# ifdef USART2
	if (USART2 == p_usart) {
  400c48:	4b27      	ldr	r3, [pc, #156]	; (400ce8 <usart_serial_getchar+0xd0>)
  400c4a:	429d      	cmp	r5, r3
  400c4c:	d035      	beq.n	400cba <usart_serial_getchar+0xa2>
		*data = (uint8_t)(val & 0xFF);
	}
# endif
#endif /* ifdef USART */

}
  400c4e:	b003      	add	sp, #12
  400c50:	bdf0      	pop	{r4, r5, r6, r7, pc}
		while (uart_read((Uart*)p_usart, data));
  400c52:	461f      	mov	r7, r3
  400c54:	4e25      	ldr	r6, [pc, #148]	; (400cec <usart_serial_getchar+0xd4>)
  400c56:	4621      	mov	r1, r4
  400c58:	4638      	mov	r0, r7
  400c5a:	47b0      	blx	r6
  400c5c:	2800      	cmp	r0, #0
  400c5e:	d1fa      	bne.n	400c56 <usart_serial_getchar+0x3e>
  400c60:	e7e9      	b.n	400c36 <usart_serial_getchar+0x1e>
		while (uart_read((Uart*)p_usart, data));
  400c62:	461f      	mov	r7, r3
  400c64:	4e21      	ldr	r6, [pc, #132]	; (400cec <usart_serial_getchar+0xd4>)
  400c66:	4621      	mov	r1, r4
  400c68:	4638      	mov	r0, r7
  400c6a:	47b0      	blx	r6
  400c6c:	2800      	cmp	r0, #0
  400c6e:	d1fa      	bne.n	400c66 <usart_serial_getchar+0x4e>
  400c70:	e7e4      	b.n	400c3c <usart_serial_getchar+0x24>
		while (uart_read((Uart*)p_usart, data));
  400c72:	461f      	mov	r7, r3
  400c74:	4e1d      	ldr	r6, [pc, #116]	; (400cec <usart_serial_getchar+0xd4>)
  400c76:	4621      	mov	r1, r4
  400c78:	4638      	mov	r0, r7
  400c7a:	47b0      	blx	r6
  400c7c:	2800      	cmp	r0, #0
  400c7e:	d1fa      	bne.n	400c76 <usart_serial_getchar+0x5e>
  400c80:	e7df      	b.n	400c42 <usart_serial_getchar+0x2a>
		while (uart_read((Uart*)p_usart, data));
  400c82:	461f      	mov	r7, r3
  400c84:	4e19      	ldr	r6, [pc, #100]	; (400cec <usart_serial_getchar+0xd4>)
  400c86:	4621      	mov	r1, r4
  400c88:	4638      	mov	r0, r7
  400c8a:	47b0      	blx	r6
  400c8c:	2800      	cmp	r0, #0
  400c8e:	d1fa      	bne.n	400c86 <usart_serial_getchar+0x6e>
  400c90:	e7da      	b.n	400c48 <usart_serial_getchar+0x30>
		while (usart_read(p_usart, &val));
  400c92:	461e      	mov	r6, r3
  400c94:	4d16      	ldr	r5, [pc, #88]	; (400cf0 <usart_serial_getchar+0xd8>)
  400c96:	a901      	add	r1, sp, #4
  400c98:	4630      	mov	r0, r6
  400c9a:	47a8      	blx	r5
  400c9c:	2800      	cmp	r0, #0
  400c9e:	d1fa      	bne.n	400c96 <usart_serial_getchar+0x7e>
		*data = (uint8_t)(val & 0xFF);
  400ca0:	9b01      	ldr	r3, [sp, #4]
  400ca2:	7023      	strb	r3, [r4, #0]
  400ca4:	e7d3      	b.n	400c4e <usart_serial_getchar+0x36>
		while (usart_read(p_usart, &val));
  400ca6:	461e      	mov	r6, r3
  400ca8:	4d11      	ldr	r5, [pc, #68]	; (400cf0 <usart_serial_getchar+0xd8>)
  400caa:	a901      	add	r1, sp, #4
  400cac:	4630      	mov	r0, r6
  400cae:	47a8      	blx	r5
  400cb0:	2800      	cmp	r0, #0
  400cb2:	d1fa      	bne.n	400caa <usart_serial_getchar+0x92>
		*data = (uint8_t)(val & 0xFF);
  400cb4:	9b01      	ldr	r3, [sp, #4]
  400cb6:	7023      	strb	r3, [r4, #0]
  400cb8:	e7c9      	b.n	400c4e <usart_serial_getchar+0x36>
		while (usart_read(p_usart, &val));
  400cba:	461e      	mov	r6, r3
  400cbc:	4d0c      	ldr	r5, [pc, #48]	; (400cf0 <usart_serial_getchar+0xd8>)
  400cbe:	a901      	add	r1, sp, #4
  400cc0:	4630      	mov	r0, r6
  400cc2:	47a8      	blx	r5
  400cc4:	2800      	cmp	r0, #0
  400cc6:	d1fa      	bne.n	400cbe <usart_serial_getchar+0xa6>
		*data = (uint8_t)(val & 0xFF);
  400cc8:	9b01      	ldr	r3, [sp, #4]
  400cca:	7023      	strb	r3, [r4, #0]
}
  400ccc:	e7bf      	b.n	400c4e <usart_serial_getchar+0x36>
  400cce:	bf00      	nop
  400cd0:	400e0800 	.word	0x400e0800
  400cd4:	400e0a00 	.word	0x400e0a00
  400cd8:	400e1a00 	.word	0x400e1a00
  400cdc:	400e1c00 	.word	0x400e1c00
  400ce0:	40024000 	.word	0x40024000
  400ce4:	40028000 	.word	0x40028000
  400ce8:	4002c000 	.word	0x4002c000
  400cec:	00400431 	.word	0x00400431
  400cf0:	0040030b 	.word	0x0040030b

00400cf4 <usart_serial_putchar>:
{
  400cf4:	b570      	push	{r4, r5, r6, lr}
  400cf6:	460c      	mov	r4, r1
	if (UART0 == (Uart*)p_usart) {
  400cf8:	4b2a      	ldr	r3, [pc, #168]	; (400da4 <usart_serial_putchar+0xb0>)
  400cfa:	4298      	cmp	r0, r3
  400cfc:	d013      	beq.n	400d26 <usart_serial_putchar+0x32>
	if (UART1 == (Uart*)p_usart) {
  400cfe:	4b2a      	ldr	r3, [pc, #168]	; (400da8 <usart_serial_putchar+0xb4>)
  400d00:	4298      	cmp	r0, r3
  400d02:	d019      	beq.n	400d38 <usart_serial_putchar+0x44>
	if (UART2 == (Uart*)p_usart) {
  400d04:	4b29      	ldr	r3, [pc, #164]	; (400dac <usart_serial_putchar+0xb8>)
  400d06:	4298      	cmp	r0, r3
  400d08:	d01f      	beq.n	400d4a <usart_serial_putchar+0x56>
	if (UART3 == (Uart*)p_usart) {
  400d0a:	4b29      	ldr	r3, [pc, #164]	; (400db0 <usart_serial_putchar+0xbc>)
  400d0c:	4298      	cmp	r0, r3
  400d0e:	d025      	beq.n	400d5c <usart_serial_putchar+0x68>
	if (USART0 == p_usart) {
  400d10:	4b28      	ldr	r3, [pc, #160]	; (400db4 <usart_serial_putchar+0xc0>)
  400d12:	4298      	cmp	r0, r3
  400d14:	d02b      	beq.n	400d6e <usart_serial_putchar+0x7a>
	if (USART1 == p_usart) {
  400d16:	4b28      	ldr	r3, [pc, #160]	; (400db8 <usart_serial_putchar+0xc4>)
  400d18:	4298      	cmp	r0, r3
  400d1a:	d031      	beq.n	400d80 <usart_serial_putchar+0x8c>
	if (USART2 == p_usart) {
  400d1c:	4b27      	ldr	r3, [pc, #156]	; (400dbc <usart_serial_putchar+0xc8>)
  400d1e:	4298      	cmp	r0, r3
  400d20:	d037      	beq.n	400d92 <usart_serial_putchar+0x9e>
	return 0;
  400d22:	2000      	movs	r0, #0
}
  400d24:	bd70      	pop	{r4, r5, r6, pc}
		while (uart_write((Uart*)p_usart, c)!=0);
  400d26:	461e      	mov	r6, r3
  400d28:	4d25      	ldr	r5, [pc, #148]	; (400dc0 <usart_serial_putchar+0xcc>)
  400d2a:	4621      	mov	r1, r4
  400d2c:	4630      	mov	r0, r6
  400d2e:	47a8      	blx	r5
  400d30:	2800      	cmp	r0, #0
  400d32:	d1fa      	bne.n	400d2a <usart_serial_putchar+0x36>
		return 1;
  400d34:	2001      	movs	r0, #1
  400d36:	bd70      	pop	{r4, r5, r6, pc}
		while (uart_write((Uart*)p_usart, c)!=0);
  400d38:	461e      	mov	r6, r3
  400d3a:	4d21      	ldr	r5, [pc, #132]	; (400dc0 <usart_serial_putchar+0xcc>)
  400d3c:	4621      	mov	r1, r4
  400d3e:	4630      	mov	r0, r6
  400d40:	47a8      	blx	r5
  400d42:	2800      	cmp	r0, #0
  400d44:	d1fa      	bne.n	400d3c <usart_serial_putchar+0x48>
		return 1;
  400d46:	2001      	movs	r0, #1
  400d48:	bd70      	pop	{r4, r5, r6, pc}
		while (uart_write((Uart*)p_usart, c)!=0);
  400d4a:	461e      	mov	r6, r3
  400d4c:	4d1c      	ldr	r5, [pc, #112]	; (400dc0 <usart_serial_putchar+0xcc>)
  400d4e:	4621      	mov	r1, r4
  400d50:	4630      	mov	r0, r6
  400d52:	47a8      	blx	r5
  400d54:	2800      	cmp	r0, #0
  400d56:	d1fa      	bne.n	400d4e <usart_serial_putchar+0x5a>
		return 1;
  400d58:	2001      	movs	r0, #1
  400d5a:	bd70      	pop	{r4, r5, r6, pc}
		while (uart_write((Uart*)p_usart, c)!=0);
  400d5c:	461e      	mov	r6, r3
  400d5e:	4d18      	ldr	r5, [pc, #96]	; (400dc0 <usart_serial_putchar+0xcc>)
  400d60:	4621      	mov	r1, r4
  400d62:	4630      	mov	r0, r6
  400d64:	47a8      	blx	r5
  400d66:	2800      	cmp	r0, #0
  400d68:	d1fa      	bne.n	400d60 <usart_serial_putchar+0x6c>
		return 1;
  400d6a:	2001      	movs	r0, #1
  400d6c:	bd70      	pop	{r4, r5, r6, pc}
		while (usart_write(p_usart, c)!=0);
  400d6e:	461e      	mov	r6, r3
  400d70:	4d14      	ldr	r5, [pc, #80]	; (400dc4 <usart_serial_putchar+0xd0>)
  400d72:	4621      	mov	r1, r4
  400d74:	4630      	mov	r0, r6
  400d76:	47a8      	blx	r5
  400d78:	2800      	cmp	r0, #0
  400d7a:	d1fa      	bne.n	400d72 <usart_serial_putchar+0x7e>
		return 1;
  400d7c:	2001      	movs	r0, #1
  400d7e:	bd70      	pop	{r4, r5, r6, pc}
		while (usart_write(p_usart, c)!=0);
  400d80:	461e      	mov	r6, r3
  400d82:	4d10      	ldr	r5, [pc, #64]	; (400dc4 <usart_serial_putchar+0xd0>)
  400d84:	4621      	mov	r1, r4
  400d86:	4630      	mov	r0, r6
  400d88:	47a8      	blx	r5
  400d8a:	2800      	cmp	r0, #0
  400d8c:	d1fa      	bne.n	400d84 <usart_serial_putchar+0x90>
		return 1;
  400d8e:	2001      	movs	r0, #1
  400d90:	bd70      	pop	{r4, r5, r6, pc}
		while (usart_write(p_usart, c)!=0);
  400d92:	461e      	mov	r6, r3
  400d94:	4d0b      	ldr	r5, [pc, #44]	; (400dc4 <usart_serial_putchar+0xd0>)
  400d96:	4621      	mov	r1, r4
  400d98:	4630      	mov	r0, r6
  400d9a:	47a8      	blx	r5
  400d9c:	2800      	cmp	r0, #0
  400d9e:	d1fa      	bne.n	400d96 <usart_serial_putchar+0xa2>
		return 1;
  400da0:	2001      	movs	r0, #1
  400da2:	bd70      	pop	{r4, r5, r6, pc}
  400da4:	400e0800 	.word	0x400e0800
  400da8:	400e0a00 	.word	0x400e0a00
  400dac:	400e1a00 	.word	0x400e1a00
  400db0:	400e1c00 	.word	0x400e1c00
  400db4:	40024000 	.word	0x40024000
  400db8:	40028000 	.word	0x40028000
  400dbc:	4002c000 	.word	0x4002c000
  400dc0:	0040041f 	.word	0x0040041f
  400dc4:	004002f5 	.word	0x004002f5

00400dc8 <SysTick_Handler>:
	g_ul_ms_ticks++;
  400dc8:	4a02      	ldr	r2, [pc, #8]	; (400dd4 <SysTick_Handler+0xc>)
  400dca:	6813      	ldr	r3, [r2, #0]
  400dcc:	3301      	adds	r3, #1
  400dce:	6013      	str	r3, [r2, #0]
  400dd0:	4770      	bx	lr
  400dd2:	bf00      	nop
  400dd4:	204008e8 	.word	0x204008e8

00400dd8 <TC0_Handler>:
	(IRQn_Type) PIN_PUSHBUTTON_1_ID, IRQ_PRIO_PIO);
	pio_enable_interrupt(PIN_PUSHBUTTON_1_PIO, PIN_PUSHBUTTON_1_MASK);
}

/* TC0 interrupt handler */
void TC0_Handler(void){
  400dd8:	b500      	push	{lr}
  400dda:	b083      	sub	sp, #12
	volatile uint32_t ul_dummy;

	/* Clear status bit to acknowledge interrupt */
	ul_dummy = tc_get_status(TC0, 0);
  400ddc:	2100      	movs	r1, #0
  400dde:	4810      	ldr	r0, [pc, #64]	; (400e20 <TC0_Handler+0x48>)
  400de0:	4b10      	ldr	r3, [pc, #64]	; (400e24 <TC0_Handler+0x4c>)
  400de2:	4798      	blx	r3
  400de4:	9001      	str	r0, [sp, #4]

	/* Avoid compiler warning */
	UNUSED(ul_dummy);
  400de6:	9b01      	ldr	r3, [sp, #4]
	
	if (click_count > 0) {
  400de8:	4b0f      	ldr	r3, [pc, #60]	; (400e28 <TC0_Handler+0x50>)
  400dea:	681b      	ldr	r3, [r3, #0]
  400dec:	2b00      	cmp	r3, #0
  400dee:	dd0c      	ble.n	400e0a <TC0_Handler+0x32>
	click_count--;
  400df0:	4a0d      	ldr	r2, [pc, #52]	; (400e28 <TC0_Handler+0x50>)
  400df2:	6813      	ldr	r3, [r2, #0]
  400df4:	3b01      	subs	r3, #1
  400df6:	6013      	str	r3, [r2, #0]
	if (port->PIO_PDSR & arch_ioport_pin_to_mask(pin)) {
  400df8:	4b0c      	ldr	r3, [pc, #48]	; (400e2c <TC0_Handler+0x54>)
  400dfa:	6bdb      	ldr	r3, [r3, #60]	; 0x3c
  400dfc:	f413 7f80 	tst.w	r3, #256	; 0x100
  400e00:	d109      	bne.n	400e16 <TC0_Handler+0x3e>
		port->PIO_SODR = mask;
  400e02:	f44f 7280 	mov.w	r2, #256	; 0x100
  400e06:	4b09      	ldr	r3, [pc, #36]	; (400e2c <TC0_Handler+0x54>)
  400e08:	631a      	str	r2, [r3, #48]	; 0x30
	LED_Toggle(LED0);
	}
	
	puts("TC0");
  400e0a:	4809      	ldr	r0, [pc, #36]	; (400e30 <TC0_Handler+0x58>)
  400e0c:	4b09      	ldr	r3, [pc, #36]	; (400e34 <TC0_Handler+0x5c>)
  400e0e:	4798      	blx	r3
}
  400e10:	b003      	add	sp, #12
  400e12:	f85d fb04 	ldr.w	pc, [sp], #4
		port->PIO_CODR = mask;
  400e16:	f44f 7280 	mov.w	r2, #256	; 0x100
  400e1a:	4b04      	ldr	r3, [pc, #16]	; (400e2c <TC0_Handler+0x54>)
  400e1c:	635a      	str	r2, [r3, #52]	; 0x34
  400e1e:	e7f4      	b.n	400e0a <TC0_Handler+0x32>
  400e20:	4000c000 	.word	0x4000c000
  400e24:	004003a7 	.word	0x004003a7
  400e28:	204008e4 	.word	0x204008e4
  400e2c:	400e1200 	.word	0x400e1200
  400e30:	00402d28 	.word	0x00402d28
  400e34:	004011b9 	.word	0x004011b9

00400e38 <TC4_Handler>:

/* TC0 interrupt handler */
void TC4_Handler(void){
  400e38:	b500      	push	{lr}
  400e3a:	b083      	sub	sp, #12
	volatile uint32_t ul_dummy;

	/* Clear status bit to acknowledge interrupt */
	ul_dummy = tc_get_status(TC1, 1);
  400e3c:	2101      	movs	r1, #1
  400e3e:	4807      	ldr	r0, [pc, #28]	; (400e5c <TC4_Handler+0x24>)
  400e40:	4b07      	ldr	r3, [pc, #28]	; (400e60 <TC4_Handler+0x28>)
  400e42:	4798      	blx	r3
  400e44:	9001      	str	r0, [sp, #4]

	/* Avoid compiler warning */
	UNUSED(ul_dummy);
  400e46:	9b01      	ldr	r3, [sp, #4]
		base->PIO_CODR = arch_ioport_pin_to_mask(pin);
  400e48:	f44f 7280 	mov.w	r2, #256	; 0x100
  400e4c:	4b05      	ldr	r3, [pc, #20]	; (400e64 <TC4_Handler+0x2c>)
  400e4e:	635a      	str	r2, [r3, #52]	; 0x34
	
	LED_On(LED0);
	
	puts("TC1");
  400e50:	4805      	ldr	r0, [pc, #20]	; (400e68 <TC4_Handler+0x30>)
  400e52:	4b06      	ldr	r3, [pc, #24]	; (400e6c <TC4_Handler+0x34>)
  400e54:	4798      	blx	r3
}
  400e56:	b003      	add	sp, #12
  400e58:	f85d fb04 	ldr.w	pc, [sp], #4
  400e5c:	40010000 	.word	0x40010000
  400e60:	004003a7 	.word	0x004003a7
  400e64:	400e1200 	.word	0x400e1200
  400e68:	00402d30 	.word	0x00402d30
  400e6c:	004011b9 	.word	0x004011b9

00400e70 <TC2_Handler>:

/* TC0 interrupt handler */
void TC2_Handler(void){
  400e70:	b500      	push	{lr}
  400e72:	b083      	sub	sp, #12
	volatile uint32_t ul_dummy;

	/* Clear status bit to acknowledge interrupt */
	ul_dummy = tc_get_status(TC2, 2);
  400e74:	2102      	movs	r1, #2
  400e76:	4805      	ldr	r0, [pc, #20]	; (400e8c <TC2_Handler+0x1c>)
  400e78:	4b05      	ldr	r3, [pc, #20]	; (400e90 <TC2_Handler+0x20>)
  400e7a:	4798      	blx	r3
  400e7c:	9001      	str	r0, [sp, #4]

	/* Avoid compiler warning */
	UNUSED(ul_dummy);
  400e7e:	9b01      	ldr	r3, [sp, #4]
	
	puts("TC2");
  400e80:	4804      	ldr	r0, [pc, #16]	; (400e94 <TC2_Handler+0x24>)
  400e82:	4b05      	ldr	r3, [pc, #20]	; (400e98 <TC2_Handler+0x28>)
  400e84:	4798      	blx	r3
}
  400e86:	b003      	add	sp, #12
  400e88:	f85d fb04 	ldr.w	pc, [sp], #4
  400e8c:	40014000 	.word	0x40014000
  400e90:	004003a7 	.word	0x004003a7
  400e94:	00402d2c 	.word	0x00402d2c
  400e98:	004011b9 	.word	0x004011b9

00400e9c <main>:
	sysclk_enable_peripheral_clock(CONSOLE_UART_ID);
	stdio_serial_init(CONF_UART, &uart_serial_options);
}

int main (void)
{
  400e9c:	b580      	push	{r7, lr}
  400e9e:	b08a      	sub	sp, #40	; 0x28
	/* Insert system clock initialization code here (sysclk_init()). */
	sysclk_init();
  400ea0:	4b43      	ldr	r3, [pc, #268]	; (400fb0 <main+0x114>)
  400ea2:	4798      	blx	r3
	board_init();
  400ea4:	4b43      	ldr	r3, [pc, #268]	; (400fb4 <main+0x118>)
  400ea6:	4798      	blx	r3
  400ea8:	200e      	movs	r0, #14
  400eaa:	4f43      	ldr	r7, [pc, #268]	; (400fb8 <main+0x11c>)
  400eac:	47b8      	blx	r7
 * \param opt         Options needed to set up RS232 communication (see \ref usart_options_t).
 *
 */
static inline void stdio_serial_init(volatile void *usart, const usart_serial_options_t *opt)
{
	stdio_base = (void *)usart;
  400eae:	4d43      	ldr	r5, [pc, #268]	; (400fbc <main+0x120>)
  400eb0:	4b43      	ldr	r3, [pc, #268]	; (400fc0 <main+0x124>)
  400eb2:	601d      	str	r5, [r3, #0]
	ptr_put = (int (*)(void volatile*,char))&usart_serial_putchar;
  400eb4:	4a43      	ldr	r2, [pc, #268]	; (400fc4 <main+0x128>)
  400eb6:	4b44      	ldr	r3, [pc, #272]	; (400fc8 <main+0x12c>)
  400eb8:	601a      	str	r2, [r3, #0]
	ptr_get = (void (*)(void volatile*,char*))&usart_serial_getchar;
  400eba:	4a44      	ldr	r2, [pc, #272]	; (400fcc <main+0x130>)
  400ebc:	4b44      	ldr	r3, [pc, #272]	; (400fd0 <main+0x134>)
  400ebe:	601a      	str	r2, [r3, #0]
	usart_settings.baudrate = opt->baudrate;
  400ec0:	f44f 33e1 	mov.w	r3, #115200	; 0x1c200
  400ec4:	9304      	str	r3, [sp, #16]
	usart_settings.char_length = opt->charlength;
  400ec6:	23c0      	movs	r3, #192	; 0xc0
  400ec8:	9305      	str	r3, [sp, #20]
	usart_settings.parity_type = opt->paritytype;
  400eca:	f44f 6600 	mov.w	r6, #2048	; 0x800
  400ece:	9606      	str	r6, [sp, #24]
	usart_settings.stop_bits= opt->stopbits;
  400ed0:	2400      	movs	r4, #0
  400ed2:	9407      	str	r4, [sp, #28]
	usart_settings.channel_mode= US_MR_CHMODE_NORMAL;
  400ed4:	9408      	str	r4, [sp, #32]
  400ed6:	200e      	movs	r0, #14
  400ed8:	47b8      	blx	r7
		usart_init_rs232(p_usart, &usart_settings,
  400eda:	4a3e      	ldr	r2, [pc, #248]	; (400fd4 <main+0x138>)
  400edc:	a904      	add	r1, sp, #16
  400ede:	4628      	mov	r0, r5
  400ee0:	4b3d      	ldr	r3, [pc, #244]	; (400fd8 <main+0x13c>)
  400ee2:	4798      	blx	r3
		usart_enable_tx(p_usart);
  400ee4:	4628      	mov	r0, r5
  400ee6:	4b3d      	ldr	r3, [pc, #244]	; (400fdc <main+0x140>)
  400ee8:	4798      	blx	r3
		usart_enable_rx(p_usart);
  400eea:	4628      	mov	r0, r5
  400eec:	4b3c      	ldr	r3, [pc, #240]	; (400fe0 <main+0x144>)
  400eee:	4798      	blx	r3
	fdevopen((int (*)(char, FILE*))(_write),(int (*)(FILE*))(_read));
#  endif
#  if UC3 || SAM
	// For AVR32 and SAM GCC
	// Specify that stdout and stdin should not be buffered.
	setbuf(stdout, NULL);
  400ef0:	f8df 812c 	ldr.w	r8, [pc, #300]	; 401020 <main+0x184>
  400ef4:	f8d8 3000 	ldr.w	r3, [r8]
  400ef8:	4621      	mov	r1, r4
  400efa:	6898      	ldr	r0, [r3, #8]
  400efc:	4d39      	ldr	r5, [pc, #228]	; (400fe4 <main+0x148>)
  400efe:	47a8      	blx	r5
	setbuf(stdin, NULL);
  400f00:	f8d8 3000 	ldr.w	r3, [r8]
  400f04:	4621      	mov	r1, r4
  400f06:	6858      	ldr	r0, [r3, #4]
  400f08:	47a8      	blx	r5
	pmc_enable_periph_clk(ID_TC0);
  400f0a:	2017      	movs	r0, #23
  400f0c:	47b8      	blx	r7
	tc_find_mck_divisor(TC0_divisor, ul_sysclk, &ul_div, &ul_tcclks, ul_sysclk);
  400f0e:	4d36      	ldr	r5, [pc, #216]	; (400fe8 <main+0x14c>)
  400f10:	9500      	str	r5, [sp, #0]
  400f12:	ab04      	add	r3, sp, #16
  400f14:	aa03      	add	r2, sp, #12
  400f16:	4629      	mov	r1, r5
  400f18:	2002      	movs	r0, #2
  400f1a:	f8df 8108 	ldr.w	r8, [pc, #264]	; 401024 <main+0x188>
  400f1e:	47c0      	blx	r8
	tc_init(TC0, 0, ul_tcclks | TC_CMR_CPCTRG);
  400f20:	f8df 8104 	ldr.w	r8, [pc, #260]	; 401028 <main+0x18c>
  400f24:	9a04      	ldr	r2, [sp, #16]
  400f26:	f442 4280 	orr.w	r2, r2, #16384	; 0x4000
  400f2a:	4621      	mov	r1, r4
  400f2c:	4640      	mov	r0, r8
  400f2e:	4b2f      	ldr	r3, [pc, #188]	; (400fec <main+0x150>)
  400f30:	4798      	blx	r3
	counts = (ul_sysclk / ul_div) / TC0_divisor;
  400f32:	9a03      	ldr	r2, [sp, #12]
  400f34:	fbb5 f2f2 	udiv	r2, r5, r2
	tc_write_rc(TC0, 0, counts);
  400f38:	0852      	lsrs	r2, r2, #1
  400f3a:	4621      	mov	r1, r4
  400f3c:	4640      	mov	r0, r8
  400f3e:	4b2c      	ldr	r3, [pc, #176]	; (400ff0 <main+0x154>)
  400f40:	4798      	blx	r3
    NVIC->IP[(uint32_t)(IRQn)]            = ((priority << (8 - __NVIC_PRIO_BITS)) & 0xff); } /* set Priority for device specific Interrupts  */
  400f42:	f8df 90e8 	ldr.w	r9, [pc, #232]	; 40102c <main+0x190>
  400f46:	2320      	movs	r3, #32
  400f48:	f889 3317 	strb.w	r3, [r9, #791]	; 0x317
  NVIC->ISER[(uint32_t)((int32_t)IRQn) >> 5] = (uint32_t)(1 << ((uint32_t)((int32_t)IRQn) & (uint32_t)0x1F)); /* enable interrupt */
  400f4c:	f44f 0300 	mov.w	r3, #8388608	; 0x800000
  400f50:	f8c9 3000 	str.w	r3, [r9]
	tc_enable_interrupt(TC0, 0, TC_IER_CPCS);
  400f54:	2210      	movs	r2, #16
  400f56:	4621      	mov	r1, r4
  400f58:	4640      	mov	r0, r8
  400f5a:	4b26      	ldr	r3, [pc, #152]	; (400ff4 <main+0x158>)
  400f5c:	4798      	blx	r3
	tc_start(TC0, 0);
  400f5e:	4621      	mov	r1, r4
  400f60:	4640      	mov	r0, r8
  400f62:	4b25      	ldr	r3, [pc, #148]	; (400ff8 <main+0x15c>)
  400f64:	4798      	blx	r3
	configure_console();
	configure_tc0(); 
	//configure_tc1();
	//configure_tc2();

	puts(STRING_HEADER);
  400f66:	4825      	ldr	r0, [pc, #148]	; (400ffc <main+0x160>)
  400f68:	4b25      	ldr	r3, [pc, #148]	; (401000 <main+0x164>)
  400f6a:	4798      	blx	r3
	pmc_enable_periph_clk(PIN_PUSHBUTTON_1_ID);
  400f6c:	200a      	movs	r0, #10
  400f6e:	47b8      	blx	r7
	pio_set_debounce_filter(PIN_PUSHBUTTON_1_PIO, PIN_PUSHBUTTON_1_MASK, 10);
  400f70:	4d24      	ldr	r5, [pc, #144]	; (401004 <main+0x168>)
  400f72:	220a      	movs	r2, #10
  400f74:	4631      	mov	r1, r6
  400f76:	4628      	mov	r0, r5
  400f78:	4b23      	ldr	r3, [pc, #140]	; (401008 <main+0x16c>)
  400f7a:	4798      	blx	r3
	pio_handler_set(PIN_PUSHBUTTON_1_PIO, PIN_PUSHBUTTON_1_ID,
  400f7c:	4b23      	ldr	r3, [pc, #140]	; (40100c <main+0x170>)
  400f7e:	9300      	str	r3, [sp, #0]
  400f80:	2379      	movs	r3, #121	; 0x79
  400f82:	4632      	mov	r2, r6
  400f84:	210a      	movs	r1, #10
  400f86:	4628      	mov	r0, r5
  400f88:	4f21      	ldr	r7, [pc, #132]	; (401010 <main+0x174>)
  400f8a:	47b8      	blx	r7
  400f8c:	f44f 6380 	mov.w	r3, #1024	; 0x400
  400f90:	f8c9 3000 	str.w	r3, [r9]
	pio_handler_set_priority(PIN_PUSHBUTTON_1_PIO,
  400f94:	4622      	mov	r2, r4
  400f96:	210a      	movs	r1, #10
  400f98:	4628      	mov	r0, r5
  400f9a:	4b1e      	ldr	r3, [pc, #120]	; (401014 <main+0x178>)
  400f9c:	4798      	blx	r3
	pio_enable_interrupt(PIN_PUSHBUTTON_1_PIO, PIN_PUSHBUTTON_1_MASK);
  400f9e:	4631      	mov	r1, r6
  400fa0:	4628      	mov	r0, r5
  400fa2:	4b1d      	ldr	r3, [pc, #116]	; (401018 <main+0x17c>)
  400fa4:	4798      	blx	r3
	
	configure_button();
	while (1)
	{
		puts("2");
  400fa6:	4d1d      	ldr	r5, [pc, #116]	; (40101c <main+0x180>)
  400fa8:	4c15      	ldr	r4, [pc, #84]	; (401000 <main+0x164>)
  400faa:	4628      	mov	r0, r5
  400fac:	47a0      	blx	r4
  400fae:	e7fc      	b.n	400faa <main+0x10e>
  400fb0:	00400445 	.word	0x00400445
  400fb4:	004004b5 	.word	0x004004b5
  400fb8:	00400919 	.word	0x00400919
  400fbc:	40028000 	.word	0x40028000
  400fc0:	20400928 	.word	0x20400928
  400fc4:	00400cf5 	.word	0x00400cf5
  400fc8:	20400924 	.word	0x20400924
  400fcc:	00400c19 	.word	0x00400c19
  400fd0:	20400920 	.word	0x20400920
  400fd4:	08f0d180 	.word	0x08f0d180
  400fd8:	00400295 	.word	0x00400295
  400fdc:	004002e9 	.word	0x004002e9
  400fe0:	004002ef 	.word	0x004002ef
  400fe4:	004011c9 	.word	0x004011c9
  400fe8:	11e1a300 	.word	0x11e1a300
  400fec:	00400375 	.word	0x00400375
  400ff0:	00400397 	.word	0x00400397
  400ff4:	0040039f 	.word	0x0040039f
  400ff8:	0040038f 	.word	0x0040038f
  400ffc:	00402d34 	.word	0x00402d34
  401000:	004011b9 	.word	0x004011b9
  401004:	400e0e00 	.word	0x400e0e00
  401008:	004005f5 	.word	0x004005f5
  40100c:	00400bed 	.word	0x00400bed
  401010:	004006a1 	.word	0x004006a1
  401014:	00400775 	.word	0x00400775
  401018:	00400641 	.word	0x00400641
  40101c:	00402d9c 	.word	0x00402d9c
  401020:	20400008 	.word	0x20400008
  401024:	004003af 	.word	0x004003af
  401028:	4000c000 	.word	0x4000c000
  40102c:	e000e100 	.word	0xe000e100

00401030 <__libc_init_array>:
  401030:	b570      	push	{r4, r5, r6, lr}
  401032:	4e0f      	ldr	r6, [pc, #60]	; (401070 <__libc_init_array+0x40>)
  401034:	4d0f      	ldr	r5, [pc, #60]	; (401074 <__libc_init_array+0x44>)
  401036:	1b76      	subs	r6, r6, r5
  401038:	10b6      	asrs	r6, r6, #2
  40103a:	bf18      	it	ne
  40103c:	2400      	movne	r4, #0
  40103e:	d005      	beq.n	40104c <__libc_init_array+0x1c>
  401040:	3401      	adds	r4, #1
  401042:	f855 3b04 	ldr.w	r3, [r5], #4
  401046:	4798      	blx	r3
  401048:	42a6      	cmp	r6, r4
  40104a:	d1f9      	bne.n	401040 <__libc_init_array+0x10>
  40104c:	4e0a      	ldr	r6, [pc, #40]	; (401078 <__libc_init_array+0x48>)
  40104e:	4d0b      	ldr	r5, [pc, #44]	; (40107c <__libc_init_array+0x4c>)
  401050:	1b76      	subs	r6, r6, r5
  401052:	f001 fea9 	bl	402da8 <_init>
  401056:	10b6      	asrs	r6, r6, #2
  401058:	bf18      	it	ne
  40105a:	2400      	movne	r4, #0
  40105c:	d006      	beq.n	40106c <__libc_init_array+0x3c>
  40105e:	3401      	adds	r4, #1
  401060:	f855 3b04 	ldr.w	r3, [r5], #4
  401064:	4798      	blx	r3
  401066:	42a6      	cmp	r6, r4
  401068:	d1f9      	bne.n	40105e <__libc_init_array+0x2e>
  40106a:	bd70      	pop	{r4, r5, r6, pc}
  40106c:	bd70      	pop	{r4, r5, r6, pc}
  40106e:	bf00      	nop
  401070:	00402db4 	.word	0x00402db4
  401074:	00402db4 	.word	0x00402db4
  401078:	00402dbc 	.word	0x00402dbc
  40107c:	00402db4 	.word	0x00402db4

00401080 <memset>:
  401080:	b470      	push	{r4, r5, r6}
  401082:	0786      	lsls	r6, r0, #30
  401084:	d046      	beq.n	401114 <memset+0x94>
  401086:	1e54      	subs	r4, r2, #1
  401088:	2a00      	cmp	r2, #0
  40108a:	d041      	beq.n	401110 <memset+0x90>
  40108c:	b2ca      	uxtb	r2, r1
  40108e:	4603      	mov	r3, r0
  401090:	e002      	b.n	401098 <memset+0x18>
  401092:	f114 34ff 	adds.w	r4, r4, #4294967295
  401096:	d33b      	bcc.n	401110 <memset+0x90>
  401098:	f803 2b01 	strb.w	r2, [r3], #1
  40109c:	079d      	lsls	r5, r3, #30
  40109e:	d1f8      	bne.n	401092 <memset+0x12>
  4010a0:	2c03      	cmp	r4, #3
  4010a2:	d92e      	bls.n	401102 <memset+0x82>
  4010a4:	b2cd      	uxtb	r5, r1
  4010a6:	ea45 2505 	orr.w	r5, r5, r5, lsl #8
  4010aa:	2c0f      	cmp	r4, #15
  4010ac:	ea45 4505 	orr.w	r5, r5, r5, lsl #16
  4010b0:	d919      	bls.n	4010e6 <memset+0x66>
  4010b2:	f103 0210 	add.w	r2, r3, #16
  4010b6:	4626      	mov	r6, r4
  4010b8:	3e10      	subs	r6, #16
  4010ba:	2e0f      	cmp	r6, #15
  4010bc:	f842 5c10 	str.w	r5, [r2, #-16]
  4010c0:	f842 5c0c 	str.w	r5, [r2, #-12]
  4010c4:	f842 5c08 	str.w	r5, [r2, #-8]
  4010c8:	f842 5c04 	str.w	r5, [r2, #-4]
  4010cc:	f102 0210 	add.w	r2, r2, #16
  4010d0:	d8f2      	bhi.n	4010b8 <memset+0x38>
  4010d2:	f1a4 0210 	sub.w	r2, r4, #16
  4010d6:	f022 020f 	bic.w	r2, r2, #15
  4010da:	f004 040f 	and.w	r4, r4, #15
  4010de:	3210      	adds	r2, #16
  4010e0:	2c03      	cmp	r4, #3
  4010e2:	4413      	add	r3, r2
  4010e4:	d90d      	bls.n	401102 <memset+0x82>
  4010e6:	461e      	mov	r6, r3
  4010e8:	4622      	mov	r2, r4
  4010ea:	3a04      	subs	r2, #4
  4010ec:	2a03      	cmp	r2, #3
  4010ee:	f846 5b04 	str.w	r5, [r6], #4
  4010f2:	d8fa      	bhi.n	4010ea <memset+0x6a>
  4010f4:	1f22      	subs	r2, r4, #4
  4010f6:	f022 0203 	bic.w	r2, r2, #3
  4010fa:	3204      	adds	r2, #4
  4010fc:	4413      	add	r3, r2
  4010fe:	f004 0403 	and.w	r4, r4, #3
  401102:	b12c      	cbz	r4, 401110 <memset+0x90>
  401104:	b2c9      	uxtb	r1, r1
  401106:	441c      	add	r4, r3
  401108:	f803 1b01 	strb.w	r1, [r3], #1
  40110c:	429c      	cmp	r4, r3
  40110e:	d1fb      	bne.n	401108 <memset+0x88>
  401110:	bc70      	pop	{r4, r5, r6}
  401112:	4770      	bx	lr
  401114:	4614      	mov	r4, r2
  401116:	4603      	mov	r3, r0
  401118:	e7c2      	b.n	4010a0 <memset+0x20>
  40111a:	bf00      	nop

0040111c <_puts_r>:
  40111c:	b5f0      	push	{r4, r5, r6, r7, lr}
  40111e:	4605      	mov	r5, r0
  401120:	b089      	sub	sp, #36	; 0x24
  401122:	4608      	mov	r0, r1
  401124:	460c      	mov	r4, r1
  401126:	f000 f92b 	bl	401380 <strlen>
  40112a:	6bab      	ldr	r3, [r5, #56]	; 0x38
  40112c:	4f21      	ldr	r7, [pc, #132]	; (4011b4 <_puts_r+0x98>)
  40112e:	9404      	str	r4, [sp, #16]
  401130:	2601      	movs	r6, #1
  401132:	1c44      	adds	r4, r0, #1
  401134:	a904      	add	r1, sp, #16
  401136:	2202      	movs	r2, #2
  401138:	9403      	str	r4, [sp, #12]
  40113a:	9005      	str	r0, [sp, #20]
  40113c:	68ac      	ldr	r4, [r5, #8]
  40113e:	9706      	str	r7, [sp, #24]
  401140:	9607      	str	r6, [sp, #28]
  401142:	9101      	str	r1, [sp, #4]
  401144:	9202      	str	r2, [sp, #8]
  401146:	b353      	cbz	r3, 40119e <_puts_r+0x82>
  401148:	6e63      	ldr	r3, [r4, #100]	; 0x64
  40114a:	f013 0f01 	tst.w	r3, #1
  40114e:	f9b4 300c 	ldrsh.w	r3, [r4, #12]
  401152:	b29a      	uxth	r2, r3
  401154:	d101      	bne.n	40115a <_puts_r+0x3e>
  401156:	0590      	lsls	r0, r2, #22
  401158:	d525      	bpl.n	4011a6 <_puts_r+0x8a>
  40115a:	0491      	lsls	r1, r2, #18
  40115c:	d406      	bmi.n	40116c <_puts_r+0x50>
  40115e:	6e62      	ldr	r2, [r4, #100]	; 0x64
  401160:	f443 5300 	orr.w	r3, r3, #8192	; 0x2000
  401164:	f422 5200 	bic.w	r2, r2, #8192	; 0x2000
  401168:	81a3      	strh	r3, [r4, #12]
  40116a:	6662      	str	r2, [r4, #100]	; 0x64
  40116c:	4628      	mov	r0, r5
  40116e:	aa01      	add	r2, sp, #4
  401170:	4621      	mov	r1, r4
  401172:	f000 fc03 	bl	40197c <__sfvwrite_r>
  401176:	6e63      	ldr	r3, [r4, #100]	; 0x64
  401178:	2800      	cmp	r0, #0
  40117a:	bf0c      	ite	eq
  40117c:	250a      	moveq	r5, #10
  40117e:	f04f 35ff 	movne.w	r5, #4294967295
  401182:	07da      	lsls	r2, r3, #31
  401184:	d402      	bmi.n	40118c <_puts_r+0x70>
  401186:	89a3      	ldrh	r3, [r4, #12]
  401188:	059b      	lsls	r3, r3, #22
  40118a:	d502      	bpl.n	401192 <_puts_r+0x76>
  40118c:	4628      	mov	r0, r5
  40118e:	b009      	add	sp, #36	; 0x24
  401190:	bdf0      	pop	{r4, r5, r6, r7, pc}
  401192:	6da0      	ldr	r0, [r4, #88]	; 0x58
  401194:	f000 fd9a 	bl	401ccc <__retarget_lock_release_recursive>
  401198:	4628      	mov	r0, r5
  40119a:	b009      	add	sp, #36	; 0x24
  40119c:	bdf0      	pop	{r4, r5, r6, r7, pc}
  40119e:	4628      	mov	r0, r5
  4011a0:	f000 fa64 	bl	40166c <__sinit>
  4011a4:	e7d0      	b.n	401148 <_puts_r+0x2c>
  4011a6:	6da0      	ldr	r0, [r4, #88]	; 0x58
  4011a8:	f000 fd8e 	bl	401cc8 <__retarget_lock_acquire_recursive>
  4011ac:	f9b4 300c 	ldrsh.w	r3, [r4, #12]
  4011b0:	b29a      	uxth	r2, r3
  4011b2:	e7d2      	b.n	40115a <_puts_r+0x3e>
  4011b4:	00402da4 	.word	0x00402da4

004011b8 <puts>:
  4011b8:	4b02      	ldr	r3, [pc, #8]	; (4011c4 <puts+0xc>)
  4011ba:	4601      	mov	r1, r0
  4011bc:	6818      	ldr	r0, [r3, #0]
  4011be:	f7ff bfad 	b.w	40111c <_puts_r>
  4011c2:	bf00      	nop
  4011c4:	20400008 	.word	0x20400008

004011c8 <setbuf>:
  4011c8:	2900      	cmp	r1, #0
  4011ca:	bf0c      	ite	eq
  4011cc:	2202      	moveq	r2, #2
  4011ce:	2200      	movne	r2, #0
  4011d0:	f44f 6380 	mov.w	r3, #1024	; 0x400
  4011d4:	f000 b800 	b.w	4011d8 <setvbuf>

004011d8 <setvbuf>:
  4011d8:	e92d 43f0 	stmdb	sp!, {r4, r5, r6, r7, r8, r9, lr}
  4011dc:	4c61      	ldr	r4, [pc, #388]	; (401364 <setvbuf+0x18c>)
  4011de:	6825      	ldr	r5, [r4, #0]
  4011e0:	b083      	sub	sp, #12
  4011e2:	4604      	mov	r4, r0
  4011e4:	460f      	mov	r7, r1
  4011e6:	4690      	mov	r8, r2
  4011e8:	461e      	mov	r6, r3
  4011ea:	b115      	cbz	r5, 4011f2 <setvbuf+0x1a>
  4011ec:	6bab      	ldr	r3, [r5, #56]	; 0x38
  4011ee:	2b00      	cmp	r3, #0
  4011f0:	d064      	beq.n	4012bc <setvbuf+0xe4>
  4011f2:	f1b8 0f02 	cmp.w	r8, #2
  4011f6:	d006      	beq.n	401206 <setvbuf+0x2e>
  4011f8:	f1b8 0f01 	cmp.w	r8, #1
  4011fc:	f200 809f 	bhi.w	40133e <setvbuf+0x166>
  401200:	2e00      	cmp	r6, #0
  401202:	f2c0 809c 	blt.w	40133e <setvbuf+0x166>
  401206:	6e63      	ldr	r3, [r4, #100]	; 0x64
  401208:	07d8      	lsls	r0, r3, #31
  40120a:	d534      	bpl.n	401276 <setvbuf+0x9e>
  40120c:	4621      	mov	r1, r4
  40120e:	4628      	mov	r0, r5
  401210:	f000 f9d4 	bl	4015bc <_fflush_r>
  401214:	6b21      	ldr	r1, [r4, #48]	; 0x30
  401216:	b141      	cbz	r1, 40122a <setvbuf+0x52>
  401218:	f104 0340 	add.w	r3, r4, #64	; 0x40
  40121c:	4299      	cmp	r1, r3
  40121e:	d002      	beq.n	401226 <setvbuf+0x4e>
  401220:	4628      	mov	r0, r5
  401222:	f000 fac5 	bl	4017b0 <_free_r>
  401226:	2300      	movs	r3, #0
  401228:	6323      	str	r3, [r4, #48]	; 0x30
  40122a:	f9b4 300c 	ldrsh.w	r3, [r4, #12]
  40122e:	2200      	movs	r2, #0
  401230:	61a2      	str	r2, [r4, #24]
  401232:	6062      	str	r2, [r4, #4]
  401234:	061a      	lsls	r2, r3, #24
  401236:	d43a      	bmi.n	4012ae <setvbuf+0xd6>
  401238:	f423 634a 	bic.w	r3, r3, #3232	; 0xca0
  40123c:	f023 0303 	bic.w	r3, r3, #3
  401240:	f1b8 0f02 	cmp.w	r8, #2
  401244:	81a3      	strh	r3, [r4, #12]
  401246:	d01d      	beq.n	401284 <setvbuf+0xac>
  401248:	ab01      	add	r3, sp, #4
  40124a:	466a      	mov	r2, sp
  40124c:	4621      	mov	r1, r4
  40124e:	4628      	mov	r0, r5
  401250:	f000 fd3e 	bl	401cd0 <__swhatbuf_r>
  401254:	89a3      	ldrh	r3, [r4, #12]
  401256:	4318      	orrs	r0, r3
  401258:	81a0      	strh	r0, [r4, #12]
  40125a:	2e00      	cmp	r6, #0
  40125c:	d132      	bne.n	4012c4 <setvbuf+0xec>
  40125e:	9e00      	ldr	r6, [sp, #0]
  401260:	4630      	mov	r0, r6
  401262:	f000 fdad 	bl	401dc0 <malloc>
  401266:	4607      	mov	r7, r0
  401268:	2800      	cmp	r0, #0
  40126a:	d06b      	beq.n	401344 <setvbuf+0x16c>
  40126c:	89a3      	ldrh	r3, [r4, #12]
  40126e:	f043 0380 	orr.w	r3, r3, #128	; 0x80
  401272:	81a3      	strh	r3, [r4, #12]
  401274:	e028      	b.n	4012c8 <setvbuf+0xf0>
  401276:	89a3      	ldrh	r3, [r4, #12]
  401278:	0599      	lsls	r1, r3, #22
  40127a:	d4c7      	bmi.n	40120c <setvbuf+0x34>
  40127c:	6da0      	ldr	r0, [r4, #88]	; 0x58
  40127e:	f000 fd23 	bl	401cc8 <__retarget_lock_acquire_recursive>
  401282:	e7c3      	b.n	40120c <setvbuf+0x34>
  401284:	2500      	movs	r5, #0
  401286:	6e61      	ldr	r1, [r4, #100]	; 0x64
  401288:	2600      	movs	r6, #0
  40128a:	f104 0243 	add.w	r2, r4, #67	; 0x43
  40128e:	f043 0302 	orr.w	r3, r3, #2
  401292:	2001      	movs	r0, #1
  401294:	60a6      	str	r6, [r4, #8]
  401296:	07ce      	lsls	r6, r1, #31
  401298:	81a3      	strh	r3, [r4, #12]
  40129a:	6022      	str	r2, [r4, #0]
  40129c:	6122      	str	r2, [r4, #16]
  40129e:	6160      	str	r0, [r4, #20]
  4012a0:	d401      	bmi.n	4012a6 <setvbuf+0xce>
  4012a2:	0598      	lsls	r0, r3, #22
  4012a4:	d53e      	bpl.n	401324 <setvbuf+0x14c>
  4012a6:	4628      	mov	r0, r5
  4012a8:	b003      	add	sp, #12
  4012aa:	e8bd 83f0 	ldmia.w	sp!, {r4, r5, r6, r7, r8, r9, pc}
  4012ae:	6921      	ldr	r1, [r4, #16]
  4012b0:	4628      	mov	r0, r5
  4012b2:	f000 fa7d 	bl	4017b0 <_free_r>
  4012b6:	f9b4 300c 	ldrsh.w	r3, [r4, #12]
  4012ba:	e7bd      	b.n	401238 <setvbuf+0x60>
  4012bc:	4628      	mov	r0, r5
  4012be:	f000 f9d5 	bl	40166c <__sinit>
  4012c2:	e796      	b.n	4011f2 <setvbuf+0x1a>
  4012c4:	2f00      	cmp	r7, #0
  4012c6:	d0cb      	beq.n	401260 <setvbuf+0x88>
  4012c8:	6bab      	ldr	r3, [r5, #56]	; 0x38
  4012ca:	2b00      	cmp	r3, #0
  4012cc:	d033      	beq.n	401336 <setvbuf+0x15e>
  4012ce:	9b00      	ldr	r3, [sp, #0]
  4012d0:	f9b4 200c 	ldrsh.w	r2, [r4, #12]
  4012d4:	6027      	str	r7, [r4, #0]
  4012d6:	429e      	cmp	r6, r3
  4012d8:	bf1c      	itt	ne
  4012da:	f442 6200 	orrne.w	r2, r2, #2048	; 0x800
  4012de:	81a2      	strhne	r2, [r4, #12]
  4012e0:	f1b8 0f01 	cmp.w	r8, #1
  4012e4:	bf04      	itt	eq
  4012e6:	f042 0201 	orreq.w	r2, r2, #1
  4012ea:	81a2      	strheq	r2, [r4, #12]
  4012ec:	b292      	uxth	r2, r2
  4012ee:	f012 0308 	ands.w	r3, r2, #8
  4012f2:	6127      	str	r7, [r4, #16]
  4012f4:	6166      	str	r6, [r4, #20]
  4012f6:	d00e      	beq.n	401316 <setvbuf+0x13e>
  4012f8:	07d1      	lsls	r1, r2, #31
  4012fa:	d51a      	bpl.n	401332 <setvbuf+0x15a>
  4012fc:	6e65      	ldr	r5, [r4, #100]	; 0x64
  4012fe:	4276      	negs	r6, r6
  401300:	2300      	movs	r3, #0
  401302:	f015 0501 	ands.w	r5, r5, #1
  401306:	61a6      	str	r6, [r4, #24]
  401308:	60a3      	str	r3, [r4, #8]
  40130a:	d009      	beq.n	401320 <setvbuf+0x148>
  40130c:	2500      	movs	r5, #0
  40130e:	4628      	mov	r0, r5
  401310:	b003      	add	sp, #12
  401312:	e8bd 83f0 	ldmia.w	sp!, {r4, r5, r6, r7, r8, r9, pc}
  401316:	60a3      	str	r3, [r4, #8]
  401318:	6e65      	ldr	r5, [r4, #100]	; 0x64
  40131a:	f015 0501 	ands.w	r5, r5, #1
  40131e:	d1f5      	bne.n	40130c <setvbuf+0x134>
  401320:	0593      	lsls	r3, r2, #22
  401322:	d4c0      	bmi.n	4012a6 <setvbuf+0xce>
  401324:	6da0      	ldr	r0, [r4, #88]	; 0x58
  401326:	f000 fcd1 	bl	401ccc <__retarget_lock_release_recursive>
  40132a:	4628      	mov	r0, r5
  40132c:	b003      	add	sp, #12
  40132e:	e8bd 83f0 	ldmia.w	sp!, {r4, r5, r6, r7, r8, r9, pc}
  401332:	60a6      	str	r6, [r4, #8]
  401334:	e7f0      	b.n	401318 <setvbuf+0x140>
  401336:	4628      	mov	r0, r5
  401338:	f000 f998 	bl	40166c <__sinit>
  40133c:	e7c7      	b.n	4012ce <setvbuf+0xf6>
  40133e:	f04f 35ff 	mov.w	r5, #4294967295
  401342:	e7b0      	b.n	4012a6 <setvbuf+0xce>
  401344:	f8dd 9000 	ldr.w	r9, [sp]
  401348:	45b1      	cmp	r9, r6
  40134a:	d004      	beq.n	401356 <setvbuf+0x17e>
  40134c:	4648      	mov	r0, r9
  40134e:	f000 fd37 	bl	401dc0 <malloc>
  401352:	4607      	mov	r7, r0
  401354:	b920      	cbnz	r0, 401360 <setvbuf+0x188>
  401356:	f9b4 300c 	ldrsh.w	r3, [r4, #12]
  40135a:	f04f 35ff 	mov.w	r5, #4294967295
  40135e:	e792      	b.n	401286 <setvbuf+0xae>
  401360:	464e      	mov	r6, r9
  401362:	e783      	b.n	40126c <setvbuf+0x94>
  401364:	20400008 	.word	0x20400008
	...

00401380 <strlen>:
  401380:	f890 f000 	pld	[r0]
  401384:	e96d 4502 	strd	r4, r5, [sp, #-8]!
  401388:	f020 0107 	bic.w	r1, r0, #7
  40138c:	f06f 0c00 	mvn.w	ip, #0
  401390:	f010 0407 	ands.w	r4, r0, #7
  401394:	f891 f020 	pld	[r1, #32]
  401398:	f040 8049 	bne.w	40142e <strlen+0xae>
  40139c:	f04f 0400 	mov.w	r4, #0
  4013a0:	f06f 0007 	mvn.w	r0, #7
  4013a4:	e9d1 2300 	ldrd	r2, r3, [r1]
  4013a8:	f891 f040 	pld	[r1, #64]	; 0x40
  4013ac:	f100 0008 	add.w	r0, r0, #8
  4013b0:	fa82 f24c 	uadd8	r2, r2, ip
  4013b4:	faa4 f28c 	sel	r2, r4, ip
  4013b8:	fa83 f34c 	uadd8	r3, r3, ip
  4013bc:	faa2 f38c 	sel	r3, r2, ip
  4013c0:	bb4b      	cbnz	r3, 401416 <strlen+0x96>
  4013c2:	e9d1 2302 	ldrd	r2, r3, [r1, #8]
  4013c6:	fa82 f24c 	uadd8	r2, r2, ip
  4013ca:	f100 0008 	add.w	r0, r0, #8
  4013ce:	faa4 f28c 	sel	r2, r4, ip
  4013d2:	fa83 f34c 	uadd8	r3, r3, ip
  4013d6:	faa2 f38c 	sel	r3, r2, ip
  4013da:	b9e3      	cbnz	r3, 401416 <strlen+0x96>
  4013dc:	e9d1 2304 	ldrd	r2, r3, [r1, #16]
  4013e0:	fa82 f24c 	uadd8	r2, r2, ip
  4013e4:	f100 0008 	add.w	r0, r0, #8
  4013e8:	faa4 f28c 	sel	r2, r4, ip
  4013ec:	fa83 f34c 	uadd8	r3, r3, ip
  4013f0:	faa2 f38c 	sel	r3, r2, ip
  4013f4:	b97b      	cbnz	r3, 401416 <strlen+0x96>
  4013f6:	e9d1 2306 	ldrd	r2, r3, [r1, #24]
  4013fa:	f101 0120 	add.w	r1, r1, #32
  4013fe:	fa82 f24c 	uadd8	r2, r2, ip
  401402:	f100 0008 	add.w	r0, r0, #8
  401406:	faa4 f28c 	sel	r2, r4, ip
  40140a:	fa83 f34c 	uadd8	r3, r3, ip
  40140e:	faa2 f38c 	sel	r3, r2, ip
  401412:	2b00      	cmp	r3, #0
  401414:	d0c6      	beq.n	4013a4 <strlen+0x24>
  401416:	2a00      	cmp	r2, #0
  401418:	bf04      	itt	eq
  40141a:	3004      	addeq	r0, #4
  40141c:	461a      	moveq	r2, r3
  40141e:	ba12      	rev	r2, r2
  401420:	fab2 f282 	clz	r2, r2
  401424:	e8fd 4502 	ldrd	r4, r5, [sp], #8
  401428:	eb00 00d2 	add.w	r0, r0, r2, lsr #3
  40142c:	4770      	bx	lr
  40142e:	e9d1 2300 	ldrd	r2, r3, [r1]
  401432:	f004 0503 	and.w	r5, r4, #3
  401436:	f1c4 0000 	rsb	r0, r4, #0
  40143a:	ea4f 05c5 	mov.w	r5, r5, lsl #3
  40143e:	f014 0f04 	tst.w	r4, #4
  401442:	f891 f040 	pld	[r1, #64]	; 0x40
  401446:	fa0c f505 	lsl.w	r5, ip, r5
  40144a:	ea62 0205 	orn	r2, r2, r5
  40144e:	bf1c      	itt	ne
  401450:	ea63 0305 	ornne	r3, r3, r5
  401454:	4662      	movne	r2, ip
  401456:	f04f 0400 	mov.w	r4, #0
  40145a:	e7a9      	b.n	4013b0 <strlen+0x30>

0040145c <register_fini>:
  40145c:	4b02      	ldr	r3, [pc, #8]	; (401468 <register_fini+0xc>)
  40145e:	b113      	cbz	r3, 401466 <register_fini+0xa>
  401460:	4802      	ldr	r0, [pc, #8]	; (40146c <register_fini+0x10>)
  401462:	f000 b805 	b.w	401470 <atexit>
  401466:	4770      	bx	lr
  401468:	00000000 	.word	0x00000000
  40146c:	004016dd 	.word	0x004016dd

00401470 <atexit>:
  401470:	2300      	movs	r3, #0
  401472:	4601      	mov	r1, r0
  401474:	461a      	mov	r2, r3
  401476:	4618      	mov	r0, r3
  401478:	f001 bb2a 	b.w	402ad0 <__register_exitproc>

0040147c <__sflush_r>:
  40147c:	f9b1 300c 	ldrsh.w	r3, [r1, #12]
  401480:	b29a      	uxth	r2, r3
  401482:	e92d 41f0 	stmdb	sp!, {r4, r5, r6, r7, r8, lr}
  401486:	460d      	mov	r5, r1
  401488:	0711      	lsls	r1, r2, #28
  40148a:	4680      	mov	r8, r0
  40148c:	d43a      	bmi.n	401504 <__sflush_r+0x88>
  40148e:	686a      	ldr	r2, [r5, #4]
  401490:	f443 6300 	orr.w	r3, r3, #2048	; 0x800
  401494:	2a00      	cmp	r2, #0
  401496:	81ab      	strh	r3, [r5, #12]
  401498:	dd6f      	ble.n	40157a <__sflush_r+0xfe>
  40149a:	6aac      	ldr	r4, [r5, #40]	; 0x28
  40149c:	2c00      	cmp	r4, #0
  40149e:	d049      	beq.n	401534 <__sflush_r+0xb8>
  4014a0:	2200      	movs	r2, #0
  4014a2:	b29b      	uxth	r3, r3
  4014a4:	f8d8 6000 	ldr.w	r6, [r8]
  4014a8:	f8c8 2000 	str.w	r2, [r8]
  4014ac:	f413 5280 	ands.w	r2, r3, #4096	; 0x1000
  4014b0:	d067      	beq.n	401582 <__sflush_r+0x106>
  4014b2:	6d2a      	ldr	r2, [r5, #80]	; 0x50
  4014b4:	075f      	lsls	r7, r3, #29
  4014b6:	d505      	bpl.n	4014c4 <__sflush_r+0x48>
  4014b8:	6869      	ldr	r1, [r5, #4]
  4014ba:	6b2b      	ldr	r3, [r5, #48]	; 0x30
  4014bc:	1a52      	subs	r2, r2, r1
  4014be:	b10b      	cbz	r3, 4014c4 <__sflush_r+0x48>
  4014c0:	6beb      	ldr	r3, [r5, #60]	; 0x3c
  4014c2:	1ad2      	subs	r2, r2, r3
  4014c4:	2300      	movs	r3, #0
  4014c6:	69e9      	ldr	r1, [r5, #28]
  4014c8:	4640      	mov	r0, r8
  4014ca:	47a0      	blx	r4
  4014cc:	1c44      	adds	r4, r0, #1
  4014ce:	d03c      	beq.n	40154a <__sflush_r+0xce>
  4014d0:	f9b5 300c 	ldrsh.w	r3, [r5, #12]
  4014d4:	692a      	ldr	r2, [r5, #16]
  4014d6:	602a      	str	r2, [r5, #0]
  4014d8:	f423 6300 	bic.w	r3, r3, #2048	; 0x800
  4014dc:	2200      	movs	r2, #0
  4014de:	81ab      	strh	r3, [r5, #12]
  4014e0:	04db      	lsls	r3, r3, #19
  4014e2:	606a      	str	r2, [r5, #4]
  4014e4:	d447      	bmi.n	401576 <__sflush_r+0xfa>
  4014e6:	6b29      	ldr	r1, [r5, #48]	; 0x30
  4014e8:	f8c8 6000 	str.w	r6, [r8]
  4014ec:	b311      	cbz	r1, 401534 <__sflush_r+0xb8>
  4014ee:	f105 0340 	add.w	r3, r5, #64	; 0x40
  4014f2:	4299      	cmp	r1, r3
  4014f4:	d002      	beq.n	4014fc <__sflush_r+0x80>
  4014f6:	4640      	mov	r0, r8
  4014f8:	f000 f95a 	bl	4017b0 <_free_r>
  4014fc:	2000      	movs	r0, #0
  4014fe:	6328      	str	r0, [r5, #48]	; 0x30
  401500:	e8bd 81f0 	ldmia.w	sp!, {r4, r5, r6, r7, r8, pc}
  401504:	692e      	ldr	r6, [r5, #16]
  401506:	b1ae      	cbz	r6, 401534 <__sflush_r+0xb8>
  401508:	682c      	ldr	r4, [r5, #0]
  40150a:	602e      	str	r6, [r5, #0]
  40150c:	0791      	lsls	r1, r2, #30
  40150e:	bf0c      	ite	eq
  401510:	696b      	ldreq	r3, [r5, #20]
  401512:	2300      	movne	r3, #0
  401514:	1ba4      	subs	r4, r4, r6
  401516:	60ab      	str	r3, [r5, #8]
  401518:	e00a      	b.n	401530 <__sflush_r+0xb4>
  40151a:	4623      	mov	r3, r4
  40151c:	4632      	mov	r2, r6
  40151e:	6a6f      	ldr	r7, [r5, #36]	; 0x24
  401520:	69e9      	ldr	r1, [r5, #28]
  401522:	4640      	mov	r0, r8
  401524:	47b8      	blx	r7
  401526:	2800      	cmp	r0, #0
  401528:	eba4 0400 	sub.w	r4, r4, r0
  40152c:	4406      	add	r6, r0
  40152e:	dd04      	ble.n	40153a <__sflush_r+0xbe>
  401530:	2c00      	cmp	r4, #0
  401532:	dcf2      	bgt.n	40151a <__sflush_r+0x9e>
  401534:	2000      	movs	r0, #0
  401536:	e8bd 81f0 	ldmia.w	sp!, {r4, r5, r6, r7, r8, pc}
  40153a:	89ab      	ldrh	r3, [r5, #12]
  40153c:	f043 0340 	orr.w	r3, r3, #64	; 0x40
  401540:	81ab      	strh	r3, [r5, #12]
  401542:	f04f 30ff 	mov.w	r0, #4294967295
  401546:	e8bd 81f0 	ldmia.w	sp!, {r4, r5, r6, r7, r8, pc}
  40154a:	f8d8 4000 	ldr.w	r4, [r8]
  40154e:	2c1d      	cmp	r4, #29
  401550:	d8f3      	bhi.n	40153a <__sflush_r+0xbe>
  401552:	4b19      	ldr	r3, [pc, #100]	; (4015b8 <__sflush_r+0x13c>)
  401554:	40e3      	lsrs	r3, r4
  401556:	43db      	mvns	r3, r3
  401558:	f013 0301 	ands.w	r3, r3, #1
  40155c:	d1ed      	bne.n	40153a <__sflush_r+0xbe>
  40155e:	f9b5 200c 	ldrsh.w	r2, [r5, #12]
  401562:	606b      	str	r3, [r5, #4]
  401564:	f422 6300 	bic.w	r3, r2, #2048	; 0x800
  401568:	6929      	ldr	r1, [r5, #16]
  40156a:	81ab      	strh	r3, [r5, #12]
  40156c:	04da      	lsls	r2, r3, #19
  40156e:	6029      	str	r1, [r5, #0]
  401570:	d5b9      	bpl.n	4014e6 <__sflush_r+0x6a>
  401572:	2c00      	cmp	r4, #0
  401574:	d1b7      	bne.n	4014e6 <__sflush_r+0x6a>
  401576:	6528      	str	r0, [r5, #80]	; 0x50
  401578:	e7b5      	b.n	4014e6 <__sflush_r+0x6a>
  40157a:	6bea      	ldr	r2, [r5, #60]	; 0x3c
  40157c:	2a00      	cmp	r2, #0
  40157e:	dc8c      	bgt.n	40149a <__sflush_r+0x1e>
  401580:	e7d8      	b.n	401534 <__sflush_r+0xb8>
  401582:	2301      	movs	r3, #1
  401584:	69e9      	ldr	r1, [r5, #28]
  401586:	4640      	mov	r0, r8
  401588:	47a0      	blx	r4
  40158a:	1c43      	adds	r3, r0, #1
  40158c:	4602      	mov	r2, r0
  40158e:	d002      	beq.n	401596 <__sflush_r+0x11a>
  401590:	89ab      	ldrh	r3, [r5, #12]
  401592:	6aac      	ldr	r4, [r5, #40]	; 0x28
  401594:	e78e      	b.n	4014b4 <__sflush_r+0x38>
  401596:	f8d8 3000 	ldr.w	r3, [r8]
  40159a:	2b00      	cmp	r3, #0
  40159c:	d0f8      	beq.n	401590 <__sflush_r+0x114>
  40159e:	2b1d      	cmp	r3, #29
  4015a0:	d001      	beq.n	4015a6 <__sflush_r+0x12a>
  4015a2:	2b16      	cmp	r3, #22
  4015a4:	d102      	bne.n	4015ac <__sflush_r+0x130>
  4015a6:	f8c8 6000 	str.w	r6, [r8]
  4015aa:	e7c3      	b.n	401534 <__sflush_r+0xb8>
  4015ac:	89ab      	ldrh	r3, [r5, #12]
  4015ae:	f043 0340 	orr.w	r3, r3, #64	; 0x40
  4015b2:	81ab      	strh	r3, [r5, #12]
  4015b4:	e8bd 81f0 	ldmia.w	sp!, {r4, r5, r6, r7, r8, pc}
  4015b8:	20400001 	.word	0x20400001

004015bc <_fflush_r>:
  4015bc:	b538      	push	{r3, r4, r5, lr}
  4015be:	460d      	mov	r5, r1
  4015c0:	4604      	mov	r4, r0
  4015c2:	b108      	cbz	r0, 4015c8 <_fflush_r+0xc>
  4015c4:	6b83      	ldr	r3, [r0, #56]	; 0x38
  4015c6:	b1bb      	cbz	r3, 4015f8 <_fflush_r+0x3c>
  4015c8:	f9b5 000c 	ldrsh.w	r0, [r5, #12]
  4015cc:	b188      	cbz	r0, 4015f2 <_fflush_r+0x36>
  4015ce:	6e6b      	ldr	r3, [r5, #100]	; 0x64
  4015d0:	07db      	lsls	r3, r3, #31
  4015d2:	d401      	bmi.n	4015d8 <_fflush_r+0x1c>
  4015d4:	0581      	lsls	r1, r0, #22
  4015d6:	d517      	bpl.n	401608 <_fflush_r+0x4c>
  4015d8:	4620      	mov	r0, r4
  4015da:	4629      	mov	r1, r5
  4015dc:	f7ff ff4e 	bl	40147c <__sflush_r>
  4015e0:	6e6b      	ldr	r3, [r5, #100]	; 0x64
  4015e2:	07da      	lsls	r2, r3, #31
  4015e4:	4604      	mov	r4, r0
  4015e6:	d402      	bmi.n	4015ee <_fflush_r+0x32>
  4015e8:	89ab      	ldrh	r3, [r5, #12]
  4015ea:	059b      	lsls	r3, r3, #22
  4015ec:	d507      	bpl.n	4015fe <_fflush_r+0x42>
  4015ee:	4620      	mov	r0, r4
  4015f0:	bd38      	pop	{r3, r4, r5, pc}
  4015f2:	4604      	mov	r4, r0
  4015f4:	4620      	mov	r0, r4
  4015f6:	bd38      	pop	{r3, r4, r5, pc}
  4015f8:	f000 f838 	bl	40166c <__sinit>
  4015fc:	e7e4      	b.n	4015c8 <_fflush_r+0xc>
  4015fe:	6da8      	ldr	r0, [r5, #88]	; 0x58
  401600:	f000 fb64 	bl	401ccc <__retarget_lock_release_recursive>
  401604:	4620      	mov	r0, r4
  401606:	bd38      	pop	{r3, r4, r5, pc}
  401608:	6da8      	ldr	r0, [r5, #88]	; 0x58
  40160a:	f000 fb5d 	bl	401cc8 <__retarget_lock_acquire_recursive>
  40160e:	e7e3      	b.n	4015d8 <_fflush_r+0x1c>

00401610 <_cleanup_r>:
  401610:	4901      	ldr	r1, [pc, #4]	; (401618 <_cleanup_r+0x8>)
  401612:	f000 bb2b 	b.w	401c6c <_fwalk_reent>
  401616:	bf00      	nop
  401618:	00402bb9 	.word	0x00402bb9

0040161c <std.isra.0>:
  40161c:	b510      	push	{r4, lr}
  40161e:	2300      	movs	r3, #0
  401620:	4604      	mov	r4, r0
  401622:	8181      	strh	r1, [r0, #12]
  401624:	81c2      	strh	r2, [r0, #14]
  401626:	6003      	str	r3, [r0, #0]
  401628:	6043      	str	r3, [r0, #4]
  40162a:	6083      	str	r3, [r0, #8]
  40162c:	6643      	str	r3, [r0, #100]	; 0x64
  40162e:	6103      	str	r3, [r0, #16]
  401630:	6143      	str	r3, [r0, #20]
  401632:	6183      	str	r3, [r0, #24]
  401634:	4619      	mov	r1, r3
  401636:	2208      	movs	r2, #8
  401638:	305c      	adds	r0, #92	; 0x5c
  40163a:	f7ff fd21 	bl	401080 <memset>
  40163e:	4807      	ldr	r0, [pc, #28]	; (40165c <std.isra.0+0x40>)
  401640:	4907      	ldr	r1, [pc, #28]	; (401660 <std.isra.0+0x44>)
  401642:	4a08      	ldr	r2, [pc, #32]	; (401664 <std.isra.0+0x48>)
  401644:	4b08      	ldr	r3, [pc, #32]	; (401668 <std.isra.0+0x4c>)
  401646:	6220      	str	r0, [r4, #32]
  401648:	61e4      	str	r4, [r4, #28]
  40164a:	6261      	str	r1, [r4, #36]	; 0x24
  40164c:	62a2      	str	r2, [r4, #40]	; 0x28
  40164e:	62e3      	str	r3, [r4, #44]	; 0x2c
  401650:	f104 0058 	add.w	r0, r4, #88	; 0x58
  401654:	e8bd 4010 	ldmia.w	sp!, {r4, lr}
  401658:	f000 bb32 	b.w	401cc0 <__retarget_lock_init_recursive>
  40165c:	00402955 	.word	0x00402955
  401660:	00402979 	.word	0x00402979
  401664:	004029b5 	.word	0x004029b5
  401668:	004029d5 	.word	0x004029d5

0040166c <__sinit>:
  40166c:	b510      	push	{r4, lr}
  40166e:	4604      	mov	r4, r0
  401670:	4812      	ldr	r0, [pc, #72]	; (4016bc <__sinit+0x50>)
  401672:	f000 fb29 	bl	401cc8 <__retarget_lock_acquire_recursive>
  401676:	6ba2      	ldr	r2, [r4, #56]	; 0x38
  401678:	b9d2      	cbnz	r2, 4016b0 <__sinit+0x44>
  40167a:	f504 733b 	add.w	r3, r4, #748	; 0x2ec
  40167e:	4810      	ldr	r0, [pc, #64]	; (4016c0 <__sinit+0x54>)
  401680:	f8c4 32e8 	str.w	r3, [r4, #744]	; 0x2e8
  401684:	2103      	movs	r1, #3
  401686:	f8c4 22e0 	str.w	r2, [r4, #736]	; 0x2e0
  40168a:	63e0      	str	r0, [r4, #60]	; 0x3c
  40168c:	f8c4 12e4 	str.w	r1, [r4, #740]	; 0x2e4
  401690:	6860      	ldr	r0, [r4, #4]
  401692:	2104      	movs	r1, #4
  401694:	f7ff ffc2 	bl	40161c <std.isra.0>
  401698:	2201      	movs	r2, #1
  40169a:	2109      	movs	r1, #9
  40169c:	68a0      	ldr	r0, [r4, #8]
  40169e:	f7ff ffbd 	bl	40161c <std.isra.0>
  4016a2:	2202      	movs	r2, #2
  4016a4:	2112      	movs	r1, #18
  4016a6:	68e0      	ldr	r0, [r4, #12]
  4016a8:	f7ff ffb8 	bl	40161c <std.isra.0>
  4016ac:	2301      	movs	r3, #1
  4016ae:	63a3      	str	r3, [r4, #56]	; 0x38
  4016b0:	4802      	ldr	r0, [pc, #8]	; (4016bc <__sinit+0x50>)
  4016b2:	e8bd 4010 	ldmia.w	sp!, {r4, lr}
  4016b6:	f000 bb09 	b.w	401ccc <__retarget_lock_release_recursive>
  4016ba:	bf00      	nop
  4016bc:	20400938 	.word	0x20400938
  4016c0:	00401611 	.word	0x00401611

004016c4 <__sfp_lock_acquire>:
  4016c4:	4801      	ldr	r0, [pc, #4]	; (4016cc <__sfp_lock_acquire+0x8>)
  4016c6:	f000 baff 	b.w	401cc8 <__retarget_lock_acquire_recursive>
  4016ca:	bf00      	nop
  4016cc:	2040094c 	.word	0x2040094c

004016d0 <__sfp_lock_release>:
  4016d0:	4801      	ldr	r0, [pc, #4]	; (4016d8 <__sfp_lock_release+0x8>)
  4016d2:	f000 bafb 	b.w	401ccc <__retarget_lock_release_recursive>
  4016d6:	bf00      	nop
  4016d8:	2040094c 	.word	0x2040094c

004016dc <__libc_fini_array>:
  4016dc:	b538      	push	{r3, r4, r5, lr}
  4016de:	4c0a      	ldr	r4, [pc, #40]	; (401708 <__libc_fini_array+0x2c>)
  4016e0:	4d0a      	ldr	r5, [pc, #40]	; (40170c <__libc_fini_array+0x30>)
  4016e2:	1b64      	subs	r4, r4, r5
  4016e4:	10a4      	asrs	r4, r4, #2
  4016e6:	d00a      	beq.n	4016fe <__libc_fini_array+0x22>
  4016e8:	f104 4380 	add.w	r3, r4, #1073741824	; 0x40000000
  4016ec:	3b01      	subs	r3, #1
  4016ee:	eb05 0583 	add.w	r5, r5, r3, lsl #2
  4016f2:	3c01      	subs	r4, #1
  4016f4:	f855 3904 	ldr.w	r3, [r5], #-4
  4016f8:	4798      	blx	r3
  4016fa:	2c00      	cmp	r4, #0
  4016fc:	d1f9      	bne.n	4016f2 <__libc_fini_array+0x16>
  4016fe:	e8bd 4038 	ldmia.w	sp!, {r3, r4, r5, lr}
  401702:	f001 bb5b 	b.w	402dbc <_fini>
  401706:	bf00      	nop
  401708:	00402dcc 	.word	0x00402dcc
  40170c:	00402dc8 	.word	0x00402dc8

00401710 <_malloc_trim_r>:
  401710:	b5f8      	push	{r3, r4, r5, r6, r7, lr}
  401712:	4f24      	ldr	r7, [pc, #144]	; (4017a4 <_malloc_trim_r+0x94>)
  401714:	460c      	mov	r4, r1
  401716:	4606      	mov	r6, r0
  401718:	f000 ff58 	bl	4025cc <__malloc_lock>
  40171c:	68bb      	ldr	r3, [r7, #8]
  40171e:	685d      	ldr	r5, [r3, #4]
  401720:	f5c4 617e 	rsb	r1, r4, #4064	; 0xfe0
  401724:	310f      	adds	r1, #15
  401726:	f025 0503 	bic.w	r5, r5, #3
  40172a:	4429      	add	r1, r5
  40172c:	f421 617f 	bic.w	r1, r1, #4080	; 0xff0
  401730:	f021 010f 	bic.w	r1, r1, #15
  401734:	f5a1 5480 	sub.w	r4, r1, #4096	; 0x1000
  401738:	f5b4 5f80 	cmp.w	r4, #4096	; 0x1000
  40173c:	db07      	blt.n	40174e <_malloc_trim_r+0x3e>
  40173e:	2100      	movs	r1, #0
  401740:	4630      	mov	r0, r6
  401742:	f001 f8f5 	bl	402930 <_sbrk_r>
  401746:	68bb      	ldr	r3, [r7, #8]
  401748:	442b      	add	r3, r5
  40174a:	4298      	cmp	r0, r3
  40174c:	d004      	beq.n	401758 <_malloc_trim_r+0x48>
  40174e:	4630      	mov	r0, r6
  401750:	f000 ff42 	bl	4025d8 <__malloc_unlock>
  401754:	2000      	movs	r0, #0
  401756:	bdf8      	pop	{r3, r4, r5, r6, r7, pc}
  401758:	4261      	negs	r1, r4
  40175a:	4630      	mov	r0, r6
  40175c:	f001 f8e8 	bl	402930 <_sbrk_r>
  401760:	3001      	adds	r0, #1
  401762:	d00d      	beq.n	401780 <_malloc_trim_r+0x70>
  401764:	4b10      	ldr	r3, [pc, #64]	; (4017a8 <_malloc_trim_r+0x98>)
  401766:	68ba      	ldr	r2, [r7, #8]
  401768:	6819      	ldr	r1, [r3, #0]
  40176a:	1b2d      	subs	r5, r5, r4
  40176c:	f045 0501 	orr.w	r5, r5, #1
  401770:	4630      	mov	r0, r6
  401772:	1b09      	subs	r1, r1, r4
  401774:	6055      	str	r5, [r2, #4]
  401776:	6019      	str	r1, [r3, #0]
  401778:	f000 ff2e 	bl	4025d8 <__malloc_unlock>
  40177c:	2001      	movs	r0, #1
  40177e:	bdf8      	pop	{r3, r4, r5, r6, r7, pc}
  401780:	2100      	movs	r1, #0
  401782:	4630      	mov	r0, r6
  401784:	f001 f8d4 	bl	402930 <_sbrk_r>
  401788:	68ba      	ldr	r2, [r7, #8]
  40178a:	1a83      	subs	r3, r0, r2
  40178c:	2b0f      	cmp	r3, #15
  40178e:	ddde      	ble.n	40174e <_malloc_trim_r+0x3e>
  401790:	4c06      	ldr	r4, [pc, #24]	; (4017ac <_malloc_trim_r+0x9c>)
  401792:	4905      	ldr	r1, [pc, #20]	; (4017a8 <_malloc_trim_r+0x98>)
  401794:	6824      	ldr	r4, [r4, #0]
  401796:	f043 0301 	orr.w	r3, r3, #1
  40179a:	1b00      	subs	r0, r0, r4
  40179c:	6053      	str	r3, [r2, #4]
  40179e:	6008      	str	r0, [r1, #0]
  4017a0:	e7d5      	b.n	40174e <_malloc_trim_r+0x3e>
  4017a2:	bf00      	nop
  4017a4:	2040043c 	.word	0x2040043c
  4017a8:	204008ec 	.word	0x204008ec
  4017ac:	20400844 	.word	0x20400844

004017b0 <_free_r>:
  4017b0:	2900      	cmp	r1, #0
  4017b2:	d044      	beq.n	40183e <_free_r+0x8e>
  4017b4:	e92d 41f0 	stmdb	sp!, {r4, r5, r6, r7, r8, lr}
  4017b8:	460d      	mov	r5, r1
  4017ba:	4680      	mov	r8, r0
  4017bc:	f000 ff06 	bl	4025cc <__malloc_lock>
  4017c0:	f855 7c04 	ldr.w	r7, [r5, #-4]
  4017c4:	4969      	ldr	r1, [pc, #420]	; (40196c <_free_r+0x1bc>)
  4017c6:	f027 0301 	bic.w	r3, r7, #1
  4017ca:	f1a5 0408 	sub.w	r4, r5, #8
  4017ce:	18e2      	adds	r2, r4, r3
  4017d0:	688e      	ldr	r6, [r1, #8]
  4017d2:	6850      	ldr	r0, [r2, #4]
  4017d4:	42b2      	cmp	r2, r6
  4017d6:	f020 0003 	bic.w	r0, r0, #3
  4017da:	d05e      	beq.n	40189a <_free_r+0xea>
  4017dc:	07fe      	lsls	r6, r7, #31
  4017de:	6050      	str	r0, [r2, #4]
  4017e0:	d40b      	bmi.n	4017fa <_free_r+0x4a>
  4017e2:	f855 7c08 	ldr.w	r7, [r5, #-8]
  4017e6:	1be4      	subs	r4, r4, r7
  4017e8:	f101 0e08 	add.w	lr, r1, #8
  4017ec:	68a5      	ldr	r5, [r4, #8]
  4017ee:	4575      	cmp	r5, lr
  4017f0:	443b      	add	r3, r7
  4017f2:	d06d      	beq.n	4018d0 <_free_r+0x120>
  4017f4:	68e7      	ldr	r7, [r4, #12]
  4017f6:	60ef      	str	r7, [r5, #12]
  4017f8:	60bd      	str	r5, [r7, #8]
  4017fa:	1815      	adds	r5, r2, r0
  4017fc:	686d      	ldr	r5, [r5, #4]
  4017fe:	07ed      	lsls	r5, r5, #31
  401800:	d53e      	bpl.n	401880 <_free_r+0xd0>
  401802:	f043 0201 	orr.w	r2, r3, #1
  401806:	6062      	str	r2, [r4, #4]
  401808:	50e3      	str	r3, [r4, r3]
  40180a:	f5b3 7f00 	cmp.w	r3, #512	; 0x200
  40180e:	d217      	bcs.n	401840 <_free_r+0x90>
  401810:	08db      	lsrs	r3, r3, #3
  401812:	1c58      	adds	r0, r3, #1
  401814:	109a      	asrs	r2, r3, #2
  401816:	684d      	ldr	r5, [r1, #4]
  401818:	f851 7030 	ldr.w	r7, [r1, r0, lsl #3]
  40181c:	60a7      	str	r7, [r4, #8]
  40181e:	2301      	movs	r3, #1
  401820:	4093      	lsls	r3, r2
  401822:	eb01 02c0 	add.w	r2, r1, r0, lsl #3
  401826:	432b      	orrs	r3, r5
  401828:	3a08      	subs	r2, #8
  40182a:	60e2      	str	r2, [r4, #12]
  40182c:	604b      	str	r3, [r1, #4]
  40182e:	f841 4030 	str.w	r4, [r1, r0, lsl #3]
  401832:	60fc      	str	r4, [r7, #12]
  401834:	4640      	mov	r0, r8
  401836:	e8bd 41f0 	ldmia.w	sp!, {r4, r5, r6, r7, r8, lr}
  40183a:	f000 becd 	b.w	4025d8 <__malloc_unlock>
  40183e:	4770      	bx	lr
  401840:	0a5a      	lsrs	r2, r3, #9
  401842:	2a04      	cmp	r2, #4
  401844:	d852      	bhi.n	4018ec <_free_r+0x13c>
  401846:	099a      	lsrs	r2, r3, #6
  401848:	f102 0739 	add.w	r7, r2, #57	; 0x39
  40184c:	00ff      	lsls	r7, r7, #3
  40184e:	f102 0538 	add.w	r5, r2, #56	; 0x38
  401852:	19c8      	adds	r0, r1, r7
  401854:	59ca      	ldr	r2, [r1, r7]
  401856:	3808      	subs	r0, #8
  401858:	4290      	cmp	r0, r2
  40185a:	d04f      	beq.n	4018fc <_free_r+0x14c>
  40185c:	6851      	ldr	r1, [r2, #4]
  40185e:	f021 0103 	bic.w	r1, r1, #3
  401862:	428b      	cmp	r3, r1
  401864:	d232      	bcs.n	4018cc <_free_r+0x11c>
  401866:	6892      	ldr	r2, [r2, #8]
  401868:	4290      	cmp	r0, r2
  40186a:	d1f7      	bne.n	40185c <_free_r+0xac>
  40186c:	68c3      	ldr	r3, [r0, #12]
  40186e:	60a0      	str	r0, [r4, #8]
  401870:	60e3      	str	r3, [r4, #12]
  401872:	609c      	str	r4, [r3, #8]
  401874:	60c4      	str	r4, [r0, #12]
  401876:	4640      	mov	r0, r8
  401878:	e8bd 41f0 	ldmia.w	sp!, {r4, r5, r6, r7, r8, lr}
  40187c:	f000 beac 	b.w	4025d8 <__malloc_unlock>
  401880:	6895      	ldr	r5, [r2, #8]
  401882:	4f3b      	ldr	r7, [pc, #236]	; (401970 <_free_r+0x1c0>)
  401884:	42bd      	cmp	r5, r7
  401886:	4403      	add	r3, r0
  401888:	d040      	beq.n	40190c <_free_r+0x15c>
  40188a:	68d0      	ldr	r0, [r2, #12]
  40188c:	60e8      	str	r0, [r5, #12]
  40188e:	f043 0201 	orr.w	r2, r3, #1
  401892:	6085      	str	r5, [r0, #8]
  401894:	6062      	str	r2, [r4, #4]
  401896:	50e3      	str	r3, [r4, r3]
  401898:	e7b7      	b.n	40180a <_free_r+0x5a>
  40189a:	07ff      	lsls	r7, r7, #31
  40189c:	4403      	add	r3, r0
  40189e:	d407      	bmi.n	4018b0 <_free_r+0x100>
  4018a0:	f855 2c08 	ldr.w	r2, [r5, #-8]
  4018a4:	1aa4      	subs	r4, r4, r2
  4018a6:	4413      	add	r3, r2
  4018a8:	68a0      	ldr	r0, [r4, #8]
  4018aa:	68e2      	ldr	r2, [r4, #12]
  4018ac:	60c2      	str	r2, [r0, #12]
  4018ae:	6090      	str	r0, [r2, #8]
  4018b0:	4a30      	ldr	r2, [pc, #192]	; (401974 <_free_r+0x1c4>)
  4018b2:	6812      	ldr	r2, [r2, #0]
  4018b4:	f043 0001 	orr.w	r0, r3, #1
  4018b8:	4293      	cmp	r3, r2
  4018ba:	6060      	str	r0, [r4, #4]
  4018bc:	608c      	str	r4, [r1, #8]
  4018be:	d3b9      	bcc.n	401834 <_free_r+0x84>
  4018c0:	4b2d      	ldr	r3, [pc, #180]	; (401978 <_free_r+0x1c8>)
  4018c2:	4640      	mov	r0, r8
  4018c4:	6819      	ldr	r1, [r3, #0]
  4018c6:	f7ff ff23 	bl	401710 <_malloc_trim_r>
  4018ca:	e7b3      	b.n	401834 <_free_r+0x84>
  4018cc:	4610      	mov	r0, r2
  4018ce:	e7cd      	b.n	40186c <_free_r+0xbc>
  4018d0:	1811      	adds	r1, r2, r0
  4018d2:	6849      	ldr	r1, [r1, #4]
  4018d4:	07c9      	lsls	r1, r1, #31
  4018d6:	d444      	bmi.n	401962 <_free_r+0x1b2>
  4018d8:	6891      	ldr	r1, [r2, #8]
  4018da:	68d2      	ldr	r2, [r2, #12]
  4018dc:	60ca      	str	r2, [r1, #12]
  4018de:	4403      	add	r3, r0
  4018e0:	f043 0001 	orr.w	r0, r3, #1
  4018e4:	6091      	str	r1, [r2, #8]
  4018e6:	6060      	str	r0, [r4, #4]
  4018e8:	50e3      	str	r3, [r4, r3]
  4018ea:	e7a3      	b.n	401834 <_free_r+0x84>
  4018ec:	2a14      	cmp	r2, #20
  4018ee:	d816      	bhi.n	40191e <_free_r+0x16e>
  4018f0:	f102 075c 	add.w	r7, r2, #92	; 0x5c
  4018f4:	00ff      	lsls	r7, r7, #3
  4018f6:	f102 055b 	add.w	r5, r2, #91	; 0x5b
  4018fa:	e7aa      	b.n	401852 <_free_r+0xa2>
  4018fc:	10aa      	asrs	r2, r5, #2
  4018fe:	2301      	movs	r3, #1
  401900:	684d      	ldr	r5, [r1, #4]
  401902:	4093      	lsls	r3, r2
  401904:	432b      	orrs	r3, r5
  401906:	604b      	str	r3, [r1, #4]
  401908:	4603      	mov	r3, r0
  40190a:	e7b0      	b.n	40186e <_free_r+0xbe>
  40190c:	f043 0201 	orr.w	r2, r3, #1
  401910:	614c      	str	r4, [r1, #20]
  401912:	610c      	str	r4, [r1, #16]
  401914:	60e5      	str	r5, [r4, #12]
  401916:	60a5      	str	r5, [r4, #8]
  401918:	6062      	str	r2, [r4, #4]
  40191a:	50e3      	str	r3, [r4, r3]
  40191c:	e78a      	b.n	401834 <_free_r+0x84>
  40191e:	2a54      	cmp	r2, #84	; 0x54
  401920:	d806      	bhi.n	401930 <_free_r+0x180>
  401922:	0b1a      	lsrs	r2, r3, #12
  401924:	f102 076f 	add.w	r7, r2, #111	; 0x6f
  401928:	00ff      	lsls	r7, r7, #3
  40192a:	f102 056e 	add.w	r5, r2, #110	; 0x6e
  40192e:	e790      	b.n	401852 <_free_r+0xa2>
  401930:	f5b2 7faa 	cmp.w	r2, #340	; 0x154
  401934:	d806      	bhi.n	401944 <_free_r+0x194>
  401936:	0bda      	lsrs	r2, r3, #15
  401938:	f102 0778 	add.w	r7, r2, #120	; 0x78
  40193c:	00ff      	lsls	r7, r7, #3
  40193e:	f102 0577 	add.w	r5, r2, #119	; 0x77
  401942:	e786      	b.n	401852 <_free_r+0xa2>
  401944:	f240 5054 	movw	r0, #1364	; 0x554
  401948:	4282      	cmp	r2, r0
  40194a:	d806      	bhi.n	40195a <_free_r+0x1aa>
  40194c:	0c9a      	lsrs	r2, r3, #18
  40194e:	f102 077d 	add.w	r7, r2, #125	; 0x7d
  401952:	00ff      	lsls	r7, r7, #3
  401954:	f102 057c 	add.w	r5, r2, #124	; 0x7c
  401958:	e77b      	b.n	401852 <_free_r+0xa2>
  40195a:	f44f 777e 	mov.w	r7, #1016	; 0x3f8
  40195e:	257e      	movs	r5, #126	; 0x7e
  401960:	e777      	b.n	401852 <_free_r+0xa2>
  401962:	f043 0101 	orr.w	r1, r3, #1
  401966:	6061      	str	r1, [r4, #4]
  401968:	6013      	str	r3, [r2, #0]
  40196a:	e763      	b.n	401834 <_free_r+0x84>
  40196c:	2040043c 	.word	0x2040043c
  401970:	20400444 	.word	0x20400444
  401974:	20400848 	.word	0x20400848
  401978:	2040091c 	.word	0x2040091c

0040197c <__sfvwrite_r>:
  40197c:	6893      	ldr	r3, [r2, #8]
  40197e:	2b00      	cmp	r3, #0
  401980:	d073      	beq.n	401a6a <__sfvwrite_r+0xee>
  401982:	e92d 4ff0 	stmdb	sp!, {r4, r5, r6, r7, r8, r9, sl, fp, lr}
  401986:	898b      	ldrh	r3, [r1, #12]
  401988:	b083      	sub	sp, #12
  40198a:	460c      	mov	r4, r1
  40198c:	0719      	lsls	r1, r3, #28
  40198e:	9000      	str	r0, [sp, #0]
  401990:	4616      	mov	r6, r2
  401992:	d526      	bpl.n	4019e2 <__sfvwrite_r+0x66>
  401994:	6922      	ldr	r2, [r4, #16]
  401996:	b322      	cbz	r2, 4019e2 <__sfvwrite_r+0x66>
  401998:	f013 0002 	ands.w	r0, r3, #2
  40199c:	6835      	ldr	r5, [r6, #0]
  40199e:	d02c      	beq.n	4019fa <__sfvwrite_r+0x7e>
  4019a0:	f04f 0900 	mov.w	r9, #0
  4019a4:	4fb0      	ldr	r7, [pc, #704]	; (401c68 <__sfvwrite_r+0x2ec>)
  4019a6:	46c8      	mov	r8, r9
  4019a8:	46b2      	mov	sl, r6
  4019aa:	45b8      	cmp	r8, r7
  4019ac:	4643      	mov	r3, r8
  4019ae:	464a      	mov	r2, r9
  4019b0:	bf28      	it	cs
  4019b2:	463b      	movcs	r3, r7
  4019b4:	9800      	ldr	r0, [sp, #0]
  4019b6:	f1b8 0f00 	cmp.w	r8, #0
  4019ba:	d050      	beq.n	401a5e <__sfvwrite_r+0xe2>
  4019bc:	69e1      	ldr	r1, [r4, #28]
  4019be:	6a66      	ldr	r6, [r4, #36]	; 0x24
  4019c0:	47b0      	blx	r6
  4019c2:	2800      	cmp	r0, #0
  4019c4:	dd58      	ble.n	401a78 <__sfvwrite_r+0xfc>
  4019c6:	f8da 3008 	ldr.w	r3, [sl, #8]
  4019ca:	1a1b      	subs	r3, r3, r0
  4019cc:	4481      	add	r9, r0
  4019ce:	eba8 0800 	sub.w	r8, r8, r0
  4019d2:	f8ca 3008 	str.w	r3, [sl, #8]
  4019d6:	2b00      	cmp	r3, #0
  4019d8:	d1e7      	bne.n	4019aa <__sfvwrite_r+0x2e>
  4019da:	2000      	movs	r0, #0
  4019dc:	b003      	add	sp, #12
  4019de:	e8bd 8ff0 	ldmia.w	sp!, {r4, r5, r6, r7, r8, r9, sl, fp, pc}
  4019e2:	4621      	mov	r1, r4
  4019e4:	9800      	ldr	r0, [sp, #0]
  4019e6:	f001 f80f 	bl	402a08 <__swsetup_r>
  4019ea:	2800      	cmp	r0, #0
  4019ec:	f040 8133 	bne.w	401c56 <__sfvwrite_r+0x2da>
  4019f0:	89a3      	ldrh	r3, [r4, #12]
  4019f2:	6835      	ldr	r5, [r6, #0]
  4019f4:	f013 0002 	ands.w	r0, r3, #2
  4019f8:	d1d2      	bne.n	4019a0 <__sfvwrite_r+0x24>
  4019fa:	f013 0901 	ands.w	r9, r3, #1
  4019fe:	d145      	bne.n	401a8c <__sfvwrite_r+0x110>
  401a00:	464f      	mov	r7, r9
  401a02:	9601      	str	r6, [sp, #4]
  401a04:	b337      	cbz	r7, 401a54 <__sfvwrite_r+0xd8>
  401a06:	059a      	lsls	r2, r3, #22
  401a08:	f8d4 8008 	ldr.w	r8, [r4, #8]
  401a0c:	f140 8083 	bpl.w	401b16 <__sfvwrite_r+0x19a>
  401a10:	4547      	cmp	r7, r8
  401a12:	46c3      	mov	fp, r8
  401a14:	f0c0 80ab 	bcc.w	401b6e <__sfvwrite_r+0x1f2>
  401a18:	f413 6f90 	tst.w	r3, #1152	; 0x480
  401a1c:	f040 80ac 	bne.w	401b78 <__sfvwrite_r+0x1fc>
  401a20:	6820      	ldr	r0, [r4, #0]
  401a22:	46ba      	mov	sl, r7
  401a24:	465a      	mov	r2, fp
  401a26:	4649      	mov	r1, r9
  401a28:	f000 fd6c 	bl	402504 <memmove>
  401a2c:	68a2      	ldr	r2, [r4, #8]
  401a2e:	6823      	ldr	r3, [r4, #0]
  401a30:	eba2 0208 	sub.w	r2, r2, r8
  401a34:	445b      	add	r3, fp
  401a36:	60a2      	str	r2, [r4, #8]
  401a38:	6023      	str	r3, [r4, #0]
  401a3a:	9a01      	ldr	r2, [sp, #4]
  401a3c:	6893      	ldr	r3, [r2, #8]
  401a3e:	eba3 030a 	sub.w	r3, r3, sl
  401a42:	44d1      	add	r9, sl
  401a44:	eba7 070a 	sub.w	r7, r7, sl
  401a48:	6093      	str	r3, [r2, #8]
  401a4a:	2b00      	cmp	r3, #0
  401a4c:	d0c5      	beq.n	4019da <__sfvwrite_r+0x5e>
  401a4e:	89a3      	ldrh	r3, [r4, #12]
  401a50:	2f00      	cmp	r7, #0
  401a52:	d1d8      	bne.n	401a06 <__sfvwrite_r+0x8a>
  401a54:	f8d5 9000 	ldr.w	r9, [r5]
  401a58:	686f      	ldr	r7, [r5, #4]
  401a5a:	3508      	adds	r5, #8
  401a5c:	e7d2      	b.n	401a04 <__sfvwrite_r+0x88>
  401a5e:	f8d5 9000 	ldr.w	r9, [r5]
  401a62:	f8d5 8004 	ldr.w	r8, [r5, #4]
  401a66:	3508      	adds	r5, #8
  401a68:	e79f      	b.n	4019aa <__sfvwrite_r+0x2e>
  401a6a:	2000      	movs	r0, #0
  401a6c:	4770      	bx	lr
  401a6e:	4621      	mov	r1, r4
  401a70:	9800      	ldr	r0, [sp, #0]
  401a72:	f7ff fda3 	bl	4015bc <_fflush_r>
  401a76:	b370      	cbz	r0, 401ad6 <__sfvwrite_r+0x15a>
  401a78:	f9b4 300c 	ldrsh.w	r3, [r4, #12]
  401a7c:	f043 0340 	orr.w	r3, r3, #64	; 0x40
  401a80:	f04f 30ff 	mov.w	r0, #4294967295
  401a84:	81a3      	strh	r3, [r4, #12]
  401a86:	b003      	add	sp, #12
  401a88:	e8bd 8ff0 	ldmia.w	sp!, {r4, r5, r6, r7, r8, r9, sl, fp, pc}
  401a8c:	4681      	mov	r9, r0
  401a8e:	4633      	mov	r3, r6
  401a90:	464e      	mov	r6, r9
  401a92:	46a8      	mov	r8, r5
  401a94:	469a      	mov	sl, r3
  401a96:	464d      	mov	r5, r9
  401a98:	b34e      	cbz	r6, 401aee <__sfvwrite_r+0x172>
  401a9a:	b380      	cbz	r0, 401afe <__sfvwrite_r+0x182>
  401a9c:	6820      	ldr	r0, [r4, #0]
  401a9e:	6923      	ldr	r3, [r4, #16]
  401aa0:	6962      	ldr	r2, [r4, #20]
  401aa2:	45b1      	cmp	r9, r6
  401aa4:	46cb      	mov	fp, r9
  401aa6:	bf28      	it	cs
  401aa8:	46b3      	movcs	fp, r6
  401aaa:	4298      	cmp	r0, r3
  401aac:	465f      	mov	r7, fp
  401aae:	d904      	bls.n	401aba <__sfvwrite_r+0x13e>
  401ab0:	68a3      	ldr	r3, [r4, #8]
  401ab2:	4413      	add	r3, r2
  401ab4:	459b      	cmp	fp, r3
  401ab6:	f300 80a6 	bgt.w	401c06 <__sfvwrite_r+0x28a>
  401aba:	4593      	cmp	fp, r2
  401abc:	db4b      	blt.n	401b56 <__sfvwrite_r+0x1da>
  401abe:	4613      	mov	r3, r2
  401ac0:	6a67      	ldr	r7, [r4, #36]	; 0x24
  401ac2:	69e1      	ldr	r1, [r4, #28]
  401ac4:	9800      	ldr	r0, [sp, #0]
  401ac6:	462a      	mov	r2, r5
  401ac8:	47b8      	blx	r7
  401aca:	1e07      	subs	r7, r0, #0
  401acc:	ddd4      	ble.n	401a78 <__sfvwrite_r+0xfc>
  401ace:	ebb9 0907 	subs.w	r9, r9, r7
  401ad2:	d0cc      	beq.n	401a6e <__sfvwrite_r+0xf2>
  401ad4:	2001      	movs	r0, #1
  401ad6:	f8da 3008 	ldr.w	r3, [sl, #8]
  401ada:	1bdb      	subs	r3, r3, r7
  401adc:	443d      	add	r5, r7
  401ade:	1bf6      	subs	r6, r6, r7
  401ae0:	f8ca 3008 	str.w	r3, [sl, #8]
  401ae4:	2b00      	cmp	r3, #0
  401ae6:	f43f af78 	beq.w	4019da <__sfvwrite_r+0x5e>
  401aea:	2e00      	cmp	r6, #0
  401aec:	d1d5      	bne.n	401a9a <__sfvwrite_r+0x11e>
  401aee:	f108 0308 	add.w	r3, r8, #8
  401af2:	e913 0060 	ldmdb	r3, {r5, r6}
  401af6:	4698      	mov	r8, r3
  401af8:	3308      	adds	r3, #8
  401afa:	2e00      	cmp	r6, #0
  401afc:	d0f9      	beq.n	401af2 <__sfvwrite_r+0x176>
  401afe:	4632      	mov	r2, r6
  401b00:	210a      	movs	r1, #10
  401b02:	4628      	mov	r0, r5
  401b04:	f000 fc14 	bl	402330 <memchr>
  401b08:	2800      	cmp	r0, #0
  401b0a:	f000 80a1 	beq.w	401c50 <__sfvwrite_r+0x2d4>
  401b0e:	3001      	adds	r0, #1
  401b10:	eba0 0905 	sub.w	r9, r0, r5
  401b14:	e7c2      	b.n	401a9c <__sfvwrite_r+0x120>
  401b16:	6820      	ldr	r0, [r4, #0]
  401b18:	6923      	ldr	r3, [r4, #16]
  401b1a:	4298      	cmp	r0, r3
  401b1c:	d802      	bhi.n	401b24 <__sfvwrite_r+0x1a8>
  401b1e:	6963      	ldr	r3, [r4, #20]
  401b20:	429f      	cmp	r7, r3
  401b22:	d25d      	bcs.n	401be0 <__sfvwrite_r+0x264>
  401b24:	45b8      	cmp	r8, r7
  401b26:	bf28      	it	cs
  401b28:	46b8      	movcs	r8, r7
  401b2a:	4642      	mov	r2, r8
  401b2c:	4649      	mov	r1, r9
  401b2e:	f000 fce9 	bl	402504 <memmove>
  401b32:	68a3      	ldr	r3, [r4, #8]
  401b34:	6822      	ldr	r2, [r4, #0]
  401b36:	eba3 0308 	sub.w	r3, r3, r8
  401b3a:	4442      	add	r2, r8
  401b3c:	60a3      	str	r3, [r4, #8]
  401b3e:	6022      	str	r2, [r4, #0]
  401b40:	b10b      	cbz	r3, 401b46 <__sfvwrite_r+0x1ca>
  401b42:	46c2      	mov	sl, r8
  401b44:	e779      	b.n	401a3a <__sfvwrite_r+0xbe>
  401b46:	4621      	mov	r1, r4
  401b48:	9800      	ldr	r0, [sp, #0]
  401b4a:	f7ff fd37 	bl	4015bc <_fflush_r>
  401b4e:	2800      	cmp	r0, #0
  401b50:	d192      	bne.n	401a78 <__sfvwrite_r+0xfc>
  401b52:	46c2      	mov	sl, r8
  401b54:	e771      	b.n	401a3a <__sfvwrite_r+0xbe>
  401b56:	465a      	mov	r2, fp
  401b58:	4629      	mov	r1, r5
  401b5a:	f000 fcd3 	bl	402504 <memmove>
  401b5e:	68a2      	ldr	r2, [r4, #8]
  401b60:	6823      	ldr	r3, [r4, #0]
  401b62:	eba2 020b 	sub.w	r2, r2, fp
  401b66:	445b      	add	r3, fp
  401b68:	60a2      	str	r2, [r4, #8]
  401b6a:	6023      	str	r3, [r4, #0]
  401b6c:	e7af      	b.n	401ace <__sfvwrite_r+0x152>
  401b6e:	6820      	ldr	r0, [r4, #0]
  401b70:	46b8      	mov	r8, r7
  401b72:	46ba      	mov	sl, r7
  401b74:	46bb      	mov	fp, r7
  401b76:	e755      	b.n	401a24 <__sfvwrite_r+0xa8>
  401b78:	6962      	ldr	r2, [r4, #20]
  401b7a:	6820      	ldr	r0, [r4, #0]
  401b7c:	6921      	ldr	r1, [r4, #16]
  401b7e:	eb02 0842 	add.w	r8, r2, r2, lsl #1
  401b82:	eba0 0a01 	sub.w	sl, r0, r1
  401b86:	eb08 78d8 	add.w	r8, r8, r8, lsr #31
  401b8a:	f10a 0001 	add.w	r0, sl, #1
  401b8e:	ea4f 0868 	mov.w	r8, r8, asr #1
  401b92:	4438      	add	r0, r7
  401b94:	4540      	cmp	r0, r8
  401b96:	4642      	mov	r2, r8
  401b98:	bf84      	itt	hi
  401b9a:	4680      	movhi	r8, r0
  401b9c:	4642      	movhi	r2, r8
  401b9e:	055b      	lsls	r3, r3, #21
  401ba0:	d544      	bpl.n	401c2c <__sfvwrite_r+0x2b0>
  401ba2:	4611      	mov	r1, r2
  401ba4:	9800      	ldr	r0, [sp, #0]
  401ba6:	f000 f913 	bl	401dd0 <_malloc_r>
  401baa:	4683      	mov	fp, r0
  401bac:	2800      	cmp	r0, #0
  401bae:	d055      	beq.n	401c5c <__sfvwrite_r+0x2e0>
  401bb0:	4652      	mov	r2, sl
  401bb2:	6921      	ldr	r1, [r4, #16]
  401bb4:	f000 fc0c 	bl	4023d0 <memcpy>
  401bb8:	89a3      	ldrh	r3, [r4, #12]
  401bba:	f423 6390 	bic.w	r3, r3, #1152	; 0x480
  401bbe:	f043 0380 	orr.w	r3, r3, #128	; 0x80
  401bc2:	81a3      	strh	r3, [r4, #12]
  401bc4:	eb0b 000a 	add.w	r0, fp, sl
  401bc8:	eba8 030a 	sub.w	r3, r8, sl
  401bcc:	f8c4 b010 	str.w	fp, [r4, #16]
  401bd0:	f8c4 8014 	str.w	r8, [r4, #20]
  401bd4:	6020      	str	r0, [r4, #0]
  401bd6:	60a3      	str	r3, [r4, #8]
  401bd8:	46b8      	mov	r8, r7
  401bda:	46ba      	mov	sl, r7
  401bdc:	46bb      	mov	fp, r7
  401bde:	e721      	b.n	401a24 <__sfvwrite_r+0xa8>
  401be0:	f06f 4100 	mvn.w	r1, #2147483648	; 0x80000000
  401be4:	42b9      	cmp	r1, r7
  401be6:	bf28      	it	cs
  401be8:	4639      	movcs	r1, r7
  401bea:	464a      	mov	r2, r9
  401bec:	fb91 f1f3 	sdiv	r1, r1, r3
  401bf0:	9800      	ldr	r0, [sp, #0]
  401bf2:	6a66      	ldr	r6, [r4, #36]	; 0x24
  401bf4:	fb03 f301 	mul.w	r3, r3, r1
  401bf8:	69e1      	ldr	r1, [r4, #28]
  401bfa:	47b0      	blx	r6
  401bfc:	f1b0 0a00 	subs.w	sl, r0, #0
  401c00:	f73f af1b 	bgt.w	401a3a <__sfvwrite_r+0xbe>
  401c04:	e738      	b.n	401a78 <__sfvwrite_r+0xfc>
  401c06:	461a      	mov	r2, r3
  401c08:	4629      	mov	r1, r5
  401c0a:	9301      	str	r3, [sp, #4]
  401c0c:	f000 fc7a 	bl	402504 <memmove>
  401c10:	6822      	ldr	r2, [r4, #0]
  401c12:	9b01      	ldr	r3, [sp, #4]
  401c14:	9800      	ldr	r0, [sp, #0]
  401c16:	441a      	add	r2, r3
  401c18:	6022      	str	r2, [r4, #0]
  401c1a:	4621      	mov	r1, r4
  401c1c:	f7ff fcce 	bl	4015bc <_fflush_r>
  401c20:	9b01      	ldr	r3, [sp, #4]
  401c22:	2800      	cmp	r0, #0
  401c24:	f47f af28 	bne.w	401a78 <__sfvwrite_r+0xfc>
  401c28:	461f      	mov	r7, r3
  401c2a:	e750      	b.n	401ace <__sfvwrite_r+0x152>
  401c2c:	9800      	ldr	r0, [sp, #0]
  401c2e:	f000 fcd9 	bl	4025e4 <_realloc_r>
  401c32:	4683      	mov	fp, r0
  401c34:	2800      	cmp	r0, #0
  401c36:	d1c5      	bne.n	401bc4 <__sfvwrite_r+0x248>
  401c38:	9d00      	ldr	r5, [sp, #0]
  401c3a:	6921      	ldr	r1, [r4, #16]
  401c3c:	4628      	mov	r0, r5
  401c3e:	f7ff fdb7 	bl	4017b0 <_free_r>
  401c42:	f9b4 300c 	ldrsh.w	r3, [r4, #12]
  401c46:	220c      	movs	r2, #12
  401c48:	f023 0380 	bic.w	r3, r3, #128	; 0x80
  401c4c:	602a      	str	r2, [r5, #0]
  401c4e:	e715      	b.n	401a7c <__sfvwrite_r+0x100>
  401c50:	f106 0901 	add.w	r9, r6, #1
  401c54:	e722      	b.n	401a9c <__sfvwrite_r+0x120>
  401c56:	f04f 30ff 	mov.w	r0, #4294967295
  401c5a:	e6bf      	b.n	4019dc <__sfvwrite_r+0x60>
  401c5c:	9a00      	ldr	r2, [sp, #0]
  401c5e:	230c      	movs	r3, #12
  401c60:	6013      	str	r3, [r2, #0]
  401c62:	f9b4 300c 	ldrsh.w	r3, [r4, #12]
  401c66:	e709      	b.n	401a7c <__sfvwrite_r+0x100>
  401c68:	7ffffc00 	.word	0x7ffffc00

00401c6c <_fwalk_reent>:
  401c6c:	e92d 43f8 	stmdb	sp!, {r3, r4, r5, r6, r7, r8, r9, lr}
  401c70:	f510 7738 	adds.w	r7, r0, #736	; 0x2e0
  401c74:	d01f      	beq.n	401cb6 <_fwalk_reent+0x4a>
  401c76:	4688      	mov	r8, r1
  401c78:	4606      	mov	r6, r0
  401c7a:	f04f 0900 	mov.w	r9, #0
  401c7e:	687d      	ldr	r5, [r7, #4]
  401c80:	68bc      	ldr	r4, [r7, #8]
  401c82:	3d01      	subs	r5, #1
  401c84:	d411      	bmi.n	401caa <_fwalk_reent+0x3e>
  401c86:	89a3      	ldrh	r3, [r4, #12]
  401c88:	2b01      	cmp	r3, #1
  401c8a:	f105 35ff 	add.w	r5, r5, #4294967295
  401c8e:	d908      	bls.n	401ca2 <_fwalk_reent+0x36>
  401c90:	f9b4 300e 	ldrsh.w	r3, [r4, #14]
  401c94:	3301      	adds	r3, #1
  401c96:	4621      	mov	r1, r4
  401c98:	4630      	mov	r0, r6
  401c9a:	d002      	beq.n	401ca2 <_fwalk_reent+0x36>
  401c9c:	47c0      	blx	r8
  401c9e:	ea49 0900 	orr.w	r9, r9, r0
  401ca2:	1c6b      	adds	r3, r5, #1
  401ca4:	f104 0468 	add.w	r4, r4, #104	; 0x68
  401ca8:	d1ed      	bne.n	401c86 <_fwalk_reent+0x1a>
  401caa:	683f      	ldr	r7, [r7, #0]
  401cac:	2f00      	cmp	r7, #0
  401cae:	d1e6      	bne.n	401c7e <_fwalk_reent+0x12>
  401cb0:	4648      	mov	r0, r9
  401cb2:	e8bd 83f8 	ldmia.w	sp!, {r3, r4, r5, r6, r7, r8, r9, pc}
  401cb6:	46b9      	mov	r9, r7
  401cb8:	4648      	mov	r0, r9
  401cba:	e8bd 83f8 	ldmia.w	sp!, {r3, r4, r5, r6, r7, r8, r9, pc}
  401cbe:	bf00      	nop

00401cc0 <__retarget_lock_init_recursive>:
  401cc0:	4770      	bx	lr
  401cc2:	bf00      	nop

00401cc4 <__retarget_lock_close_recursive>:
  401cc4:	4770      	bx	lr
  401cc6:	bf00      	nop

00401cc8 <__retarget_lock_acquire_recursive>:
  401cc8:	4770      	bx	lr
  401cca:	bf00      	nop

00401ccc <__retarget_lock_release_recursive>:
  401ccc:	4770      	bx	lr
  401cce:	bf00      	nop

00401cd0 <__swhatbuf_r>:
  401cd0:	b570      	push	{r4, r5, r6, lr}
  401cd2:	460c      	mov	r4, r1
  401cd4:	f9b1 100e 	ldrsh.w	r1, [r1, #14]
  401cd8:	2900      	cmp	r1, #0
  401cda:	b090      	sub	sp, #64	; 0x40
  401cdc:	4615      	mov	r5, r2
  401cde:	461e      	mov	r6, r3
  401ce0:	db14      	blt.n	401d0c <__swhatbuf_r+0x3c>
  401ce2:	aa01      	add	r2, sp, #4
  401ce4:	f000 ffca 	bl	402c7c <_fstat_r>
  401ce8:	2800      	cmp	r0, #0
  401cea:	db0f      	blt.n	401d0c <__swhatbuf_r+0x3c>
  401cec:	9a02      	ldr	r2, [sp, #8]
  401cee:	f402 4270 	and.w	r2, r2, #61440	; 0xf000
  401cf2:	f5a2 5200 	sub.w	r2, r2, #8192	; 0x2000
  401cf6:	fab2 f282 	clz	r2, r2
  401cfa:	0952      	lsrs	r2, r2, #5
  401cfc:	f44f 6380 	mov.w	r3, #1024	; 0x400
  401d00:	f44f 6000 	mov.w	r0, #2048	; 0x800
  401d04:	6032      	str	r2, [r6, #0]
  401d06:	602b      	str	r3, [r5, #0]
  401d08:	b010      	add	sp, #64	; 0x40
  401d0a:	bd70      	pop	{r4, r5, r6, pc}
  401d0c:	89a2      	ldrh	r2, [r4, #12]
  401d0e:	2300      	movs	r3, #0
  401d10:	f012 0080 	ands.w	r0, r2, #128	; 0x80
  401d14:	6033      	str	r3, [r6, #0]
  401d16:	d004      	beq.n	401d22 <__swhatbuf_r+0x52>
  401d18:	2240      	movs	r2, #64	; 0x40
  401d1a:	4618      	mov	r0, r3
  401d1c:	602a      	str	r2, [r5, #0]
  401d1e:	b010      	add	sp, #64	; 0x40
  401d20:	bd70      	pop	{r4, r5, r6, pc}
  401d22:	f44f 6380 	mov.w	r3, #1024	; 0x400
  401d26:	602b      	str	r3, [r5, #0]
  401d28:	b010      	add	sp, #64	; 0x40
  401d2a:	bd70      	pop	{r4, r5, r6, pc}

00401d2c <__smakebuf_r>:
  401d2c:	898a      	ldrh	r2, [r1, #12]
  401d2e:	0792      	lsls	r2, r2, #30
  401d30:	460b      	mov	r3, r1
  401d32:	d506      	bpl.n	401d42 <__smakebuf_r+0x16>
  401d34:	f101 0243 	add.w	r2, r1, #67	; 0x43
  401d38:	2101      	movs	r1, #1
  401d3a:	601a      	str	r2, [r3, #0]
  401d3c:	611a      	str	r2, [r3, #16]
  401d3e:	6159      	str	r1, [r3, #20]
  401d40:	4770      	bx	lr
  401d42:	b5f0      	push	{r4, r5, r6, r7, lr}
  401d44:	b083      	sub	sp, #12
  401d46:	ab01      	add	r3, sp, #4
  401d48:	466a      	mov	r2, sp
  401d4a:	460c      	mov	r4, r1
  401d4c:	4606      	mov	r6, r0
  401d4e:	f7ff ffbf 	bl	401cd0 <__swhatbuf_r>
  401d52:	9900      	ldr	r1, [sp, #0]
  401d54:	4605      	mov	r5, r0
  401d56:	4630      	mov	r0, r6
  401d58:	f000 f83a 	bl	401dd0 <_malloc_r>
  401d5c:	f9b4 300c 	ldrsh.w	r3, [r4, #12]
  401d60:	b1d8      	cbz	r0, 401d9a <__smakebuf_r+0x6e>
  401d62:	9a01      	ldr	r2, [sp, #4]
  401d64:	4f15      	ldr	r7, [pc, #84]	; (401dbc <__smakebuf_r+0x90>)
  401d66:	9900      	ldr	r1, [sp, #0]
  401d68:	63f7      	str	r7, [r6, #60]	; 0x3c
  401d6a:	f043 0380 	orr.w	r3, r3, #128	; 0x80
  401d6e:	81a3      	strh	r3, [r4, #12]
  401d70:	6020      	str	r0, [r4, #0]
  401d72:	6120      	str	r0, [r4, #16]
  401d74:	6161      	str	r1, [r4, #20]
  401d76:	b91a      	cbnz	r2, 401d80 <__smakebuf_r+0x54>
  401d78:	432b      	orrs	r3, r5
  401d7a:	81a3      	strh	r3, [r4, #12]
  401d7c:	b003      	add	sp, #12
  401d7e:	bdf0      	pop	{r4, r5, r6, r7, pc}
  401d80:	4630      	mov	r0, r6
  401d82:	f9b4 100e 	ldrsh.w	r1, [r4, #14]
  401d86:	f000 ff8d 	bl	402ca4 <_isatty_r>
  401d8a:	b1a0      	cbz	r0, 401db6 <__smakebuf_r+0x8a>
  401d8c:	89a3      	ldrh	r3, [r4, #12]
  401d8e:	f023 0303 	bic.w	r3, r3, #3
  401d92:	f043 0301 	orr.w	r3, r3, #1
  401d96:	b21b      	sxth	r3, r3
  401d98:	e7ee      	b.n	401d78 <__smakebuf_r+0x4c>
  401d9a:	059a      	lsls	r2, r3, #22
  401d9c:	d4ee      	bmi.n	401d7c <__smakebuf_r+0x50>
  401d9e:	f023 0303 	bic.w	r3, r3, #3
  401da2:	f104 0243 	add.w	r2, r4, #67	; 0x43
  401da6:	f043 0302 	orr.w	r3, r3, #2
  401daa:	2101      	movs	r1, #1
  401dac:	81a3      	strh	r3, [r4, #12]
  401dae:	6022      	str	r2, [r4, #0]
  401db0:	6122      	str	r2, [r4, #16]
  401db2:	6161      	str	r1, [r4, #20]
  401db4:	e7e2      	b.n	401d7c <__smakebuf_r+0x50>
  401db6:	f9b4 300c 	ldrsh.w	r3, [r4, #12]
  401dba:	e7dd      	b.n	401d78 <__smakebuf_r+0x4c>
  401dbc:	00401611 	.word	0x00401611

00401dc0 <malloc>:
  401dc0:	4b02      	ldr	r3, [pc, #8]	; (401dcc <malloc+0xc>)
  401dc2:	4601      	mov	r1, r0
  401dc4:	6818      	ldr	r0, [r3, #0]
  401dc6:	f000 b803 	b.w	401dd0 <_malloc_r>
  401dca:	bf00      	nop
  401dcc:	20400008 	.word	0x20400008

00401dd0 <_malloc_r>:
  401dd0:	e92d 4ff0 	stmdb	sp!, {r4, r5, r6, r7, r8, r9, sl, fp, lr}
  401dd4:	f101 060b 	add.w	r6, r1, #11
  401dd8:	2e16      	cmp	r6, #22
  401dda:	b083      	sub	sp, #12
  401ddc:	4605      	mov	r5, r0
  401dde:	f240 809e 	bls.w	401f1e <_malloc_r+0x14e>
  401de2:	f036 0607 	bics.w	r6, r6, #7
  401de6:	f100 80bd 	bmi.w	401f64 <_malloc_r+0x194>
  401dea:	42b1      	cmp	r1, r6
  401dec:	f200 80ba 	bhi.w	401f64 <_malloc_r+0x194>
  401df0:	f000 fbec 	bl	4025cc <__malloc_lock>
  401df4:	f5b6 7ffc 	cmp.w	r6, #504	; 0x1f8
  401df8:	f0c0 8293 	bcc.w	402322 <_malloc_r+0x552>
  401dfc:	0a73      	lsrs	r3, r6, #9
  401dfe:	f000 80b8 	beq.w	401f72 <_malloc_r+0x1a2>
  401e02:	2b04      	cmp	r3, #4
  401e04:	f200 8179 	bhi.w	4020fa <_malloc_r+0x32a>
  401e08:	09b3      	lsrs	r3, r6, #6
  401e0a:	f103 0039 	add.w	r0, r3, #57	; 0x39
  401e0e:	f103 0e38 	add.w	lr, r3, #56	; 0x38
  401e12:	00c3      	lsls	r3, r0, #3
  401e14:	4fbf      	ldr	r7, [pc, #764]	; (402114 <_malloc_r+0x344>)
  401e16:	443b      	add	r3, r7
  401e18:	f1a3 0108 	sub.w	r1, r3, #8
  401e1c:	685c      	ldr	r4, [r3, #4]
  401e1e:	42a1      	cmp	r1, r4
  401e20:	d106      	bne.n	401e30 <_malloc_r+0x60>
  401e22:	e00c      	b.n	401e3e <_malloc_r+0x6e>
  401e24:	2a00      	cmp	r2, #0
  401e26:	f280 80aa 	bge.w	401f7e <_malloc_r+0x1ae>
  401e2a:	68e4      	ldr	r4, [r4, #12]
  401e2c:	42a1      	cmp	r1, r4
  401e2e:	d006      	beq.n	401e3e <_malloc_r+0x6e>
  401e30:	6863      	ldr	r3, [r4, #4]
  401e32:	f023 0303 	bic.w	r3, r3, #3
  401e36:	1b9a      	subs	r2, r3, r6
  401e38:	2a0f      	cmp	r2, #15
  401e3a:	ddf3      	ble.n	401e24 <_malloc_r+0x54>
  401e3c:	4670      	mov	r0, lr
  401e3e:	693c      	ldr	r4, [r7, #16]
  401e40:	f8df e2e4 	ldr.w	lr, [pc, #740]	; 402128 <_malloc_r+0x358>
  401e44:	4574      	cmp	r4, lr
  401e46:	f000 81ab 	beq.w	4021a0 <_malloc_r+0x3d0>
  401e4a:	6863      	ldr	r3, [r4, #4]
  401e4c:	f023 0303 	bic.w	r3, r3, #3
  401e50:	1b9a      	subs	r2, r3, r6
  401e52:	2a0f      	cmp	r2, #15
  401e54:	f300 8190 	bgt.w	402178 <_malloc_r+0x3a8>
  401e58:	2a00      	cmp	r2, #0
  401e5a:	f8c7 e014 	str.w	lr, [r7, #20]
  401e5e:	f8c7 e010 	str.w	lr, [r7, #16]
  401e62:	f280 809d 	bge.w	401fa0 <_malloc_r+0x1d0>
  401e66:	f5b3 7f00 	cmp.w	r3, #512	; 0x200
  401e6a:	f080 8161 	bcs.w	402130 <_malloc_r+0x360>
  401e6e:	08db      	lsrs	r3, r3, #3
  401e70:	f103 0c01 	add.w	ip, r3, #1
  401e74:	1099      	asrs	r1, r3, #2
  401e76:	687a      	ldr	r2, [r7, #4]
  401e78:	f857 803c 	ldr.w	r8, [r7, ip, lsl #3]
  401e7c:	f8c4 8008 	str.w	r8, [r4, #8]
  401e80:	2301      	movs	r3, #1
  401e82:	408b      	lsls	r3, r1
  401e84:	eb07 01cc 	add.w	r1, r7, ip, lsl #3
  401e88:	4313      	orrs	r3, r2
  401e8a:	3908      	subs	r1, #8
  401e8c:	60e1      	str	r1, [r4, #12]
  401e8e:	607b      	str	r3, [r7, #4]
  401e90:	f847 403c 	str.w	r4, [r7, ip, lsl #3]
  401e94:	f8c8 400c 	str.w	r4, [r8, #12]
  401e98:	1082      	asrs	r2, r0, #2
  401e9a:	2401      	movs	r4, #1
  401e9c:	4094      	lsls	r4, r2
  401e9e:	429c      	cmp	r4, r3
  401ea0:	f200 808b 	bhi.w	401fba <_malloc_r+0x1ea>
  401ea4:	421c      	tst	r4, r3
  401ea6:	d106      	bne.n	401eb6 <_malloc_r+0xe6>
  401ea8:	f020 0003 	bic.w	r0, r0, #3
  401eac:	0064      	lsls	r4, r4, #1
  401eae:	421c      	tst	r4, r3
  401eb0:	f100 0004 	add.w	r0, r0, #4
  401eb4:	d0fa      	beq.n	401eac <_malloc_r+0xdc>
  401eb6:	eb07 09c0 	add.w	r9, r7, r0, lsl #3
  401eba:	46cc      	mov	ip, r9
  401ebc:	4680      	mov	r8, r0
  401ebe:	f8dc 300c 	ldr.w	r3, [ip, #12]
  401ec2:	459c      	cmp	ip, r3
  401ec4:	d107      	bne.n	401ed6 <_malloc_r+0x106>
  401ec6:	e16d      	b.n	4021a4 <_malloc_r+0x3d4>
  401ec8:	2a00      	cmp	r2, #0
  401eca:	f280 817b 	bge.w	4021c4 <_malloc_r+0x3f4>
  401ece:	68db      	ldr	r3, [r3, #12]
  401ed0:	459c      	cmp	ip, r3
  401ed2:	f000 8167 	beq.w	4021a4 <_malloc_r+0x3d4>
  401ed6:	6859      	ldr	r1, [r3, #4]
  401ed8:	f021 0103 	bic.w	r1, r1, #3
  401edc:	1b8a      	subs	r2, r1, r6
  401ede:	2a0f      	cmp	r2, #15
  401ee0:	ddf2      	ble.n	401ec8 <_malloc_r+0xf8>
  401ee2:	f8d3 c00c 	ldr.w	ip, [r3, #12]
  401ee6:	f8d3 8008 	ldr.w	r8, [r3, #8]
  401eea:	9300      	str	r3, [sp, #0]
  401eec:	199c      	adds	r4, r3, r6
  401eee:	4628      	mov	r0, r5
  401ef0:	f046 0601 	orr.w	r6, r6, #1
  401ef4:	f042 0501 	orr.w	r5, r2, #1
  401ef8:	605e      	str	r6, [r3, #4]
  401efa:	f8c8 c00c 	str.w	ip, [r8, #12]
  401efe:	f8cc 8008 	str.w	r8, [ip, #8]
  401f02:	617c      	str	r4, [r7, #20]
  401f04:	613c      	str	r4, [r7, #16]
  401f06:	f8c4 e00c 	str.w	lr, [r4, #12]
  401f0a:	f8c4 e008 	str.w	lr, [r4, #8]
  401f0e:	6065      	str	r5, [r4, #4]
  401f10:	505a      	str	r2, [r3, r1]
  401f12:	f000 fb61 	bl	4025d8 <__malloc_unlock>
  401f16:	9b00      	ldr	r3, [sp, #0]
  401f18:	f103 0408 	add.w	r4, r3, #8
  401f1c:	e01e      	b.n	401f5c <_malloc_r+0x18c>
  401f1e:	2910      	cmp	r1, #16
  401f20:	d820      	bhi.n	401f64 <_malloc_r+0x194>
  401f22:	f000 fb53 	bl	4025cc <__malloc_lock>
  401f26:	2610      	movs	r6, #16
  401f28:	2318      	movs	r3, #24
  401f2a:	2002      	movs	r0, #2
  401f2c:	4f79      	ldr	r7, [pc, #484]	; (402114 <_malloc_r+0x344>)
  401f2e:	443b      	add	r3, r7
  401f30:	f1a3 0208 	sub.w	r2, r3, #8
  401f34:	685c      	ldr	r4, [r3, #4]
  401f36:	4294      	cmp	r4, r2
  401f38:	f000 813d 	beq.w	4021b6 <_malloc_r+0x3e6>
  401f3c:	6863      	ldr	r3, [r4, #4]
  401f3e:	68e1      	ldr	r1, [r4, #12]
  401f40:	68a6      	ldr	r6, [r4, #8]
  401f42:	f023 0303 	bic.w	r3, r3, #3
  401f46:	4423      	add	r3, r4
  401f48:	4628      	mov	r0, r5
  401f4a:	685a      	ldr	r2, [r3, #4]
  401f4c:	60f1      	str	r1, [r6, #12]
  401f4e:	f042 0201 	orr.w	r2, r2, #1
  401f52:	608e      	str	r6, [r1, #8]
  401f54:	605a      	str	r2, [r3, #4]
  401f56:	f000 fb3f 	bl	4025d8 <__malloc_unlock>
  401f5a:	3408      	adds	r4, #8
  401f5c:	4620      	mov	r0, r4
  401f5e:	b003      	add	sp, #12
  401f60:	e8bd 8ff0 	ldmia.w	sp!, {r4, r5, r6, r7, r8, r9, sl, fp, pc}
  401f64:	2400      	movs	r4, #0
  401f66:	230c      	movs	r3, #12
  401f68:	4620      	mov	r0, r4
  401f6a:	602b      	str	r3, [r5, #0]
  401f6c:	b003      	add	sp, #12
  401f6e:	e8bd 8ff0 	ldmia.w	sp!, {r4, r5, r6, r7, r8, r9, sl, fp, pc}
  401f72:	2040      	movs	r0, #64	; 0x40
  401f74:	f44f 7300 	mov.w	r3, #512	; 0x200
  401f78:	f04f 0e3f 	mov.w	lr, #63	; 0x3f
  401f7c:	e74a      	b.n	401e14 <_malloc_r+0x44>
  401f7e:	4423      	add	r3, r4
  401f80:	68e1      	ldr	r1, [r4, #12]
  401f82:	685a      	ldr	r2, [r3, #4]
  401f84:	68a6      	ldr	r6, [r4, #8]
  401f86:	f042 0201 	orr.w	r2, r2, #1
  401f8a:	60f1      	str	r1, [r6, #12]
  401f8c:	4628      	mov	r0, r5
  401f8e:	608e      	str	r6, [r1, #8]
  401f90:	605a      	str	r2, [r3, #4]
  401f92:	f000 fb21 	bl	4025d8 <__malloc_unlock>
  401f96:	3408      	adds	r4, #8
  401f98:	4620      	mov	r0, r4
  401f9a:	b003      	add	sp, #12
  401f9c:	e8bd 8ff0 	ldmia.w	sp!, {r4, r5, r6, r7, r8, r9, sl, fp, pc}
  401fa0:	4423      	add	r3, r4
  401fa2:	4628      	mov	r0, r5
  401fa4:	685a      	ldr	r2, [r3, #4]
  401fa6:	f042 0201 	orr.w	r2, r2, #1
  401faa:	605a      	str	r2, [r3, #4]
  401fac:	f000 fb14 	bl	4025d8 <__malloc_unlock>
  401fb0:	3408      	adds	r4, #8
  401fb2:	4620      	mov	r0, r4
  401fb4:	b003      	add	sp, #12
  401fb6:	e8bd 8ff0 	ldmia.w	sp!, {r4, r5, r6, r7, r8, r9, sl, fp, pc}
  401fba:	68bc      	ldr	r4, [r7, #8]
  401fbc:	6863      	ldr	r3, [r4, #4]
  401fbe:	f023 0803 	bic.w	r8, r3, #3
  401fc2:	45b0      	cmp	r8, r6
  401fc4:	d304      	bcc.n	401fd0 <_malloc_r+0x200>
  401fc6:	eba8 0306 	sub.w	r3, r8, r6
  401fca:	2b0f      	cmp	r3, #15
  401fcc:	f300 8085 	bgt.w	4020da <_malloc_r+0x30a>
  401fd0:	f8df 9158 	ldr.w	r9, [pc, #344]	; 40212c <_malloc_r+0x35c>
  401fd4:	4b50      	ldr	r3, [pc, #320]	; (402118 <_malloc_r+0x348>)
  401fd6:	f8d9 2000 	ldr.w	r2, [r9]
  401fda:	681b      	ldr	r3, [r3, #0]
  401fdc:	3201      	adds	r2, #1
  401fde:	4433      	add	r3, r6
  401fe0:	eb04 0a08 	add.w	sl, r4, r8
  401fe4:	f000 8155 	beq.w	402292 <_malloc_r+0x4c2>
  401fe8:	f503 5380 	add.w	r3, r3, #4096	; 0x1000
  401fec:	330f      	adds	r3, #15
  401fee:	f423 6b7f 	bic.w	fp, r3, #4080	; 0xff0
  401ff2:	f02b 0b0f 	bic.w	fp, fp, #15
  401ff6:	4659      	mov	r1, fp
  401ff8:	4628      	mov	r0, r5
  401ffa:	f000 fc99 	bl	402930 <_sbrk_r>
  401ffe:	1c41      	adds	r1, r0, #1
  402000:	4602      	mov	r2, r0
  402002:	f000 80fc 	beq.w	4021fe <_malloc_r+0x42e>
  402006:	4582      	cmp	sl, r0
  402008:	f200 80f7 	bhi.w	4021fa <_malloc_r+0x42a>
  40200c:	4b43      	ldr	r3, [pc, #268]	; (40211c <_malloc_r+0x34c>)
  40200e:	6819      	ldr	r1, [r3, #0]
  402010:	4459      	add	r1, fp
  402012:	6019      	str	r1, [r3, #0]
  402014:	f000 814d 	beq.w	4022b2 <_malloc_r+0x4e2>
  402018:	f8d9 0000 	ldr.w	r0, [r9]
  40201c:	3001      	adds	r0, #1
  40201e:	bf1b      	ittet	ne
  402020:	eba2 0a0a 	subne.w	sl, r2, sl
  402024:	4451      	addne	r1, sl
  402026:	f8c9 2000 	streq.w	r2, [r9]
  40202a:	6019      	strne	r1, [r3, #0]
  40202c:	f012 0107 	ands.w	r1, r2, #7
  402030:	f000 8115 	beq.w	40225e <_malloc_r+0x48e>
  402034:	f1c1 0008 	rsb	r0, r1, #8
  402038:	f5c1 5180 	rsb	r1, r1, #4096	; 0x1000
  40203c:	4402      	add	r2, r0
  40203e:	3108      	adds	r1, #8
  402040:	eb02 090b 	add.w	r9, r2, fp
  402044:	f3c9 090b 	ubfx	r9, r9, #0, #12
  402048:	eba1 0909 	sub.w	r9, r1, r9
  40204c:	4649      	mov	r1, r9
  40204e:	4628      	mov	r0, r5
  402050:	9301      	str	r3, [sp, #4]
  402052:	9200      	str	r2, [sp, #0]
  402054:	f000 fc6c 	bl	402930 <_sbrk_r>
  402058:	1c43      	adds	r3, r0, #1
  40205a:	e89d 000c 	ldmia.w	sp, {r2, r3}
  40205e:	f000 8143 	beq.w	4022e8 <_malloc_r+0x518>
  402062:	1a80      	subs	r0, r0, r2
  402064:	4448      	add	r0, r9
  402066:	f040 0001 	orr.w	r0, r0, #1
  40206a:	6819      	ldr	r1, [r3, #0]
  40206c:	60ba      	str	r2, [r7, #8]
  40206e:	4449      	add	r1, r9
  402070:	42bc      	cmp	r4, r7
  402072:	6050      	str	r0, [r2, #4]
  402074:	6019      	str	r1, [r3, #0]
  402076:	d017      	beq.n	4020a8 <_malloc_r+0x2d8>
  402078:	f1b8 0f0f 	cmp.w	r8, #15
  40207c:	f240 80fb 	bls.w	402276 <_malloc_r+0x4a6>
  402080:	6860      	ldr	r0, [r4, #4]
  402082:	f1a8 020c 	sub.w	r2, r8, #12
  402086:	f022 0207 	bic.w	r2, r2, #7
  40208a:	eb04 0e02 	add.w	lr, r4, r2
  40208e:	f000 0001 	and.w	r0, r0, #1
  402092:	f04f 0c05 	mov.w	ip, #5
  402096:	4310      	orrs	r0, r2
  402098:	2a0f      	cmp	r2, #15
  40209a:	6060      	str	r0, [r4, #4]
  40209c:	f8ce c004 	str.w	ip, [lr, #4]
  4020a0:	f8ce c008 	str.w	ip, [lr, #8]
  4020a4:	f200 8117 	bhi.w	4022d6 <_malloc_r+0x506>
  4020a8:	4b1d      	ldr	r3, [pc, #116]	; (402120 <_malloc_r+0x350>)
  4020aa:	68bc      	ldr	r4, [r7, #8]
  4020ac:	681a      	ldr	r2, [r3, #0]
  4020ae:	4291      	cmp	r1, r2
  4020b0:	bf88      	it	hi
  4020b2:	6019      	strhi	r1, [r3, #0]
  4020b4:	4b1b      	ldr	r3, [pc, #108]	; (402124 <_malloc_r+0x354>)
  4020b6:	681a      	ldr	r2, [r3, #0]
  4020b8:	4291      	cmp	r1, r2
  4020ba:	6862      	ldr	r2, [r4, #4]
  4020bc:	bf88      	it	hi
  4020be:	6019      	strhi	r1, [r3, #0]
  4020c0:	f022 0203 	bic.w	r2, r2, #3
  4020c4:	4296      	cmp	r6, r2
  4020c6:	eba2 0306 	sub.w	r3, r2, r6
  4020ca:	d801      	bhi.n	4020d0 <_malloc_r+0x300>
  4020cc:	2b0f      	cmp	r3, #15
  4020ce:	dc04      	bgt.n	4020da <_malloc_r+0x30a>
  4020d0:	4628      	mov	r0, r5
  4020d2:	f000 fa81 	bl	4025d8 <__malloc_unlock>
  4020d6:	2400      	movs	r4, #0
  4020d8:	e740      	b.n	401f5c <_malloc_r+0x18c>
  4020da:	19a2      	adds	r2, r4, r6
  4020dc:	f043 0301 	orr.w	r3, r3, #1
  4020e0:	f046 0601 	orr.w	r6, r6, #1
  4020e4:	6066      	str	r6, [r4, #4]
  4020e6:	4628      	mov	r0, r5
  4020e8:	60ba      	str	r2, [r7, #8]
  4020ea:	6053      	str	r3, [r2, #4]
  4020ec:	f000 fa74 	bl	4025d8 <__malloc_unlock>
  4020f0:	3408      	adds	r4, #8
  4020f2:	4620      	mov	r0, r4
  4020f4:	b003      	add	sp, #12
  4020f6:	e8bd 8ff0 	ldmia.w	sp!, {r4, r5, r6, r7, r8, r9, sl, fp, pc}
  4020fa:	2b14      	cmp	r3, #20
  4020fc:	d971      	bls.n	4021e2 <_malloc_r+0x412>
  4020fe:	2b54      	cmp	r3, #84	; 0x54
  402100:	f200 80a3 	bhi.w	40224a <_malloc_r+0x47a>
  402104:	0b33      	lsrs	r3, r6, #12
  402106:	f103 006f 	add.w	r0, r3, #111	; 0x6f
  40210a:	f103 0e6e 	add.w	lr, r3, #110	; 0x6e
  40210e:	00c3      	lsls	r3, r0, #3
  402110:	e680      	b.n	401e14 <_malloc_r+0x44>
  402112:	bf00      	nop
  402114:	2040043c 	.word	0x2040043c
  402118:	2040091c 	.word	0x2040091c
  40211c:	204008ec 	.word	0x204008ec
  402120:	20400914 	.word	0x20400914
  402124:	20400918 	.word	0x20400918
  402128:	20400444 	.word	0x20400444
  40212c:	20400844 	.word	0x20400844
  402130:	0a5a      	lsrs	r2, r3, #9
  402132:	2a04      	cmp	r2, #4
  402134:	d95b      	bls.n	4021ee <_malloc_r+0x41e>
  402136:	2a14      	cmp	r2, #20
  402138:	f200 80ae 	bhi.w	402298 <_malloc_r+0x4c8>
  40213c:	f102 015c 	add.w	r1, r2, #92	; 0x5c
  402140:	00c9      	lsls	r1, r1, #3
  402142:	325b      	adds	r2, #91	; 0x5b
  402144:	eb07 0c01 	add.w	ip, r7, r1
  402148:	5879      	ldr	r1, [r7, r1]
  40214a:	f1ac 0c08 	sub.w	ip, ip, #8
  40214e:	458c      	cmp	ip, r1
  402150:	f000 8088 	beq.w	402264 <_malloc_r+0x494>
  402154:	684a      	ldr	r2, [r1, #4]
  402156:	f022 0203 	bic.w	r2, r2, #3
  40215a:	4293      	cmp	r3, r2
  40215c:	d273      	bcs.n	402246 <_malloc_r+0x476>
  40215e:	6889      	ldr	r1, [r1, #8]
  402160:	458c      	cmp	ip, r1
  402162:	d1f7      	bne.n	402154 <_malloc_r+0x384>
  402164:	f8dc 200c 	ldr.w	r2, [ip, #12]
  402168:	687b      	ldr	r3, [r7, #4]
  40216a:	60e2      	str	r2, [r4, #12]
  40216c:	f8c4 c008 	str.w	ip, [r4, #8]
  402170:	6094      	str	r4, [r2, #8]
  402172:	f8cc 400c 	str.w	r4, [ip, #12]
  402176:	e68f      	b.n	401e98 <_malloc_r+0xc8>
  402178:	19a1      	adds	r1, r4, r6
  40217a:	f046 0c01 	orr.w	ip, r6, #1
  40217e:	f042 0601 	orr.w	r6, r2, #1
  402182:	f8c4 c004 	str.w	ip, [r4, #4]
  402186:	4628      	mov	r0, r5
  402188:	6179      	str	r1, [r7, #20]
  40218a:	6139      	str	r1, [r7, #16]
  40218c:	f8c1 e00c 	str.w	lr, [r1, #12]
  402190:	f8c1 e008 	str.w	lr, [r1, #8]
  402194:	604e      	str	r6, [r1, #4]
  402196:	50e2      	str	r2, [r4, r3]
  402198:	f000 fa1e 	bl	4025d8 <__malloc_unlock>
  40219c:	3408      	adds	r4, #8
  40219e:	e6dd      	b.n	401f5c <_malloc_r+0x18c>
  4021a0:	687b      	ldr	r3, [r7, #4]
  4021a2:	e679      	b.n	401e98 <_malloc_r+0xc8>
  4021a4:	f108 0801 	add.w	r8, r8, #1
  4021a8:	f018 0f03 	tst.w	r8, #3
  4021ac:	f10c 0c08 	add.w	ip, ip, #8
  4021b0:	f47f ae85 	bne.w	401ebe <_malloc_r+0xee>
  4021b4:	e02d      	b.n	402212 <_malloc_r+0x442>
  4021b6:	68dc      	ldr	r4, [r3, #12]
  4021b8:	42a3      	cmp	r3, r4
  4021ba:	bf08      	it	eq
  4021bc:	3002      	addeq	r0, #2
  4021be:	f43f ae3e 	beq.w	401e3e <_malloc_r+0x6e>
  4021c2:	e6bb      	b.n	401f3c <_malloc_r+0x16c>
  4021c4:	4419      	add	r1, r3
  4021c6:	461c      	mov	r4, r3
  4021c8:	684a      	ldr	r2, [r1, #4]
  4021ca:	68db      	ldr	r3, [r3, #12]
  4021cc:	f854 6f08 	ldr.w	r6, [r4, #8]!
  4021d0:	f042 0201 	orr.w	r2, r2, #1
  4021d4:	604a      	str	r2, [r1, #4]
  4021d6:	4628      	mov	r0, r5
  4021d8:	60f3      	str	r3, [r6, #12]
  4021da:	609e      	str	r6, [r3, #8]
  4021dc:	f000 f9fc 	bl	4025d8 <__malloc_unlock>
  4021e0:	e6bc      	b.n	401f5c <_malloc_r+0x18c>
  4021e2:	f103 005c 	add.w	r0, r3, #92	; 0x5c
  4021e6:	f103 0e5b 	add.w	lr, r3, #91	; 0x5b
  4021ea:	00c3      	lsls	r3, r0, #3
  4021ec:	e612      	b.n	401e14 <_malloc_r+0x44>
  4021ee:	099a      	lsrs	r2, r3, #6
  4021f0:	f102 0139 	add.w	r1, r2, #57	; 0x39
  4021f4:	00c9      	lsls	r1, r1, #3
  4021f6:	3238      	adds	r2, #56	; 0x38
  4021f8:	e7a4      	b.n	402144 <_malloc_r+0x374>
  4021fa:	42bc      	cmp	r4, r7
  4021fc:	d054      	beq.n	4022a8 <_malloc_r+0x4d8>
  4021fe:	68bc      	ldr	r4, [r7, #8]
  402200:	6862      	ldr	r2, [r4, #4]
  402202:	f022 0203 	bic.w	r2, r2, #3
  402206:	e75d      	b.n	4020c4 <_malloc_r+0x2f4>
  402208:	f859 3908 	ldr.w	r3, [r9], #-8
  40220c:	4599      	cmp	r9, r3
  40220e:	f040 8086 	bne.w	40231e <_malloc_r+0x54e>
  402212:	f010 0f03 	tst.w	r0, #3
  402216:	f100 30ff 	add.w	r0, r0, #4294967295
  40221a:	d1f5      	bne.n	402208 <_malloc_r+0x438>
  40221c:	687b      	ldr	r3, [r7, #4]
  40221e:	ea23 0304 	bic.w	r3, r3, r4
  402222:	607b      	str	r3, [r7, #4]
  402224:	0064      	lsls	r4, r4, #1
  402226:	429c      	cmp	r4, r3
  402228:	f63f aec7 	bhi.w	401fba <_malloc_r+0x1ea>
  40222c:	2c00      	cmp	r4, #0
  40222e:	f43f aec4 	beq.w	401fba <_malloc_r+0x1ea>
  402232:	421c      	tst	r4, r3
  402234:	4640      	mov	r0, r8
  402236:	f47f ae3e 	bne.w	401eb6 <_malloc_r+0xe6>
  40223a:	0064      	lsls	r4, r4, #1
  40223c:	421c      	tst	r4, r3
  40223e:	f100 0004 	add.w	r0, r0, #4
  402242:	d0fa      	beq.n	40223a <_malloc_r+0x46a>
  402244:	e637      	b.n	401eb6 <_malloc_r+0xe6>
  402246:	468c      	mov	ip, r1
  402248:	e78c      	b.n	402164 <_malloc_r+0x394>
  40224a:	f5b3 7faa 	cmp.w	r3, #340	; 0x154
  40224e:	d815      	bhi.n	40227c <_malloc_r+0x4ac>
  402250:	0bf3      	lsrs	r3, r6, #15
  402252:	f103 0078 	add.w	r0, r3, #120	; 0x78
  402256:	f103 0e77 	add.w	lr, r3, #119	; 0x77
  40225a:	00c3      	lsls	r3, r0, #3
  40225c:	e5da      	b.n	401e14 <_malloc_r+0x44>
  40225e:	f44f 5180 	mov.w	r1, #4096	; 0x1000
  402262:	e6ed      	b.n	402040 <_malloc_r+0x270>
  402264:	687b      	ldr	r3, [r7, #4]
  402266:	1092      	asrs	r2, r2, #2
  402268:	2101      	movs	r1, #1
  40226a:	fa01 f202 	lsl.w	r2, r1, r2
  40226e:	4313      	orrs	r3, r2
  402270:	607b      	str	r3, [r7, #4]
  402272:	4662      	mov	r2, ip
  402274:	e779      	b.n	40216a <_malloc_r+0x39a>
  402276:	2301      	movs	r3, #1
  402278:	6053      	str	r3, [r2, #4]
  40227a:	e729      	b.n	4020d0 <_malloc_r+0x300>
  40227c:	f240 5254 	movw	r2, #1364	; 0x554
  402280:	4293      	cmp	r3, r2
  402282:	d822      	bhi.n	4022ca <_malloc_r+0x4fa>
  402284:	0cb3      	lsrs	r3, r6, #18
  402286:	f103 007d 	add.w	r0, r3, #125	; 0x7d
  40228a:	f103 0e7c 	add.w	lr, r3, #124	; 0x7c
  40228e:	00c3      	lsls	r3, r0, #3
  402290:	e5c0      	b.n	401e14 <_malloc_r+0x44>
  402292:	f103 0b10 	add.w	fp, r3, #16
  402296:	e6ae      	b.n	401ff6 <_malloc_r+0x226>
  402298:	2a54      	cmp	r2, #84	; 0x54
  40229a:	d829      	bhi.n	4022f0 <_malloc_r+0x520>
  40229c:	0b1a      	lsrs	r2, r3, #12
  40229e:	f102 016f 	add.w	r1, r2, #111	; 0x6f
  4022a2:	00c9      	lsls	r1, r1, #3
  4022a4:	326e      	adds	r2, #110	; 0x6e
  4022a6:	e74d      	b.n	402144 <_malloc_r+0x374>
  4022a8:	4b20      	ldr	r3, [pc, #128]	; (40232c <_malloc_r+0x55c>)
  4022aa:	6819      	ldr	r1, [r3, #0]
  4022ac:	4459      	add	r1, fp
  4022ae:	6019      	str	r1, [r3, #0]
  4022b0:	e6b2      	b.n	402018 <_malloc_r+0x248>
  4022b2:	f3ca 000b 	ubfx	r0, sl, #0, #12
  4022b6:	2800      	cmp	r0, #0
  4022b8:	f47f aeae 	bne.w	402018 <_malloc_r+0x248>
  4022bc:	eb08 030b 	add.w	r3, r8, fp
  4022c0:	68ba      	ldr	r2, [r7, #8]
  4022c2:	f043 0301 	orr.w	r3, r3, #1
  4022c6:	6053      	str	r3, [r2, #4]
  4022c8:	e6ee      	b.n	4020a8 <_malloc_r+0x2d8>
  4022ca:	207f      	movs	r0, #127	; 0x7f
  4022cc:	f44f 737e 	mov.w	r3, #1016	; 0x3f8
  4022d0:	f04f 0e7e 	mov.w	lr, #126	; 0x7e
  4022d4:	e59e      	b.n	401e14 <_malloc_r+0x44>
  4022d6:	f104 0108 	add.w	r1, r4, #8
  4022da:	4628      	mov	r0, r5
  4022dc:	9300      	str	r3, [sp, #0]
  4022de:	f7ff fa67 	bl	4017b0 <_free_r>
  4022e2:	9b00      	ldr	r3, [sp, #0]
  4022e4:	6819      	ldr	r1, [r3, #0]
  4022e6:	e6df      	b.n	4020a8 <_malloc_r+0x2d8>
  4022e8:	2001      	movs	r0, #1
  4022ea:	f04f 0900 	mov.w	r9, #0
  4022ee:	e6bc      	b.n	40206a <_malloc_r+0x29a>
  4022f0:	f5b2 7faa 	cmp.w	r2, #340	; 0x154
  4022f4:	d805      	bhi.n	402302 <_malloc_r+0x532>
  4022f6:	0bda      	lsrs	r2, r3, #15
  4022f8:	f102 0178 	add.w	r1, r2, #120	; 0x78
  4022fc:	00c9      	lsls	r1, r1, #3
  4022fe:	3277      	adds	r2, #119	; 0x77
  402300:	e720      	b.n	402144 <_malloc_r+0x374>
  402302:	f240 5154 	movw	r1, #1364	; 0x554
  402306:	428a      	cmp	r2, r1
  402308:	d805      	bhi.n	402316 <_malloc_r+0x546>
  40230a:	0c9a      	lsrs	r2, r3, #18
  40230c:	f102 017d 	add.w	r1, r2, #125	; 0x7d
  402310:	00c9      	lsls	r1, r1, #3
  402312:	327c      	adds	r2, #124	; 0x7c
  402314:	e716      	b.n	402144 <_malloc_r+0x374>
  402316:	f44f 717e 	mov.w	r1, #1016	; 0x3f8
  40231a:	227e      	movs	r2, #126	; 0x7e
  40231c:	e712      	b.n	402144 <_malloc_r+0x374>
  40231e:	687b      	ldr	r3, [r7, #4]
  402320:	e780      	b.n	402224 <_malloc_r+0x454>
  402322:	08f0      	lsrs	r0, r6, #3
  402324:	f106 0308 	add.w	r3, r6, #8
  402328:	e600      	b.n	401f2c <_malloc_r+0x15c>
  40232a:	bf00      	nop
  40232c:	204008ec 	.word	0x204008ec

00402330 <memchr>:
  402330:	f001 01ff 	and.w	r1, r1, #255	; 0xff
  402334:	2a10      	cmp	r2, #16
  402336:	db2b      	blt.n	402390 <memchr+0x60>
  402338:	f010 0f07 	tst.w	r0, #7
  40233c:	d008      	beq.n	402350 <memchr+0x20>
  40233e:	f810 3b01 	ldrb.w	r3, [r0], #1
  402342:	3a01      	subs	r2, #1
  402344:	428b      	cmp	r3, r1
  402346:	d02d      	beq.n	4023a4 <memchr+0x74>
  402348:	f010 0f07 	tst.w	r0, #7
  40234c:	b342      	cbz	r2, 4023a0 <memchr+0x70>
  40234e:	d1f6      	bne.n	40233e <memchr+0xe>
  402350:	b4f0      	push	{r4, r5, r6, r7}
  402352:	ea41 2101 	orr.w	r1, r1, r1, lsl #8
  402356:	ea41 4101 	orr.w	r1, r1, r1, lsl #16
  40235a:	f022 0407 	bic.w	r4, r2, #7
  40235e:	f07f 0700 	mvns.w	r7, #0
  402362:	2300      	movs	r3, #0
  402364:	e8f0 5602 	ldrd	r5, r6, [r0], #8
  402368:	3c08      	subs	r4, #8
  40236a:	ea85 0501 	eor.w	r5, r5, r1
  40236e:	ea86 0601 	eor.w	r6, r6, r1
  402372:	fa85 f547 	uadd8	r5, r5, r7
  402376:	faa3 f587 	sel	r5, r3, r7
  40237a:	fa86 f647 	uadd8	r6, r6, r7
  40237e:	faa5 f687 	sel	r6, r5, r7
  402382:	b98e      	cbnz	r6, 4023a8 <memchr+0x78>
  402384:	d1ee      	bne.n	402364 <memchr+0x34>
  402386:	bcf0      	pop	{r4, r5, r6, r7}
  402388:	f001 01ff 	and.w	r1, r1, #255	; 0xff
  40238c:	f002 0207 	and.w	r2, r2, #7
  402390:	b132      	cbz	r2, 4023a0 <memchr+0x70>
  402392:	f810 3b01 	ldrb.w	r3, [r0], #1
  402396:	3a01      	subs	r2, #1
  402398:	ea83 0301 	eor.w	r3, r3, r1
  40239c:	b113      	cbz	r3, 4023a4 <memchr+0x74>
  40239e:	d1f8      	bne.n	402392 <memchr+0x62>
  4023a0:	2000      	movs	r0, #0
  4023a2:	4770      	bx	lr
  4023a4:	3801      	subs	r0, #1
  4023a6:	4770      	bx	lr
  4023a8:	2d00      	cmp	r5, #0
  4023aa:	bf06      	itte	eq
  4023ac:	4635      	moveq	r5, r6
  4023ae:	3803      	subeq	r0, #3
  4023b0:	3807      	subne	r0, #7
  4023b2:	f015 0f01 	tst.w	r5, #1
  4023b6:	d107      	bne.n	4023c8 <memchr+0x98>
  4023b8:	3001      	adds	r0, #1
  4023ba:	f415 7f80 	tst.w	r5, #256	; 0x100
  4023be:	bf02      	ittt	eq
  4023c0:	3001      	addeq	r0, #1
  4023c2:	f415 3fc0 	tsteq.w	r5, #98304	; 0x18000
  4023c6:	3001      	addeq	r0, #1
  4023c8:	bcf0      	pop	{r4, r5, r6, r7}
  4023ca:	3801      	subs	r0, #1
  4023cc:	4770      	bx	lr
  4023ce:	bf00      	nop

004023d0 <memcpy>:
  4023d0:	4684      	mov	ip, r0
  4023d2:	ea41 0300 	orr.w	r3, r1, r0
  4023d6:	f013 0303 	ands.w	r3, r3, #3
  4023da:	d16d      	bne.n	4024b8 <memcpy+0xe8>
  4023dc:	3a40      	subs	r2, #64	; 0x40
  4023de:	d341      	bcc.n	402464 <memcpy+0x94>
  4023e0:	f851 3b04 	ldr.w	r3, [r1], #4
  4023e4:	f840 3b04 	str.w	r3, [r0], #4
  4023e8:	f851 3b04 	ldr.w	r3, [r1], #4
  4023ec:	f840 3b04 	str.w	r3, [r0], #4
  4023f0:	f851 3b04 	ldr.w	r3, [r1], #4
  4023f4:	f840 3b04 	str.w	r3, [r0], #4
  4023f8:	f851 3b04 	ldr.w	r3, [r1], #4
  4023fc:	f840 3b04 	str.w	r3, [r0], #4
  402400:	f851 3b04 	ldr.w	r3, [r1], #4
  402404:	f840 3b04 	str.w	r3, [r0], #4
  402408:	f851 3b04 	ldr.w	r3, [r1], #4
  40240c:	f840 3b04 	str.w	r3, [r0], #4
  402410:	f851 3b04 	ldr.w	r3, [r1], #4
  402414:	f840 3b04 	str.w	r3, [r0], #4
  402418:	f851 3b04 	ldr.w	r3, [r1], #4
  40241c:	f840 3b04 	str.w	r3, [r0], #4
  402420:	f851 3b04 	ldr.w	r3, [r1], #4
  402424:	f840 3b04 	str.w	r3, [r0], #4
  402428:	f851 3b04 	ldr.w	r3, [r1], #4
  40242c:	f840 3b04 	str.w	r3, [r0], #4
  402430:	f851 3b04 	ldr.w	r3, [r1], #4
  402434:	f840 3b04 	str.w	r3, [r0], #4
  402438:	f851 3b04 	ldr.w	r3, [r1], #4
  40243c:	f840 3b04 	str.w	r3, [r0], #4
  402440:	f851 3b04 	ldr.w	r3, [r1], #4
  402444:	f840 3b04 	str.w	r3, [r0], #4
  402448:	f851 3b04 	ldr.w	r3, [r1], #4
  40244c:	f840 3b04 	str.w	r3, [r0], #4
  402450:	f851 3b04 	ldr.w	r3, [r1], #4
  402454:	f840 3b04 	str.w	r3, [r0], #4
  402458:	f851 3b04 	ldr.w	r3, [r1], #4
  40245c:	f840 3b04 	str.w	r3, [r0], #4
  402460:	3a40      	subs	r2, #64	; 0x40
  402462:	d2bd      	bcs.n	4023e0 <memcpy+0x10>
  402464:	3230      	adds	r2, #48	; 0x30
  402466:	d311      	bcc.n	40248c <memcpy+0xbc>
  402468:	f851 3b04 	ldr.w	r3, [r1], #4
  40246c:	f840 3b04 	str.w	r3, [r0], #4
  402470:	f851 3b04 	ldr.w	r3, [r1], #4
  402474:	f840 3b04 	str.w	r3, [r0], #4
  402478:	f851 3b04 	ldr.w	r3, [r1], #4
  40247c:	f840 3b04 	str.w	r3, [r0], #4
  402480:	f851 3b04 	ldr.w	r3, [r1], #4
  402484:	f840 3b04 	str.w	r3, [r0], #4
  402488:	3a10      	subs	r2, #16
  40248a:	d2ed      	bcs.n	402468 <memcpy+0x98>
  40248c:	320c      	adds	r2, #12
  40248e:	d305      	bcc.n	40249c <memcpy+0xcc>
  402490:	f851 3b04 	ldr.w	r3, [r1], #4
  402494:	f840 3b04 	str.w	r3, [r0], #4
  402498:	3a04      	subs	r2, #4
  40249a:	d2f9      	bcs.n	402490 <memcpy+0xc0>
  40249c:	3204      	adds	r2, #4
  40249e:	d008      	beq.n	4024b2 <memcpy+0xe2>
  4024a0:	07d2      	lsls	r2, r2, #31
  4024a2:	bf1c      	itt	ne
  4024a4:	f811 3b01 	ldrbne.w	r3, [r1], #1
  4024a8:	f800 3b01 	strbne.w	r3, [r0], #1
  4024ac:	d301      	bcc.n	4024b2 <memcpy+0xe2>
  4024ae:	880b      	ldrh	r3, [r1, #0]
  4024b0:	8003      	strh	r3, [r0, #0]
  4024b2:	4660      	mov	r0, ip
  4024b4:	4770      	bx	lr
  4024b6:	bf00      	nop
  4024b8:	2a08      	cmp	r2, #8
  4024ba:	d313      	bcc.n	4024e4 <memcpy+0x114>
  4024bc:	078b      	lsls	r3, r1, #30
  4024be:	d08d      	beq.n	4023dc <memcpy+0xc>
  4024c0:	f010 0303 	ands.w	r3, r0, #3
  4024c4:	d08a      	beq.n	4023dc <memcpy+0xc>
  4024c6:	f1c3 0304 	rsb	r3, r3, #4
  4024ca:	1ad2      	subs	r2, r2, r3
  4024cc:	07db      	lsls	r3, r3, #31
  4024ce:	bf1c      	itt	ne
  4024d0:	f811 3b01 	ldrbne.w	r3, [r1], #1
  4024d4:	f800 3b01 	strbne.w	r3, [r0], #1
  4024d8:	d380      	bcc.n	4023dc <memcpy+0xc>
  4024da:	f831 3b02 	ldrh.w	r3, [r1], #2
  4024de:	f820 3b02 	strh.w	r3, [r0], #2
  4024e2:	e77b      	b.n	4023dc <memcpy+0xc>
  4024e4:	3a04      	subs	r2, #4
  4024e6:	d3d9      	bcc.n	40249c <memcpy+0xcc>
  4024e8:	3a01      	subs	r2, #1
  4024ea:	f811 3b01 	ldrb.w	r3, [r1], #1
  4024ee:	f800 3b01 	strb.w	r3, [r0], #1
  4024f2:	d2f9      	bcs.n	4024e8 <memcpy+0x118>
  4024f4:	780b      	ldrb	r3, [r1, #0]
  4024f6:	7003      	strb	r3, [r0, #0]
  4024f8:	784b      	ldrb	r3, [r1, #1]
  4024fa:	7043      	strb	r3, [r0, #1]
  4024fc:	788b      	ldrb	r3, [r1, #2]
  4024fe:	7083      	strb	r3, [r0, #2]
  402500:	4660      	mov	r0, ip
  402502:	4770      	bx	lr

00402504 <memmove>:
  402504:	4288      	cmp	r0, r1
  402506:	b5f0      	push	{r4, r5, r6, r7, lr}
  402508:	d90d      	bls.n	402526 <memmove+0x22>
  40250a:	188b      	adds	r3, r1, r2
  40250c:	4298      	cmp	r0, r3
  40250e:	d20a      	bcs.n	402526 <memmove+0x22>
  402510:	1884      	adds	r4, r0, r2
  402512:	2a00      	cmp	r2, #0
  402514:	d051      	beq.n	4025ba <memmove+0xb6>
  402516:	4622      	mov	r2, r4
  402518:	f813 4d01 	ldrb.w	r4, [r3, #-1]!
  40251c:	f802 4d01 	strb.w	r4, [r2, #-1]!
  402520:	4299      	cmp	r1, r3
  402522:	d1f9      	bne.n	402518 <memmove+0x14>
  402524:	bdf0      	pop	{r4, r5, r6, r7, pc}
  402526:	2a0f      	cmp	r2, #15
  402528:	d948      	bls.n	4025bc <memmove+0xb8>
  40252a:	ea41 0300 	orr.w	r3, r1, r0
  40252e:	079b      	lsls	r3, r3, #30
  402530:	d146      	bne.n	4025c0 <memmove+0xbc>
  402532:	f100 0410 	add.w	r4, r0, #16
  402536:	f101 0310 	add.w	r3, r1, #16
  40253a:	4615      	mov	r5, r2
  40253c:	f853 6c10 	ldr.w	r6, [r3, #-16]
  402540:	f844 6c10 	str.w	r6, [r4, #-16]
  402544:	f853 6c0c 	ldr.w	r6, [r3, #-12]
  402548:	f844 6c0c 	str.w	r6, [r4, #-12]
  40254c:	f853 6c08 	ldr.w	r6, [r3, #-8]
  402550:	f844 6c08 	str.w	r6, [r4, #-8]
  402554:	3d10      	subs	r5, #16
  402556:	f853 6c04 	ldr.w	r6, [r3, #-4]
  40255a:	f844 6c04 	str.w	r6, [r4, #-4]
  40255e:	2d0f      	cmp	r5, #15
  402560:	f103 0310 	add.w	r3, r3, #16
  402564:	f104 0410 	add.w	r4, r4, #16
  402568:	d8e8      	bhi.n	40253c <memmove+0x38>
  40256a:	f1a2 0310 	sub.w	r3, r2, #16
  40256e:	f023 030f 	bic.w	r3, r3, #15
  402572:	f002 0e0f 	and.w	lr, r2, #15
  402576:	3310      	adds	r3, #16
  402578:	f1be 0f03 	cmp.w	lr, #3
  40257c:	4419      	add	r1, r3
  40257e:	4403      	add	r3, r0
  402580:	d921      	bls.n	4025c6 <memmove+0xc2>
  402582:	1f1e      	subs	r6, r3, #4
  402584:	460d      	mov	r5, r1
  402586:	4674      	mov	r4, lr
  402588:	3c04      	subs	r4, #4
  40258a:	f855 7b04 	ldr.w	r7, [r5], #4
  40258e:	f846 7f04 	str.w	r7, [r6, #4]!
  402592:	2c03      	cmp	r4, #3
  402594:	d8f8      	bhi.n	402588 <memmove+0x84>
  402596:	f1ae 0404 	sub.w	r4, lr, #4
  40259a:	f024 0403 	bic.w	r4, r4, #3
  40259e:	3404      	adds	r4, #4
  4025a0:	4421      	add	r1, r4
  4025a2:	4423      	add	r3, r4
  4025a4:	f002 0203 	and.w	r2, r2, #3
  4025a8:	b162      	cbz	r2, 4025c4 <memmove+0xc0>
  4025aa:	3b01      	subs	r3, #1
  4025ac:	440a      	add	r2, r1
  4025ae:	f811 4b01 	ldrb.w	r4, [r1], #1
  4025b2:	f803 4f01 	strb.w	r4, [r3, #1]!
  4025b6:	428a      	cmp	r2, r1
  4025b8:	d1f9      	bne.n	4025ae <memmove+0xaa>
  4025ba:	bdf0      	pop	{r4, r5, r6, r7, pc}
  4025bc:	4603      	mov	r3, r0
  4025be:	e7f3      	b.n	4025a8 <memmove+0xa4>
  4025c0:	4603      	mov	r3, r0
  4025c2:	e7f2      	b.n	4025aa <memmove+0xa6>
  4025c4:	bdf0      	pop	{r4, r5, r6, r7, pc}
  4025c6:	4672      	mov	r2, lr
  4025c8:	e7ee      	b.n	4025a8 <memmove+0xa4>
  4025ca:	bf00      	nop

004025cc <__malloc_lock>:
  4025cc:	4801      	ldr	r0, [pc, #4]	; (4025d4 <__malloc_lock+0x8>)
  4025ce:	f7ff bb7b 	b.w	401cc8 <__retarget_lock_acquire_recursive>
  4025d2:	bf00      	nop
  4025d4:	2040093c 	.word	0x2040093c

004025d8 <__malloc_unlock>:
  4025d8:	4801      	ldr	r0, [pc, #4]	; (4025e0 <__malloc_unlock+0x8>)
  4025da:	f7ff bb77 	b.w	401ccc <__retarget_lock_release_recursive>
  4025de:	bf00      	nop
  4025e0:	2040093c 	.word	0x2040093c

004025e4 <_realloc_r>:
  4025e4:	2900      	cmp	r1, #0
  4025e6:	f000 8095 	beq.w	402714 <_realloc_r+0x130>
  4025ea:	e92d 4ff0 	stmdb	sp!, {r4, r5, r6, r7, r8, r9, sl, fp, lr}
  4025ee:	460d      	mov	r5, r1
  4025f0:	4616      	mov	r6, r2
  4025f2:	b083      	sub	sp, #12
  4025f4:	4680      	mov	r8, r0
  4025f6:	f106 070b 	add.w	r7, r6, #11
  4025fa:	f7ff ffe7 	bl	4025cc <__malloc_lock>
  4025fe:	f855 ec04 	ldr.w	lr, [r5, #-4]
  402602:	2f16      	cmp	r7, #22
  402604:	f02e 0403 	bic.w	r4, lr, #3
  402608:	f1a5 0908 	sub.w	r9, r5, #8
  40260c:	d83c      	bhi.n	402688 <_realloc_r+0xa4>
  40260e:	2210      	movs	r2, #16
  402610:	4617      	mov	r7, r2
  402612:	42be      	cmp	r6, r7
  402614:	d83d      	bhi.n	402692 <_realloc_r+0xae>
  402616:	4294      	cmp	r4, r2
  402618:	da43      	bge.n	4026a2 <_realloc_r+0xbe>
  40261a:	4bc4      	ldr	r3, [pc, #784]	; (40292c <_realloc_r+0x348>)
  40261c:	6899      	ldr	r1, [r3, #8]
  40261e:	eb09 0004 	add.w	r0, r9, r4
  402622:	4288      	cmp	r0, r1
  402624:	f000 80b4 	beq.w	402790 <_realloc_r+0x1ac>
  402628:	6843      	ldr	r3, [r0, #4]
  40262a:	f023 0101 	bic.w	r1, r3, #1
  40262e:	4401      	add	r1, r0
  402630:	6849      	ldr	r1, [r1, #4]
  402632:	07c9      	lsls	r1, r1, #31
  402634:	d54c      	bpl.n	4026d0 <_realloc_r+0xec>
  402636:	f01e 0f01 	tst.w	lr, #1
  40263a:	f000 809b 	beq.w	402774 <_realloc_r+0x190>
  40263e:	4631      	mov	r1, r6
  402640:	4640      	mov	r0, r8
  402642:	f7ff fbc5 	bl	401dd0 <_malloc_r>
  402646:	4606      	mov	r6, r0
  402648:	2800      	cmp	r0, #0
  40264a:	d03a      	beq.n	4026c2 <_realloc_r+0xde>
  40264c:	f855 3c04 	ldr.w	r3, [r5, #-4]
  402650:	f023 0301 	bic.w	r3, r3, #1
  402654:	444b      	add	r3, r9
  402656:	f1a0 0208 	sub.w	r2, r0, #8
  40265a:	429a      	cmp	r2, r3
  40265c:	f000 8121 	beq.w	4028a2 <_realloc_r+0x2be>
  402660:	1f22      	subs	r2, r4, #4
  402662:	2a24      	cmp	r2, #36	; 0x24
  402664:	f200 8107 	bhi.w	402876 <_realloc_r+0x292>
  402668:	2a13      	cmp	r2, #19
  40266a:	f200 80db 	bhi.w	402824 <_realloc_r+0x240>
  40266e:	4603      	mov	r3, r0
  402670:	462a      	mov	r2, r5
  402672:	6811      	ldr	r1, [r2, #0]
  402674:	6019      	str	r1, [r3, #0]
  402676:	6851      	ldr	r1, [r2, #4]
  402678:	6059      	str	r1, [r3, #4]
  40267a:	6892      	ldr	r2, [r2, #8]
  40267c:	609a      	str	r2, [r3, #8]
  40267e:	4629      	mov	r1, r5
  402680:	4640      	mov	r0, r8
  402682:	f7ff f895 	bl	4017b0 <_free_r>
  402686:	e01c      	b.n	4026c2 <_realloc_r+0xde>
  402688:	f027 0707 	bic.w	r7, r7, #7
  40268c:	2f00      	cmp	r7, #0
  40268e:	463a      	mov	r2, r7
  402690:	dabf      	bge.n	402612 <_realloc_r+0x2e>
  402692:	2600      	movs	r6, #0
  402694:	230c      	movs	r3, #12
  402696:	4630      	mov	r0, r6
  402698:	f8c8 3000 	str.w	r3, [r8]
  40269c:	b003      	add	sp, #12
  40269e:	e8bd 8ff0 	ldmia.w	sp!, {r4, r5, r6, r7, r8, r9, sl, fp, pc}
  4026a2:	462e      	mov	r6, r5
  4026a4:	1be3      	subs	r3, r4, r7
  4026a6:	2b0f      	cmp	r3, #15
  4026a8:	d81e      	bhi.n	4026e8 <_realloc_r+0x104>
  4026aa:	f8d9 3004 	ldr.w	r3, [r9, #4]
  4026ae:	f003 0301 	and.w	r3, r3, #1
  4026b2:	4323      	orrs	r3, r4
  4026b4:	444c      	add	r4, r9
  4026b6:	f8c9 3004 	str.w	r3, [r9, #4]
  4026ba:	6863      	ldr	r3, [r4, #4]
  4026bc:	f043 0301 	orr.w	r3, r3, #1
  4026c0:	6063      	str	r3, [r4, #4]
  4026c2:	4640      	mov	r0, r8
  4026c4:	f7ff ff88 	bl	4025d8 <__malloc_unlock>
  4026c8:	4630      	mov	r0, r6
  4026ca:	b003      	add	sp, #12
  4026cc:	e8bd 8ff0 	ldmia.w	sp!, {r4, r5, r6, r7, r8, r9, sl, fp, pc}
  4026d0:	f023 0303 	bic.w	r3, r3, #3
  4026d4:	18e1      	adds	r1, r4, r3
  4026d6:	4291      	cmp	r1, r2
  4026d8:	db1f      	blt.n	40271a <_realloc_r+0x136>
  4026da:	68c3      	ldr	r3, [r0, #12]
  4026dc:	6882      	ldr	r2, [r0, #8]
  4026de:	462e      	mov	r6, r5
  4026e0:	60d3      	str	r3, [r2, #12]
  4026e2:	460c      	mov	r4, r1
  4026e4:	609a      	str	r2, [r3, #8]
  4026e6:	e7dd      	b.n	4026a4 <_realloc_r+0xc0>
  4026e8:	f8d9 2004 	ldr.w	r2, [r9, #4]
  4026ec:	eb09 0107 	add.w	r1, r9, r7
  4026f0:	f002 0201 	and.w	r2, r2, #1
  4026f4:	444c      	add	r4, r9
  4026f6:	f043 0301 	orr.w	r3, r3, #1
  4026fa:	4317      	orrs	r7, r2
  4026fc:	f8c9 7004 	str.w	r7, [r9, #4]
  402700:	604b      	str	r3, [r1, #4]
  402702:	6863      	ldr	r3, [r4, #4]
  402704:	f043 0301 	orr.w	r3, r3, #1
  402708:	3108      	adds	r1, #8
  40270a:	6063      	str	r3, [r4, #4]
  40270c:	4640      	mov	r0, r8
  40270e:	f7ff f84f 	bl	4017b0 <_free_r>
  402712:	e7d6      	b.n	4026c2 <_realloc_r+0xde>
  402714:	4611      	mov	r1, r2
  402716:	f7ff bb5b 	b.w	401dd0 <_malloc_r>
  40271a:	f01e 0f01 	tst.w	lr, #1
  40271e:	d18e      	bne.n	40263e <_realloc_r+0x5a>
  402720:	f855 1c08 	ldr.w	r1, [r5, #-8]
  402724:	eba9 0a01 	sub.w	sl, r9, r1
  402728:	f8da 1004 	ldr.w	r1, [sl, #4]
  40272c:	f021 0103 	bic.w	r1, r1, #3
  402730:	440b      	add	r3, r1
  402732:	4423      	add	r3, r4
  402734:	4293      	cmp	r3, r2
  402736:	db25      	blt.n	402784 <_realloc_r+0x1a0>
  402738:	68c2      	ldr	r2, [r0, #12]
  40273a:	6881      	ldr	r1, [r0, #8]
  40273c:	4656      	mov	r6, sl
  40273e:	60ca      	str	r2, [r1, #12]
  402740:	6091      	str	r1, [r2, #8]
  402742:	f8da 100c 	ldr.w	r1, [sl, #12]
  402746:	f856 0f08 	ldr.w	r0, [r6, #8]!
  40274a:	1f22      	subs	r2, r4, #4
  40274c:	2a24      	cmp	r2, #36	; 0x24
  40274e:	60c1      	str	r1, [r0, #12]
  402750:	6088      	str	r0, [r1, #8]
  402752:	f200 8094 	bhi.w	40287e <_realloc_r+0x29a>
  402756:	2a13      	cmp	r2, #19
  402758:	d96f      	bls.n	40283a <_realloc_r+0x256>
  40275a:	6829      	ldr	r1, [r5, #0]
  40275c:	f8ca 1008 	str.w	r1, [sl, #8]
  402760:	6869      	ldr	r1, [r5, #4]
  402762:	f8ca 100c 	str.w	r1, [sl, #12]
  402766:	2a1b      	cmp	r2, #27
  402768:	f200 80a2 	bhi.w	4028b0 <_realloc_r+0x2cc>
  40276c:	3508      	adds	r5, #8
  40276e:	f10a 0210 	add.w	r2, sl, #16
  402772:	e063      	b.n	40283c <_realloc_r+0x258>
  402774:	f855 3c08 	ldr.w	r3, [r5, #-8]
  402778:	eba9 0a03 	sub.w	sl, r9, r3
  40277c:	f8da 1004 	ldr.w	r1, [sl, #4]
  402780:	f021 0103 	bic.w	r1, r1, #3
  402784:	1863      	adds	r3, r4, r1
  402786:	4293      	cmp	r3, r2
  402788:	f6ff af59 	blt.w	40263e <_realloc_r+0x5a>
  40278c:	4656      	mov	r6, sl
  40278e:	e7d8      	b.n	402742 <_realloc_r+0x15e>
  402790:	6841      	ldr	r1, [r0, #4]
  402792:	f021 0b03 	bic.w	fp, r1, #3
  402796:	44a3      	add	fp, r4
  402798:	f107 0010 	add.w	r0, r7, #16
  40279c:	4583      	cmp	fp, r0
  40279e:	da56      	bge.n	40284e <_realloc_r+0x26a>
  4027a0:	f01e 0f01 	tst.w	lr, #1
  4027a4:	f47f af4b 	bne.w	40263e <_realloc_r+0x5a>
  4027a8:	f855 1c08 	ldr.w	r1, [r5, #-8]
  4027ac:	eba9 0a01 	sub.w	sl, r9, r1
  4027b0:	f8da 1004 	ldr.w	r1, [sl, #4]
  4027b4:	f021 0103 	bic.w	r1, r1, #3
  4027b8:	448b      	add	fp, r1
  4027ba:	4558      	cmp	r0, fp
  4027bc:	dce2      	bgt.n	402784 <_realloc_r+0x1a0>
  4027be:	4656      	mov	r6, sl
  4027c0:	f8da 100c 	ldr.w	r1, [sl, #12]
  4027c4:	f856 0f08 	ldr.w	r0, [r6, #8]!
  4027c8:	1f22      	subs	r2, r4, #4
  4027ca:	2a24      	cmp	r2, #36	; 0x24
  4027cc:	60c1      	str	r1, [r0, #12]
  4027ce:	6088      	str	r0, [r1, #8]
  4027d0:	f200 808f 	bhi.w	4028f2 <_realloc_r+0x30e>
  4027d4:	2a13      	cmp	r2, #19
  4027d6:	f240 808a 	bls.w	4028ee <_realloc_r+0x30a>
  4027da:	6829      	ldr	r1, [r5, #0]
  4027dc:	f8ca 1008 	str.w	r1, [sl, #8]
  4027e0:	6869      	ldr	r1, [r5, #4]
  4027e2:	f8ca 100c 	str.w	r1, [sl, #12]
  4027e6:	2a1b      	cmp	r2, #27
  4027e8:	f200 808a 	bhi.w	402900 <_realloc_r+0x31c>
  4027ec:	3508      	adds	r5, #8
  4027ee:	f10a 0210 	add.w	r2, sl, #16
  4027f2:	6829      	ldr	r1, [r5, #0]
  4027f4:	6011      	str	r1, [r2, #0]
  4027f6:	6869      	ldr	r1, [r5, #4]
  4027f8:	6051      	str	r1, [r2, #4]
  4027fa:	68a9      	ldr	r1, [r5, #8]
  4027fc:	6091      	str	r1, [r2, #8]
  4027fe:	eb0a 0107 	add.w	r1, sl, r7
  402802:	ebab 0207 	sub.w	r2, fp, r7
  402806:	f042 0201 	orr.w	r2, r2, #1
  40280a:	6099      	str	r1, [r3, #8]
  40280c:	604a      	str	r2, [r1, #4]
  40280e:	f8da 3004 	ldr.w	r3, [sl, #4]
  402812:	f003 0301 	and.w	r3, r3, #1
  402816:	431f      	orrs	r7, r3
  402818:	4640      	mov	r0, r8
  40281a:	f8ca 7004 	str.w	r7, [sl, #4]
  40281e:	f7ff fedb 	bl	4025d8 <__malloc_unlock>
  402822:	e751      	b.n	4026c8 <_realloc_r+0xe4>
  402824:	682b      	ldr	r3, [r5, #0]
  402826:	6003      	str	r3, [r0, #0]
  402828:	686b      	ldr	r3, [r5, #4]
  40282a:	6043      	str	r3, [r0, #4]
  40282c:	2a1b      	cmp	r2, #27
  40282e:	d82d      	bhi.n	40288c <_realloc_r+0x2a8>
  402830:	f100 0308 	add.w	r3, r0, #8
  402834:	f105 0208 	add.w	r2, r5, #8
  402838:	e71b      	b.n	402672 <_realloc_r+0x8e>
  40283a:	4632      	mov	r2, r6
  40283c:	6829      	ldr	r1, [r5, #0]
  40283e:	6011      	str	r1, [r2, #0]
  402840:	6869      	ldr	r1, [r5, #4]
  402842:	6051      	str	r1, [r2, #4]
  402844:	68a9      	ldr	r1, [r5, #8]
  402846:	6091      	str	r1, [r2, #8]
  402848:	461c      	mov	r4, r3
  40284a:	46d1      	mov	r9, sl
  40284c:	e72a      	b.n	4026a4 <_realloc_r+0xc0>
  40284e:	eb09 0107 	add.w	r1, r9, r7
  402852:	ebab 0b07 	sub.w	fp, fp, r7
  402856:	f04b 0201 	orr.w	r2, fp, #1
  40285a:	6099      	str	r1, [r3, #8]
  40285c:	604a      	str	r2, [r1, #4]
  40285e:	f855 3c04 	ldr.w	r3, [r5, #-4]
  402862:	f003 0301 	and.w	r3, r3, #1
  402866:	431f      	orrs	r7, r3
  402868:	4640      	mov	r0, r8
  40286a:	f845 7c04 	str.w	r7, [r5, #-4]
  40286e:	f7ff feb3 	bl	4025d8 <__malloc_unlock>
  402872:	462e      	mov	r6, r5
  402874:	e728      	b.n	4026c8 <_realloc_r+0xe4>
  402876:	4629      	mov	r1, r5
  402878:	f7ff fe44 	bl	402504 <memmove>
  40287c:	e6ff      	b.n	40267e <_realloc_r+0x9a>
  40287e:	4629      	mov	r1, r5
  402880:	4630      	mov	r0, r6
  402882:	461c      	mov	r4, r3
  402884:	46d1      	mov	r9, sl
  402886:	f7ff fe3d 	bl	402504 <memmove>
  40288a:	e70b      	b.n	4026a4 <_realloc_r+0xc0>
  40288c:	68ab      	ldr	r3, [r5, #8]
  40288e:	6083      	str	r3, [r0, #8]
  402890:	68eb      	ldr	r3, [r5, #12]
  402892:	60c3      	str	r3, [r0, #12]
  402894:	2a24      	cmp	r2, #36	; 0x24
  402896:	d017      	beq.n	4028c8 <_realloc_r+0x2e4>
  402898:	f100 0310 	add.w	r3, r0, #16
  40289c:	f105 0210 	add.w	r2, r5, #16
  4028a0:	e6e7      	b.n	402672 <_realloc_r+0x8e>
  4028a2:	f850 3c04 	ldr.w	r3, [r0, #-4]
  4028a6:	f023 0303 	bic.w	r3, r3, #3
  4028aa:	441c      	add	r4, r3
  4028ac:	462e      	mov	r6, r5
  4028ae:	e6f9      	b.n	4026a4 <_realloc_r+0xc0>
  4028b0:	68a9      	ldr	r1, [r5, #8]
  4028b2:	f8ca 1010 	str.w	r1, [sl, #16]
  4028b6:	68e9      	ldr	r1, [r5, #12]
  4028b8:	f8ca 1014 	str.w	r1, [sl, #20]
  4028bc:	2a24      	cmp	r2, #36	; 0x24
  4028be:	d00c      	beq.n	4028da <_realloc_r+0x2f6>
  4028c0:	3510      	adds	r5, #16
  4028c2:	f10a 0218 	add.w	r2, sl, #24
  4028c6:	e7b9      	b.n	40283c <_realloc_r+0x258>
  4028c8:	692b      	ldr	r3, [r5, #16]
  4028ca:	6103      	str	r3, [r0, #16]
  4028cc:	696b      	ldr	r3, [r5, #20]
  4028ce:	6143      	str	r3, [r0, #20]
  4028d0:	f105 0218 	add.w	r2, r5, #24
  4028d4:	f100 0318 	add.w	r3, r0, #24
  4028d8:	e6cb      	b.n	402672 <_realloc_r+0x8e>
  4028da:	692a      	ldr	r2, [r5, #16]
  4028dc:	f8ca 2018 	str.w	r2, [sl, #24]
  4028e0:	696a      	ldr	r2, [r5, #20]
  4028e2:	f8ca 201c 	str.w	r2, [sl, #28]
  4028e6:	3518      	adds	r5, #24
  4028e8:	f10a 0220 	add.w	r2, sl, #32
  4028ec:	e7a6      	b.n	40283c <_realloc_r+0x258>
  4028ee:	4632      	mov	r2, r6
  4028f0:	e77f      	b.n	4027f2 <_realloc_r+0x20e>
  4028f2:	4629      	mov	r1, r5
  4028f4:	4630      	mov	r0, r6
  4028f6:	9301      	str	r3, [sp, #4]
  4028f8:	f7ff fe04 	bl	402504 <memmove>
  4028fc:	9b01      	ldr	r3, [sp, #4]
  4028fe:	e77e      	b.n	4027fe <_realloc_r+0x21a>
  402900:	68a9      	ldr	r1, [r5, #8]
  402902:	f8ca 1010 	str.w	r1, [sl, #16]
  402906:	68e9      	ldr	r1, [r5, #12]
  402908:	f8ca 1014 	str.w	r1, [sl, #20]
  40290c:	2a24      	cmp	r2, #36	; 0x24
  40290e:	d003      	beq.n	402918 <_realloc_r+0x334>
